:020000040800F2
:10000000009200201D1B0008851B0008851B0008AE
:10001000851B0008851B0008851B000800000000E8
:10002000000000000000000000000000851B000828
:10003000851B000800000000314D00084D540008E9
:10004000851B0008851B0008851B0008851B000810
:10005000851B0008851B0008851B0008851B000800
:10006000851B0008851B0008851B0008851B0008F0
:10007000851B0008851B0008851B0008851B0008E0
:10008000851B0008851B0008851B0008851B0008D0
:10009000851B0008851B0008851B0008851B0008C0
:1000A000851B0008851B0008851B0008851B0008B0
:1000B000851B0008851B0008851B0008851B0008A0
:1000C000851B0008851B0008851B0008851B000890
:1000D000851B0008851B0008851B0008851B000880
:1000E000851B0008851B0008851B0008851B000870
:1000F000851B0008851B0008851B0008851B000860
:10010000851B0008851B0008851B0008851B00084F
:10011000851B0008851B0008851B0008851B00083F
:10012000851B0008851B0008851B0008851B00082F
:10013000851B0008851B0008851B0008851B00081F
:10014000851B0008851B0008851B0008851B00080F
:10015000851B0008851B0008851B0008851B0008FF
:10016000851B0008851B0008851B0008851B0008EF
:10017000851B0008851B0008851B0008851B0008DF
:10018000851B0008851B000880B400AF0C4A0D4B8E
:100190001A600B4BC8330B4A53600B4B084A1A606A
:1001A000094B1B6800221A60074B1B6800225A602B
:1001B000054B1B6800229A60BD465DF8047B7047C2
:1001C00048040020140500201005002080B500AF71
:1001D0000E4B1B78DBB2012B10D10D4B1B78012B82
:1001E00001D101F0D3FC0B4B1B78DBB2012B01D109
:1001F00001F0ACFA054B00221A7006E0034B1B78A5
:10020000DBB2013BDAB2014B1A7080BD1D05002044
:10021000B00900201E05002080B500AF154B164A1E
:100220001A60164B07221A60154A154B1B6843F0DB
:100230007F431360134A134B1B686FEA03436FEA53
:100240001343136000F0D6FD03F0B8FFFFF79CFFE7
:100250000D4B1B78DBB20133DAB20B4B1A700B4833
:10026000002144F240020A4B01F036FB084804F03A
:100270004FFD80BD14E000E03F90020010E000E080
:100280001CED00E020ED00E01D05002031560008C7
:100290005009002080B500AF094B0A4A1A60084B8C
:1002A0001B68094A1360064B1B6801225A71044BF4
:1002B0001B68184601F0CAF8FFF788FF80BD00BF31
:1002C00060090020680500205C09002090B587B017
:1002D00000AF0346FB71FA796D4913465B00134486
:1002E000DB000B445B68FB60FB68002B00D1CCE0BB
:1002F000684B1B78DBB20133DAB2664B1A70664B7F
:100300001B68002B09D1FA7913465B001344DB000C
:100310005F4A1344604A1360B5E05F4B1B687B6122
:10032000FB683B61ABE03A697B695B68D31A3B6170
:100330003B69002B7CDA7B695B69002B28D07B69E9
:100340005969FA7913465B001344DB00504A1344A1
:100350000B61FA797B6959694D4813465B00134478
:10036000DB00034410335960FA79494913465B00B6
:100370001344DB000B4410337A691A60FA79134690
:100380005B001344DB00424A1A447B695A611DE05A
:10039000FA79414B19683E4813465B001344DB0071
:1003A0000344103319603C4B1968FA7913465B001B
:1003B0001344DB00364A13444B61FA7913465B0061
:1003C0001344DB00324A1344334A1360FA79F97953
:1003D0002F480B465B000B44DB00034410331B68C3
:1003E00059683B6919442A4813465B001344DB00F3
:1003F00003445960FA79264913465B001344DB0035
:100400000B4410331968FA79214813465B001344F2
:10041000DB00034410331B685868FA791C4C134600
:100420005B001344DB0023445B68C31A4B602AE083
:100430003B69002B20DB7B691B69002B1CD1FA79FF
:10044000134913465B001344DB000B4410337A69F5
:100450005A60FA7913465B001344DB000C4A1A44D5
:100460007B691A61FA793969094813465B001344BC
:10047000DB000344596006E07B691B697B617B6993
:10048000002B7FF450AFFFF7A1FE1C37BD4690BD97
:10049000200500201D0500205005002080B584B0F7
:1004A00000AF0346FB71FA7913465B001344DB008F
:1004B0002C4A1344FB602C4B1B78DBB20133DAB2BD
:1004C000294B1A70FB685B69002B07D1FB681B691D
:1004D000002B03D1254B00221A603DE0FB685B69CD
:1004E000002B14D1FB681B69204A13601F4B1B684B
:1004F00000225A61FB681B69FA6812695168FA6840
:1005000052680A445A60FB6800221A6124E0FB68C2
:100510001B69002B07D1FB685B6900221A61FB682D
:1005200000225A6118E0FB685B69FA6812691A6177
:10053000FB681B69FA6852695A61FB681B69FA68B3
:1005400012695168FA6852680A445A60FB680022CE
:100550001A61FB6800225A61FFF738FE1037BD466A
:1005600080BD00BF200500201D0500205005002093
:1005700080B586B000AFB9607A603B600346FB731C
:10058000FB7B002B04D0FB7B012B01D0FF237BE006
:100590003B68002B01D1FF2376E03D4B1B78DBB29B
:1005A0000133DAB23A4B1A700023FB7566E0FB7D2B
:1005B000012202FA03F31A46364B1B681340002B44
:1005C00059D1FB7D012202FA03F31A46314B1B6815
:1005D0001343304A1360FFF7F9FDFA7D2E491346A5
:1005E0005B001344DB000B44FA7D1A70FA7D2A4944
:1005F00013465B001344DB000B44FA7B5A70FA7D10
:10060000254913465B001344DB000B4401229A701A
:10061000FA7D214913465B001344DB000B44BA68A2
:100620005A60FA7D1C4913465B001344DB000B44FF
:1006300008337A681A60FA7D174913465B00134441
:10064000DB000B4408333A685A60FA7D12491346BE
:100650005B001344DB000B44103300225A60FA7D28
:100660000D4913465B001344DB000B44103300229A
:100670001A60FB7D08E0FB7D0133FB75FB7D012BE0
:1006800095D9FFF7A3FDFF2318461837BD4680BD57
:100690001D050020540500202005002080B582B0F3
:1006A00000AF0346FB71FB79012B01D9012325E043
:1006B000FB79012202FA03F31A46124B1B6813401E
:1006C000002B01D1012319E0FA790F4913465B0091
:1006D0001344DB000B449B78002B01D100230DE079
:1006E000FA79094913465B001344DB000B440022EE
:1006F0009A70FB791846FFF7E9FD00231846083782
:10070000BD4680BD540500202005002080B582B084
:1007100000AF1B4B1B687B6027E07B685B78002B7E
:100720000BD17B681B781846FFF7B8FE7B68012267
:100730009A707B68DB68984714E07B685B78012BD4
:1007400010D17B681B781846FFF7A8FE7B689A6873
:100750007B685A607B681B781846FFF7B7FD7B689B
:10076000DB689847064B1B687B607B68002B03D0D7
:100770007B685B68002BD0D00837BD4680BD00BFCA
:100780005005002080B500AF074B1B78DBB2012B72
:1007900006D9064B01221A70054B01221A7001E09E
:1007A000FFF7B4FF80BD00BF1D050020B009002089
:1007B000B209002080B582B000AF1020012101F005
:1007C00083FA7C233B6000233B710123FB713B4692
:1007D0000348194603F0C2FE0837BD4680BD00BF7E
:1007E0000010024080B582B000AF0023FB711948B1
:1007F000042103F041FF0346002B01D10123FB71CB
:100800001448082103F038FF0346002B01D10223CE
:10081000FB711048102103F02FFF0346002B01D17C
:100820000323FB710B48202103F026FF0346002B16
:1008300001D10423FB710748402103F01DFF03464B
:10084000002B01D10523FB71FB7918460837BD4603
:1008500080BD00BF0010024080B485B000AF78605A
:100860000B46FB7013463B800023FB730023BB81C8
:100870000023BB8114E00023FB730AE0BB89DB018A
:100880007A681344FA7B002123F81210FB7B0133B2
:10089000FB73FA7BFB789A42F0D3BB890133BB81AF
:1008A000BA893B889A42E6D31437BD465DF8047B8B
:1008B000704700BF80B588B000AF78600023FB6050
:1008C00000237B6101233B610023FB6193E0002354
:1008D000BB6126E03B69002B0CD0BB69FB60FB6968
:1008E0001B027A681344BA6953F822307B610023F3
:1008F0003B6113E07A69FB691B0279680B44B969B3
:1009000053F821309A4209D8BB69FB60FB691B028E
:100910007A681344BA6953F822307B61BB690133AA
:10092000BB61BB693E2BD5DD0023BB615DE0FB698C
:100930001B027A6813447969BA6943F82210BA69CC
:1009400053F82230002B15D0FB699BB21A46520097
:1009500013445B009BB214339AB2BB699BB2C3F1E0
:10096000DC039BB21046194601224FF4784303F092
:100970009DF837E0FB691B027A681344BA6953F8A3
:1009800022207B69D90F0B445B109A4215D9FB6971
:100990009BB21A46520013445B009BB214339AB2C6
:1009A000BB699BB2C3F1DC039BB21046194601221E
:1009B0004FF6E07303F07AF814E0FB699BB21A4635
:1009C000520013445B009BB214339AB2BB699BB2D2
:1009D000C3F1DC039BB21046194601224FF4FC63BD
:1009E00003F064F8BB690133BB61BB693E2B9EDD3C
:1009F000FB690133FB61FB69312B7FF768AF20375F
:100A0000BD4680BD80B582B002AF4FF6FF7002F0E8
:100A1000C1FE1F2300930A20DC210A22002302F0DA
:100A200087FF1F2300934FF4A070DC210022DC23FA
:100A300002F07EFFBD4680BD80B487B000AFB960D4
:100A40007A603B600346FB730023FB750023BB7594
:100A500000237B75FB7B23F07F03FB75FB7DDB09AC
:100A6000FB75FB7B03F07E03BB75BB7D5B08BB7531
:100A7000FB7B03F001037B75BB68FA7D1A707B6812
:100A8000BA7D1A703B687A7D1A701C37BD465DF8D6
:100A9000047B704780B500AF01F0BCFA1F2002F064
:100AA00079FE03480021034A034B00F015FF80BD87
:100AB000BD0A000803C40900A032002080B584B03C
:100AC00000AF78600B4800210B4A0C4B00F004FF8C
:100AD0000346FB730520002103F056F9FB7B184603
:100AE00000F08CFF0020002100224FF4FA7303F085
:100AF000BBFAE7E7010B000801C40900B059002068
:100B000090B5ADF5C95D81B000AF07F120031C3B86
:100B10001860002307F5C85202F116021380002363
:100B200007F5C85202F114021380002307F5C852DA
:100B300002F11E021380002307F5C85202F11C02C5
:100B40001380012307F5C85202F11A021380A54B46
:100B50001B68A54AA2FB03231B0907F5C85202F133
:100B600012021380002307F5C85202F11802138005
:100B70009C4B1B689C4AA2FB03231B0907F5C85228
:100B800002F110021380FFF73DFF07F12003183B2D
:100B9000184640213222FFF75FFE944B1A7807F582
:100BA000C85303F10B03104600211A4603F09CFFC3
:100BB00007F5C85303F10C03186007F5C85303F198
:100BC0000C031B681B8807F5C85202F1160213803C
:100BD00007F5C85303F10C031B685B8807F5C8527F
:100BE00002F11402138007F5C85303F114031A88A5
:100BF00007F5C85303F11E031B889A4206D300234E
:100C000007F5C85202F11C0213800AE007F5C85329
:100C100003F11E031B88DB4307F5C85202F11C02D7
:100C2000138007F5C85303F114031A88704B1B682F
:100C30001A4407F5C85303F11C031B8813446C4A7C
:100C400013606B4B1A68674B1B689A4200F28980ED
:100C500007F5C85303F118031B88312B00F281807C
:100C600007F5C85303F116031B88D8B207F5C8511E
:100C700001F1080107F5C85303F108035A1C07F5F1
:100C8000C85303F108030233FFF7D6FE07F5C85334
:100C900003F11A031A88564B1B689A422FD807F59E
:100CA000C85303F112031A88514B1B689A4226D38A
:100CB00007F5C85303F118031A8807F5C85303F161
:100CC00009031B78184607F5C85303F11803198860
:100CD00007F5C85303F109031B781C4607F12003ED
:100CE000183B8901214433F81130013399B207F1DF
:100CF0002003183B9201024423F8121067E007F525
:100D0000C85303F118031B88013307F5C85202F1D9
:100D10001802138007F5C85303F118031A8807F562
:100D2000C85303F109031B78184607F5C85303F1AC
:100D30001803198807F5C85303F109031B781C46EB
:100D400007F12003183B8901214433F811300133A6
:100D500099B207F12003183B9201024423F81210C4
:100D600035E007F12003183B1846FFF7A3FD07F510
:100D7000C85303F112031B8807F5C85202F11A0287
:100D8000138007F5C85303F118031B8801339BB286
:100D900007F5C85202F11002128812FB03F307F59F
:100DA000C85202F11A02138007F12003183B1846BB
:100DB00040213222FFF750FDFFF724FE0C4B0022AA
:100DC0001A60002307F5C85202F11802138007F5D4
:100DD000C85303F114031B8807F5C85202F11E0221
:100DE0001380DAE6040000201F85EB51F46900202F
:100DF0006005002080B485B000AF1C4B00221A7043
:100E00001B4BBB601B4B7B600023FB7319E0BB6873
:100E1000FA7B9A71BB6803225A71BB687A685A627E
:100E2000FB7B154AFF21D154FB7B144AFF21D1548F
:100E3000BB682C33BB607B682C337B60FB7B01334E
:100E4000FB73FB7B0F2BE2D9FB7B0C4AFF21D154B8
:100E5000BB68FA7B9A71BB6800225A62084B044A4D
:100E60001A601437BD465DF8047B7047B4610020FA
:100E7000680500209405002070090020D061002042
:100E80005409002080B485B000AF03463960FB717F
:100E90000023BB73194B1B78FB7321E0BB7B7B7377
:100EA000BA7BFB7B1344DA0F13445B10BB73BB7B31
:100EB000134AD35CFA799A4204D13B68BA7B1A7020
:100EC000012315E0BB7B0E4AD35CFA799A4204D227
:100ED000BB7BFB737B7BBB7302E0BB7B0133BB73D0
:100EE000BA7BFB7B9A42D9D13B68BA7B1A7000234C
:100EF00018461437BD465DF8047B7047B461002086
:100F0000D061002080B485B000AF0346FB71FB794F
:100F10005B09FB73FB7903F01F03BB73FB7B404A48
:100F200052F82330BB60BB68002B6AD0BB7BDB0868
:100F30007B737B7BDB00FF2202FA03F31A46BB685C
:100F40001340002B53D07B7BDB00F02202FA03F32B
:100F50001A46BB681340002B1FD0BB7B3B7315E0C8
:100F600097F90C30012202FA03F31A46BB681340CA
:100F7000002B06D0FB7B5B01DAB23B7B1344DBB278
:100F800047E03B7BDBB2013BDBB23B7397F90C20C4
:100F90007B7BDB0004339A42E2DABB7B03F0040381
:100FA000002B05D0BB7B43F00303DBB2043BBB73D8
:100FB000BB7B3B7315E097F90C30012202FA03F377
:100FC0001A46BB681340002B06D0FB7B5B01DAB2EC
:100FD0003B7B1344DBB21CE03B7BDBB2013BDBB26F
:100FE0003B7397F90C207B7BDB009A42E3DA7B7B37
:100FF000DB00DBB2013BBB737B7B5A1E7A73002B99
:1010000097D11F23BB73FB7B5A1EFA73002B85D12C
:10101000FF2318461437BD465DF8047B704700BFB8
:10102000CC61002080B485B000AF0346FB71002383
:10103000BB730023BB60FB795B09BB730023FB73AD
:101040000AE0FB7B012202FA03F31A46BB68134352
:10105000BB60FB7B0133FB73FB7903F01F03DBB247
:10106000FA7B9A42EDD3BB7B204A52F82330BA6810
:101070001340BB60FB79FB7325E0FB7B03F01F0390
:10108000DBB2002B0DD1FA7BFB799A4209D0BB7BF6
:101090005A1CBA731946154ABB6842F8213000231E
:1010A000BB60FB7B124AD35CFF2B09D0FB7B03F0B8
:1010B0001F03012202FA03F31A46BB681343BB6005
:1010C000FB7B0133FB730B4B1B78FA7B9A42D4D327
:1010D000BB7B5A1CBA731946044ABB6842F82130DC
:1010E0001437BD465DF8047B704700BFCC6100201B
:1010F00070090020B461002080B483B000AF0346C3
:10110000FB71FB795B09DBB21A460A4B53F82230BC
:10111000FA7902F01F02012101FA02F21340002BBA
:1011200001D1002300E0012318460C37BD465DF8CD
:10113000047B7047CC61002080B485B000AF0346CB
:101140000A46FB711346BB71FB795B09DBB21A4699
:10115000124B53F82230FB60FB7903F01F0301228E
:1011600002FA03F3DB431A46FB681340FB60BA79CB
:10117000FB7903F01F0302FA03F31A46FB681343DB
:10118000FB60FB795B09DBB21946044AFB6842F855
:1011900021301437BD465DF8047B7047CC610020D8
:1011A00080B584B000AF0346FB71FA7907F10E03F6
:1011B00010461946FFF766FE0346002B39D1224B35
:1011C0001B78FB7317E0FB7BFA7B013A1F49895CB4
:1011D0001E4AD154FB7BFA7B013A1D49895C1C4AAB
:1011E000D154FB7BFA7B013A1A49895C194AD154E4
:1011F000FB7B013BFB73BB7BFA7B9A42E3D8BB7B57
:101200001946124AFB795354BB7B1A46104B0121F5
:101210009954BB7B1A460F4BFF2199540A4B1B78FC
:101220000133DAB2084B1A70BB7B1846FFF7FAFE9F
:1012300006E0BB7B064AD25C0132D1B2044AD154EB
:101240001037BD4680BD00BFB4610020D0610020D2
:10125000B86100207009002080B584B000AF03465B
:10126000FB71FA7907F10E0310461946FFF70AFEE3
:10127000BB7B1D4AD25C013AD1B21B4AD154BB7B25
:101280001A46194B9B5C002B2AD1BB7BFB7317E0E2
:10129000FB7BFA7B01321549895C144AD154FB7BF4
:1012A000FA7B01321049895C0F4AD154FB7BFA7BEF
:1012B00001320F49895C0E4AD154FB7B0133FB7329
:1012C000FA7B0C4B1B78013B9A42E1DB094B1B7804
:1012D000013BDAB2074B1A70BB7B1846FFF7A2FE40
:1012E0001037BD4680BD00BFB8610020D06100202E
:1012F00070090020B461002080B586B000AF78602E
:101300007B681B79FB747B6800225A71484B1B6811
:101310007B617B691B79FA7C9A421ED17A697B6872
:101320009A421AD07B69002B17D0424BD3E90001B7
:10133000414BD3E90023994208BF90420DD27B690B
:101340005B8998B24FF000013B4BD3E900231218A0
:1013500043EB01033749C1E90023FA7C07F10B0392
:1013600010461946FFF78EFDFB7A1846FFF7C4FEBC
:101370000346012B11D1FB7A1A46304B9B5C1A466F
:101380002C2303FB02F32E4A13447B61FB7A1A469B
:101390007B689979294B995434E0FB7A1A467B682B
:1013A0009979264B9954FB7A1846FFF7ABFD034613
:1013B000BB74FB7A18460121FFF7BEFEBB7CFF2BF6
:1013C00016D1204B1B687B611F4B01221A707B6971
:1013D000002B03D11B4A7B68136025E07B687A6988
:1013E0005A627B697A689A62164A7B6813601BE0CE
:1013F000BB7C124AD35C1A462C2303FB02F3104A2F
:1014000013447B617B695B6AFB607B68FA685A62A4
:101410007B697A685A627B687A699A62FB68002BFA
:1014200002D0FB687A689A621837BD4680BD00BF5B
:101430006009002068090020880B00207009002046
:1014400068050020580900201E05002080B584B0E2
:1014500000AF78600023FB737B681B79BB73BA7B9A
:1014600007F10D0310461946FFF70CFD7B685B6A18
:10147000002B09D17B689B6A002B05D13D4B0022D4
:101480001A600123FB7365E07B689B6A002B13D114
:101490007B685B6A374A13607B6800225A62354B6F
:1014A0001B6800229A62334B1B681B79BA7B9A42F5
:1014B00050D00123FB734DE07B685B6A002B17D192
:1014C0007B689B6A1B79BA7B9A4202D00123FB732B
:1014D00006E07B7B1A467B689B6A9979264B995478
:1014E0007B689B6A00225A627B6800229A6231E024
:1014F0007B689B6A1B79BA7B9A4208D07B685B6ADF
:101500001B79BA7B9A4202D00123FB7312E07B68FD
:101510009B6A1B79BA7B9A420CD17B685B6A1B7908
:10152000BA7B9A4206D07B7B1A467B689B6A997984
:10153000114B99547B689B6A7A68526A5A627B683D
:101540005B6A7A68926A9A627B6800225A627B6858
:1015500000229A62FB7B012B09D17B7B1A46064B4A
:10156000FF2199547B7B18460021FFF7E5FD1037DA
:10157000BD4680BD580900207009002080B586B0A6
:1015800000AF03460A46FB711346BB71FB79002B83
:1015900001D11423CAE0FB79102B01D90123C5E046
:1015A000FB792C2202FB03F3624A13447B617B69C3
:1015B0005B79032B01D10123B8E0BB79402B01D922
:1015C0000123B3E07B691B79BA799A4200F0AD80C0
:1015D0007B69DB79FF2B15D07B69DB79DB00564A11
:1015E0001344FB60FB689A787B699B799A4209D126
:1015F000FB68BA791A707B691B79BA799A4201D96A
:10160000002393E07B691B791846FFF725FEBB7921
:101610001846FFF7C5FD7B69BA791A717B695B795A
:10162000002B0FD1454B1B78DBB20133DAB2434BB1
:101630001A707869FFF70AFF7869FFF75DFEFEF719
:10164000C5FD72E07B695B79012B13D17B691A7947
:101650003B4B1B681B799A4267D9384B1B78DBB22E
:101660000133DAB2354B1A70364B01221A70FEF78D
:10167000ADFD5AE07B69DB79FF2B37D02F4B1B7810
:10168000DBB20133DAB22D4B1A707B69DB79DB00F8
:10169000294A1344FB60FB685B687B61FB681B782D
:1016A000FB74FB689A78FB68DA700EE07B691B7943
:1016B000FA7C9A4206D97B691B79FB747B699A791B
:1016C000FB68DA707B695B6A7B617B69002BEDD11B
:1016D000FEF77CFDFB681B78FA7C9A4206D0FB681B
:1016E0009A78FB7C10461946FFF748FFFB792C22BD
:1016F00002FB03F30F4A13447B617B691B7AFF2BC8
:1017000013D07B691B7A1B010F4A1344BB60BB6873
:101710005B7923F00F03DBB2202B06D1786902F04E
:10172000D1FEB868796902F0C7FD00231846183762
:10173000BD4680BD68050020240B00201D0500204B
:10174000580900201E050020B809002080B584B08B
:1017500000AF454B1B68FB60444B1B68BB60BB681C
:10176000002B0ED0424B1B68FA689A4209D1414BBC
:101770001B78DBB2012B04D83F4B1B78DBB2002B6C
:1017800000D06DE03D4B00221A70FB681B79FB71A5
:10179000BB681B79BB71FB685B79012B09D0344AAC
:1017A000BB681360BB6801225A71B868FFF74EFE30
:1017B0002CE0BA79FB799A420CD22D4ABB681360AF
:1017C000F868FFF799FDB868FFF740FEBB68012293
:1017D0005A711BE0FA79BB799A4216D1284BD3E9AA
:1017E0000001284BD3E90023994208BF90420CD155
:1017F0001F4ABB681360F868FFF77EFDB868FFF703
:1018000025FEBB6801225A7100E029E0184B1B68D5
:101810001A79164B1B681B799A420ED1144B1B6820
:101820005B8998B24FF00001164BD3E900231218E0
:1018300043EB01031249C1E90023FB681A68FB6806
:10184000DB689A4205D3FB68DB681B680E4A93424B
:1018500004D0FB689B79184603F0F0FE03F05EFAB3
:101860001037BD4680BD00BF600900205809002028
:101870005C0900201D0500201C0500201E0500201D
:1018800068090020880B0020A5A55A5A80B582B0AF
:1018900000AF0F4B1B78DBB20133DAB20C4B1A707E
:1018A0000C4B1B68002B03D1FEF790FC00230AE0D1
:1018B000084B1B687B60074B1B685B6A054A13601B
:1018C000FEF784FC7B6818460837BD4680BD00BF24
:1018D0001D0500205409002080B588B000AFF860D5
:1018E000B9607A603B607A68404B13401B0ABB8347
:1018F0007B68FB76FB68002B01D1FF2372E03B681D
:10190000002B01D1FF236DE0FB7E402B01D9FF238B
:1019100068E0BB8B132B01D8FF2363E0F868B9683C
:101920003A6803F06BFD7861FFF7B0FF38613B69FF
:10193000002B01D1FF2355E03B697A691A603B69AE
:10194000FA7E1A71BA8B13469B079B1A9B000433CD
:101950003A681A443B69DA603B69DB68244A1A60DA
:101960003B694FF0FF321A623B6900225A623B69C1
:1019700000229A627A681F4B13401B0DFB83FB8B7E
:10198000002B01D10A23FB833B69FA8B5A813B6907
:101990000022DA613B69FF221A723B6900221A6158
:1019A0003B6900225A613B6900229A613B69FF2230
:1019B000DA71FB7E1846FFF7F3FB7B68002B0CDB2C
:1019C0000D4B1B78DBB20133DAB20B4B1A7038695E
:1019D000FFF792FCFEF7FAFB02E03B6902225A7124
:1019E0003B699B7918462037BD4680BD00FF0F003C
:1019F000A5A55A5A0000FF7F1D05002080B584B0C0
:101A000000AF0346FB71FB79102B01D9012376E06F
:101A1000FB792C2202FB03F33B4A1344FB60FB6877
:101A20005B79032B01D1012369E0FB79002B01D104
:101A3000142364E0FB685B79012B06D1334B1B78E0
:101A4000DBB2002B01D0152359E0FB68DB79FF2BBB
:101A50000ED0FB68DB792E4ADB0013449A78FB68D2
:101A60009B799A4204D1FB68DB79184603F07EF932
:101A7000264B1B78DBB20133DAB2244B1A70FB68B9
:101A80005B79002B03D1F868FFF7E0FC22E0FB68EC
:101A90005B79022B1ED1FB681B6AB3F1FF3F02D0BA
:101AA000F86802F04FFAFB681B7AFF2B02D0F86847
:101AB00002F008FDFB68DB69002B04D0FB68DB69E2
:101AC000184603F059FCFB68DB79FF2B02D0F8685D
:101AD00003F0F2F9FB6803225A710E4B01221A70CF
:101AE000FB681B791846FFF7B7FB0B4B1A68FB68BE
:101AF0005A62094AFB681360FEF768FB0023184628
:101B00001037BD4680BD00BF680500201D050020C0
:101B1000240B00201E0500205409002080B582B04F
:101B200000AF124B7B60124B3B6007E03B681A1D15
:101B30003A607A68111D796012681A603B680D4A34
:101B40009342F3D30C480D494FF000028842B8BFCE
:101B500040F8042BFADBDFF82800016841F470013B
:101B6000016000F0A3F80837BD4680BD0C63000893
:101B7000000000204404002048040020FC890020CC
:101B800088ED00E080B400AFFEE700BF80B582B012
:101B900000AF394B1B78012B04D102F0BDFA364B54
:101BA00000221A70354B1B78012B04D1FEF7AEFDD5
:101BB000324B00221A704CE003F0A2F8304B5B78F5
:101BC0002F4ADB0013443A46043393E8030082E8CB
:101BD00003002B4B5B785A1C2A4B83FB02135910D2
:101BE000D317C91A0B469B000B44D11ACAB2244B17
:101BF0005A70234B1B78013BDAB2214B1A7003F069
:101C000077F83B78013B032B22D801A252F823F04E
:101C1000211C00082B1C0008391C0008431C00086C
:101C20007B78184603F05EFC13E07A787B681046F8
:101C3000194600F0A3F80CE07B78184603F0BCFAD4
:101C400007E07A787B681046194602F0FBFF00E057
:101C500000BF0B4B1B78002BAED103F051F8084BA3
:101C60001B78002B02D1084B00221A7003F040F8B9
:101C70000837BD4680BD00BFB1090020B209002071
:101C80008409002067666666B009002080B500AF51
:101C900002F090F880BD00BF80B500AF02F0A4F85C
:101CA00003F06EFCFEF7F6FE80BD00BF80B500AF0E
:101CB00002F06EFDFEF7B0FAFFF7E8FFFFF7ECFF6A
:101CC000FEF7E8FAFEE700BF80B483B000AF7860AB
:101CD0000B46FB70FB78002B06D00949084B1A6BAA
:101CE0007B6813430B6306E00549054B1A6B7B6861
:101CF000DB4313400B630C37BD465DF8047B704734
:101D00000038024080B483B000AF78600B46FB70AF
:101D1000FB78002B06D00949084B9A6B7B6813436C
:101D20008B6306E00549054B9A6B7B68DB431340E8
:101D30008B630C37BD465DF8047B7047003802406A
:101D400080B483B000AF78600B46FB70FB78002B4B
:101D500006D00949084B1A6C7B6813430B6406E0F4
:101D60000549054B1A6C7B68DB4313400B640C3749
:101D7000BD465DF8047B70470038024080B584B0F2
:101D800000AF03463960FB71FB79132B01D90123A6
:101D900026E0FB791B01144A1344FB60FB685B7966
:101DA00003F00F03DBB2022B01D0012318E0FB6824
:101DB000DB88002B13D10D4B1B78DBB20133DAB279
:101DC0000A4B1A70FB683A681A60FB680122DA80D5
:101DD000F86802F0F1FAFEF7F9F9002300E00723B2
:101DE00018461037BD4680BDB80900201D050020EB
:101DF00080B582B000AF58200121FFF765FF0120B8
:101E00000121FFF77FFF484800210C2202F078FCF7
:101E1000454801210C2202F073FC434804210C22A6
:101E200002F06EFC404805210C2202F069FC3E489D
:101E300008210C2202F064FC3B4809210C2202F02C
:101E40005FFC39480A210C2202F05AFC36480E2168
:101E50000C2202F055FC34480F210C2202F050FCF9
:101E60004CF233733B6002233B7102237B710023EE
:101E7000BB710023FB713B462B48194602F06EFBF9
:101E80002A4802210C2202F03BFC284807210C22A0
:101E900002F036FC254808210C2202F031FC2348D0
:101EA00009210C2202F02CFC20480A210C2202F00D
:101EB00027FC1E480B210C2202F022FC1B480C219F
:101EC0000C2202F01DFC19480D210C2202F018FC16
:101ED00016480E210C2202F013FC14480F210C228C
:101EE00002F00EFC4FF684733B603B460F481946E8
:101EF00002F034FB0E4805210C2202F001FC0C48D4
:101F00000C210C2202F0FCFB09480D210C2202F0EE
:101F1000F7FB43F220033B603B460548194602F0BD
:101F20001DFB0837BD4680BD000C0240001002407A
:101F30000018024080B596B000AF0623FB61002375
:101F40003B6200237B621023BB620023FB62002301
:101F50007B630023BB630023FB634FF480533B642C
:101F600000237B6400233B630023BB640023FB64EA
:101F70003B463B650F233B6000237B600F23BB6028
:101F80000023FB6000233B6100237B610023BB61D6
:101F90003B467B6507F11C03184601F031FE062025
:101FA000012101F0C7FE5837BD4680BD80B582B023
:101FB00000AF074B7B60FFF71BFF00BF7B685A1E1B
:101FC0007A60002BFAD1FFF7B5FF0837BD4680BD18
:101FD000FFFF1F0080B485B000AF0346FB800023E5
:101FE000FB810DE00023BB8102E0BB890133BB8193
:101FF000BB8940F274429342F7D9FB890133FB81DC
:10200000FA89FB889A42EDD31437BD465DF8047B0C
:10201000704700BF80B500AFFFF7C8FFED4B40F23F
:1020200023121A80002001F0DBFD03461A46E94B1B
:102030001A80E84B1B8849F22532934206D0E54BC3
:102040001B8849F22832934240F00781E24B01227B
:102050001A70E720102101F0AFFD0020012101F0EE
:10206000ABFD01204FF4807101F0A6FD02204FF47A
:10207000E06101F0A1FD032041F2300101F09CFD7F
:102080000420002101F098FD082040F2072101F012
:1020900093FD0920002101F08FFD0A20002101F0AD
:1020A0008BFD0C20012101F087FD0D20002101F0A6
:1020B00083FD0F20002101F07FFD1020002101F0A1
:1020C0007BFD1120072101F077FD1220002101F096
:1020D00073FD1320002101F06FFD3220FFF77AFF1E
:1020E000102041F2905101F067FD112040F22721AC
:1020F00001F062FD3220FFF76DFF12209C2101F0FC
:102100005BFD3220FFF766FF13204FF4C85101F04A
:1021100053FD2920232101F04FFD2B200E2101F03A
:102120004BFD3220FFF756FF2020002101F044FD37
:102130002120002101F040FD3220FFF74BFF30202D
:10214000072101F039FD312040F2077101F034FD23
:102150003220062101F030FD352040F2047101F0FB
:102160002BFD362041F6047101F026FD37200421B5
:1021700001F022FD3820002101F01EFD392040F23F
:10218000067101F019FD3C2040F2017101F014FDCF
:102190003D200F2101F010FD3220FFF71BFF5020E2
:1021A000002101F009FD5120EF2101F005FD522031
:1021B000002101F001FD532040F23F1101F0FCFC31
:1021C00060204FF4274101F0F7FC6120012101F06C
:1021D000F3FC6A20002101F0EFFC8020002101F0D7
:1021E000EBFC8120002101F0E7FC8220002101F0BE
:1021F000E3FC8320002101F0DFFC8420002101F0BA
:10220000DBFC8520002101F0D7FC9020102101F09B
:10221000D3FC9220002101F0CFFC9320032101F098
:10222000CBFC95204FF4887101F0C6FC972000216B
:1022300001F0C2FC9820002101F0BEFC072040F212
:10224000331101F0B9FC2020002101F0B5FC212060
:10225000002101F0B1FC01F094BA5E4B1B8849F2F9
:102260002032934205D05B4B1B88B3F5134F40F0EF
:10227000B580594B00221A700020002101F09CFC0F
:1022800001204FF4807101F097FC02204FF4E061CF
:1022900001F092FC032041F2180101F08DFC0420B2
:1022A000002101F089FC082040F2022101F084FCA9
:1022B0000920002101F080FC0A20002101F07CFCB3
:1022C0000C20012101F078FC0D20002101F074FCAC
:1022D0000F20002101F070FC6420FFF77BFE072037
:1022E00040F2011101F068FC6420FFF773FE10203A
:1022F0004FF4865101F060FC1120072101F05CFCD5
:1023000012204FF4887101F057FC13204FF4306114
:1023100001F052FC2920002101F04EFC2B2044F258
:10232000100101F049FC5020002101F045FC512032
:10233000EF2101F041FC5220002101F03DFC53202F
:1023400040F23F1101F038FC60204FF41C5101F0C5
:1023500033FC6120012101F02FFC6A20002101F0F3
:102360002BFC8020002101F027FC8120002101F0BE
:1023700023FC8220002101F01FFC8320002101F0BA
:102380001BFC8420002101F017FC8520002101F0B6
:1023900013FC9020102101F00FFC9220002101F08D
:1023A0000BFC9320012101F007FC95204FF488716C
:1023B00001F002FC9720002101F0FEFB9820002193
:1023C00001F0FAFB072040F2731101F0F5FB01F078
:1023D000D8B900BFE4610020B3090020C74B1B88B7
:1023E00049F23132934240F0F380C54B03221A7018
:1023F000E72041F2140101F0DFFB01204FF480716E
:1024000001F0DAFB02204FF4007101F0D5FB03204C
:1024100041F2300101F0D0FB082040F2022101F02E
:10242000CBFB0920002101F0C7FB0A20002101F0AD
:10243000C3FB0C20002101F0BFFB0D20002101F0A7
:10244000BBFB0F20002101F0B7FB1020002101F0A1
:10245000B3FB1120072101F0AFFB1220002101F096
:10246000ABFB1320002101F0A7FBC820FFF7B2FD52
:10247000102041F2906101F09FFB112040F22721D2
:1024800001F09AFB3220FFF7A5FD12200C2101F08C
:1024900093FB3220FFF79EFD13204FF4006101F003
:1024A0008BFB2920112101F087FB2B200B2101F050
:1024B00083FB3220FFF78EFD2020002101F07CFB02
:1024C0002120002101F078FB3020002101F074FB75
:1024D00031204FF4837101F06FFB3220002101F0B5
:1024E0006BFB35204FF4017101F066FB362041F2A1
:1024F0000A6101F061FB372040F2077101F05CFBDB
:1025000038204FF4837101F057FB392040F20771F6
:1025100001F052FB3C2040F2024101F04DFB3D2016
:1025200040F60F4101F048FB5020002101F044FB30
:102530005120EF2101F040FB5220002101F03CFB33
:10254000532040F23F1101F037FB60204FF41C5143
:1025500001F032FB6120012101F02EFB6A200021F5
:1025600001F02AFB8020002101F026FB81200021C0
:1025700001F022FB8220002101F01EFB83200021BC
:1025800001F01AFB8420002101F016FB85200021B8
:1025900001F012FB9020102101F00EFB92204FF46D
:1025A000C06101F009FB0720212101F005FB322069
:1025B000FFF710FD0720612101F0FEFA3220FFF73E
:1025C00009FD072040F2331101F0F6FA01F0D9B805
:1025D0004A4B1B8849F61912934240F09380484BAE
:1025E0000D221A702820062101F0E6FA00200121B0
:1025F00001F0E2FA1020002101F0DEFA012047F29A
:10260000EF2101F0D9FA02204FF4C06101F0D4FAB1
:10261000032046F6382101F0CFFA112046F6740166
:1026200001F0CAFA0F20002101F0C6FA0B2045F292
:10263000083101F0C1FA0C20032101F0BDFA0D2090
:102640000A2101F0B9FA0E204FF4385101F0B4FA22
:102650001E20BE2101F0B0FA25204FF4004101F008
:10266000ABFA26204FF4F04101F0A6FA272078219A
:1026700001F0A2FA4E20002101F09EFA4F20002125
:1026800001F09AFA122040F6D90101F095FA3020B3
:10269000002101F091FA31204FF4827101F08CFA9F
:1026A00032204FF4807101F087FA332040F2053177
:1026B00001F082FA342040F2055101F07DFA352014
:1026C00040F2053101F078FA362040F2077101F04E
:1026D00073FA37204FF4407101F06EFA3A204FF44C
:1026E000905101F069FA3B204FF4006101F064FA67
:1026F0000720332101F060FA01F043B8E4610020C3
:10270000B3090020904B1B8841F20552934206D03A
:102710008D4B1B8840F20552934240F019818B4B40
:1027200009221A700720002101F046FA3220FFF733
:1027300051FC12204FF48E7101F03EFAA4200121C9
:1027400001F03AFA08200F2101F036FA0A20082198
:1027500001F032FA0D20082101F02EFA302040F26B
:10276000077101F029FA3120072101F025FA322002
:1027700040F2036101F020FA33204FF4E06101F0F0
:102780001BFA342040F2022101F016FA3520022112
:1027900001F012FA362041F60F7101F00DFA3720E0
:1027A00040F2077101F008FA3820002101F004FA24
:1027B0003920002101F000FA3A2040F2077101F0BF
:1027C000FBF93B20002101F0F7F93C20072101F043
:1027D000F3F93D20002101F0EFF93220FFF7FAFB79
:1027E0000720012101F0E8F91720012101F0E4F9A7
:1027F0003220FFF7EFFB10204FF4BD5101F0DCF960
:10280000112040F2172101F0D7F912204FF48F71F7
:1028100001F0D2F913204FF4706101F0CDF92A20B4
:10282000002101F0C9F929200A2101F0C5F912207F
:102830004FF49F7101F0C0F95020002101F0BCF964
:102840005120EF2101F0B8F95220002101F0B4F934
:10285000532040F23F1101F0AFF960204FF41C51BA
:1028600001F0AAF96120012101F0A6F96A200021F6
:1028700001F0A2F98020002101F09EF981200021C1
:1028800001F09AF98220002101F096F983200021BD
:1028900001F092F98420002101F08EF985200021B9
:1028A00001F08AF99020132101F086F992204FF46B
:1028B000407101F081F99320052101F07DF9952007
:1028C000002101F079F99720002101F075F9982095
:1028D000002101F071F901204FF4807101F06CF9D1
:1028E00002204FF4E06101F067F9032041F230016A
:1028F00001F062F90420002101F05EF90C200021B2
:1029000001F05AF90F20002101F056F92020002192
:1029100001F052F92120002101F04EF90720212178
:1029200001F04AF9C820FFF755FB0720612101F0AB
:1029300043F9C820FFF74EFB072040F2731101F066
:102940003BF900F01EBF00BFE4610020B309002086
:102950009F4B1B8848F68912934240F03D819D4B66
:1029600005221A700020012101F026F93220FFF71C
:1029700031FB03204AF6A40101F01EF93220FFF7D3
:1029800029FB0C20002101F017F93220FFF722FB70
:102990000D2040F60C0101F00FF93220FFF71AFB71
:1029A0000E204FF42C5101F007F93220FFF712FBF3
:1029B0001E20B02101F000F93220FFF70BFB0120AF
:1029C00042F63F3101F0F8F83220FFF703FB022016
:1029D0004FF4C06101F0F0F83220FFF7FBFA10204D
:1029E000002101F0E9F83220FFF7F4FA112046F255
:1029F000700101F0E1F83220FFF7ECFA0520002128
:102A000001F0DAF83220FFF7E5FA0620002101F0A4
:102A1000D3F83220FFF7DEFA16204EF61C7101F0D3
:102A2000CBF83220FFF7D6FA1720032101F0C4F8C3
:102A30003220FFF7CFFA072040F2331101F0BCF843
:102A40003220FFF7C7FA0B20002101F0B5F8322041
:102A5000FFF7C0FA0F20002101F0AEF83220FFF797
:102A6000B9FA4120002101F0A7F83220FFF7B2FAAD
:102A70004220002101F0A0F83220FFF7ABFA4820F5
:102A8000002101F099F83220FFF7A4FA492040F222
:102A90003F1101F091F83220FFF79CFA4A20002103
:102AA00001F08AF83220FFF795FA4B20002101F05F
:102AB00083F83220FFF78EFA44204FF46F4101F083
:102AC0007BF83220FFF786FA4520002101F074F8E8
:102AD0003220FFF77FFA462040F23F1101F06CF8F8
:102AE0003220FFF777FA302040F2077101F064F8E6
:102AF0003220FFF76FFA31204FF4017101F05CF8DA
:102B00003220FFF767FA32204FF4017101F054F8D8
:102B10003220FFF75FFA332040F2025101F04CF807
:102B20003220FFF757FA342040F2075101F044F801
:102B30003220FFF74FFA35204FF4017101F03CF8D5
:102B40003220FFF747FA36204FF4017101F034F8D4
:102B50003220FFF73FFA372040F2025101F02CF803
:102B60003220FFF737FA3A2040F2023101F024F820
:102B70003220FFF72FFA3B2040F2023101F01CF81F
:102B80003220FFF727FA2320002101F015F8322028
:102B9000FFF720FA2420002101F00EF83220FFF781
:102BA00019FA25204FF4004101F006F83220FFF712
:102BB00011FA4F20002100F0FFFF4E20002100F00D
:102BC000FBFF112046F2680100F0F6FF00F0D9BDCE
:102BD000E4610020B3090020C14B1B8848F699121C
:102BE000934240F0CB80BF4B04221A70282006216C
:102BF00000F0E2FF0020012100F0DEFF03204AF692
:102C0000A46100F0D9FF0C20042100F0D5FF0D20B5
:102C10000C2100F0D1FF0E204FF4205100F0CCFF2A
:102C20001E20B52100F0C8FF012043F63F3100F01F
:102C3000C3FF02204FF4C06100F0BEFF102000214E
:102C400000F0BAFF112046F6300100F0B5FF052074
:102C5000002100F0B1FF0620002100F0ADFF16209A
:102C60004EF61C7100F0A8FF0720332100F0A4FFEE
:102C70000B20002100F0A0FF0F20002100F09CFF9E
:102C80004120002100F098FF4220002100F094FF35
:102C90004820002100F090FF492040F23F1100F051
:102CA0008BFF4A20002100F087FF4B20002100F01D
:102CB00083FF44204FF46F4100F07EFF4520002148
:102CC00000F07AFF462040F23F1100F075FF4E20E1
:102CD000002100F071FF4F20002100F06DFF302037
:102CE00040F2077100F068FF312040F2022100F04D
:102CF00063FF32204FF4017100F05EFF332040F299
:102D0000025100F059FF342040F2075100F054FF07
:102D100035204FF4017100F04FFF36204FF4017160
:102D200000F04AFF372040F2025100F045FF3A2000
:102D300040F2023100F040FF3B2040F2023100F04F
:102D40003BFF2320002100F037FF2420002100F06A
:102D500033FF25204FF4004100F02EFF26204FF4D2
:102D6000E04100F029FF20204BF2EB0100F024FFAE
:102D700027207C2100F020FF00F003BD584B1B886A
:102D800045F20842934240F0AF80564B08221A7039
:102D900001204FF4807100F00FFF02204FF4E0613A
:102DA00000F00AFF032041F2300100F005FF04208B
:102DB000002100F001FF082040F2072100F0FCFE96
:102DC0000920002100F0F8FE0A20002100F0F4FEA6
:102DD0000C20002100F0F0FE0D20002100F0ECFEA0
:102DE0000F20002100F0E8FE3220FFF7F3F8072063
:102DF00040F2011100F0E0FE3220FFF7EBF8102066
:102E000041F2B06100F0D8FE1120012100F0D4FEA3
:102E10001720012100F0D0FE12204FF49C7100F029
:102E2000CBFE13204FF4006100F0C6FE29200921DB
:102E300000F0C2FE2A20092100F0BEFEA4200021DD
:102E400000F0BAFE5020002100F0B6FE5120EF2124
:102E500000F0B2FE5220002100F0AEFE532040F2FE
:102E60003F1100F0A9FE60204FF41C5100F0A4FEB9
:102E70006120032100F0A0FE6A20002100F09CFEEA
:102E80008020002100F098FE8120002100F094FEB7
:102E90008220002100F090FE8320002100F08CFEB3
:102EA0008420002100F088FE8520002100F084FEAF
:102EB0009020132100F080FE9220002100F07CFE83
:102EC0009320032100F078FE95204FF4887100F0E4
:102ED00073FE072040F2731100F06EFE00F051BC4B
:102EE000E4610020B3090020B64B1B8844F2315244
:102EF000934240F0AD80B44B07221A7000200121AC
:102F000000F05AFE10204FF4C56100F055FE12206B
:102F1000062100F051FE132040F6322100F04CFE55
:102F20001120402100F048FE1520502100F044FE01
:102F30001220162100F040FE3220FFF74BF810203F
:102F400045F2606100F038FE3220FFF743F81320AD
:102F500042F64E2100F030FE01204FF4807100F067
:102F60002BFE02204FF4407100F026FE032041F2B8
:102F7000300100F021FE082040F2022100F01CFE8A
:102F80000A20002100F018FE3020002100F014FE7D
:102F9000312040F2024100F00FFE32204FF48371E5
:102FA00000F00AFE33204FF4E06100F005FE34200B
:102FB0004FF4827100F000FE352040F2013100F044
:102FC000FBFD362040F2077100F0F6FD372040F29D
:102FD000053100F0F1FD38204FF4027100F0ECFDF6
:102FE000392040F60B7100F0E7FD3220FEF7F2FFCA
:102FF0004120022100F0E0FD60204FF41C5100F060
:10300000DBFD6120012100F0D7FD902040F2191175
:1030100000F0D2FD92204FF4857100F0CDFD932099
:10302000042100F0C9FDA0204FF4807100F0C4FD20
:103030003220FEF7CFFF072040F2331100F0BCFD35
:103040003220FEF7C7FFA020002100F0B5FD98E375
:103050005C4B1B8844F23552934240F0B7805A4B88
:103060000C221A701520302100F0A6FD9A201021A4
:1030700000F0A2FD1120202100F09EFD102043F25F
:10308000284100F099FD1220022100F095FD132047
:1030900041F2380100F090FD2820FEF79BFF12203E
:1030A000122100F089FD2820FEF794FF102043F242
:1030B000204100F081FD132043F2450100F07CFD2A
:1030C0004620FEF787FF3020002100F075FD3120FB
:1030D00040F2024100F070FD322040F2073100F072
:1030E0006BFD33204FF4417100F066FD3420042164
:1030F00000F062FD352040F2014100F05DFD362018
:1031000040F2077100F058FD372040F2053100F021
:1031100053FD38204FF4C26100F04EFD39204FF4CA
:10312000C26100F049FD01204FF4807100F044FDC0
:1031300002204FF4407100F03FFD032041F23001C6
:1031400000F03AFD082040F6080100F035FD0A20A5
:10315000082100F031FD60204FF41C5100F02CFDDF
:103160006120012100F028FD90204FF49F7100F0B4
:1031700023FD92204FF4807100F01EFD93204FF448
:10318000807100F019FDA0204FF4405100F014FDB3
:10319000A320102100F010FD0720012100F00CFDFC
:1031A0000720212100F008FD0720232100F004FD65
:1031B0000720332100F000FD072040F2331100F01A
:1031C000FBFCDEE2E4610020B3090020D44B1B8845
:1031D000472B40F0E380D34B0A221A70EA200021EB
:1031E00000F0EAFCEB20202100F0E6FCEC200C21B2
:1031F00000F0E2FCED20C42100F0DEFCE8204021DC
:1032000000F0DAFCE920382100F0D6FCF1200121A1
:1032100000F0D2FCF220102100F0CEFC2720A321E8
:1032200000F0CAFC4020012100F0C6FC4120002132
:1032300000F0C2FC4220002100F0BEFC432010211F
:1032400000F0BAFC44200E2100F0B6FC45202421F9
:1032500000F0B2FC4620042100F0AEFC47205021D3
:1032600000F0AAFC4820022100F0A6FC492013210E
:1032700000F0A2FC4A20192100F09EFC4B201921ED
:1032800000F09AFC4C20162100F096FC50201B21E7
:1032900000F092FC5120312100F08EFC52202F21B1
:1032A00000F08AFC53203F2100F086FC54203F218F
:1032B00000F082FC55203E2100F07EFC56202F219C
:1032C00000F07AFC57207B2100F076FC5820092181
:1032D00000F072FC5920062100F06EFC5A200621F5
:1032E00000F06AFC5B200C2100F066FC5C201D21D4
:1032F00000F062FC5D20CC2100F05EFC1B20182158
:1033000000F05AFC1A20012100F056FC242015215F
:1033100000F052FC2520502100F04EFC23208B2190
:1033200000F04AFC1820362100F046FC192001214B
:1033300000F042FC0120002100F03EFC1F2088210B
:1033400000F03AFC3220FEF745FE1F20802100F0FD
:1033500033FC3220FEF73EFE1F20902100F02CFCB3
:103360003220FEF737FE1F20D02100F025FC32204E
:10337000FEF730FE1720052100F01EFC362000214C
:1033800000F01AFC2820382100F016FC3220FEF74D
:1033900021FE28203C2100F00FFCF2E1604B1B884D
:1033A00047F28372934240F0BF805E4B06221A7050
:1033B000FF20012100F000FCF320082100F0FCFBBD
:1033C00001204FF4807100F0F7FB02204FF4E06120
:1033D00000F0F2FB032041F2300100F0EDFB082089
:1033E00040F2023100F0E8FB082040F2072100F033
:1033F000E3FB0920002100F0DFFB0A20002100F0A0
:10340000DBFB1020002100F0D7FB1120052100F08C
:10341000D3FB1220002100F0CFFB1320002100F08D
:10342000CBFB3220FEF7D6FD102041F2B02100F098
:10343000C3FB3220FEF7CEFD1120072100F0BCFBBC
:103440003220FEF7C7FD12208B2100F0B5FB3220A1
:10345000FEF7C0FD13204FF4B85100F0ADFB322051
:10346000FEF7B8FD2920222100F0A6FB3020002124
:1034700000F0A2FB312040F2077100F09DFB3220EA
:1034800040F2055100F098FB352040F2071100F0A2
:1034900093FB3620082100F08FFB3720002100F03D
:1034A0008BFB382040F2022100F086FB39204FF4DC
:1034B000837100F081FB3C2040F2022100F07CFB94
:1034C0003D204FF4816100F077FB3220FEF782FD52
:1034D0005020002100F070FB5120EF2100F06CFB28
:1034E0005220002100F068FB532040F23F1100F011
:1034F00063FB60204FF4274100F05EFB6120012157
:1035000000F05AFB9020332100F056FB2B200B21BA
:1035100000F052FB072040F2331100F04DFB30E188
:10352000E4610020B3090020984B40F223121A8076
:10353000672000F055FB03461A46944B1A80934BC4
:103540001B88472B40F01D81914B0B221A704220A3
:10355000082100F031FB4620B42100F02DFB47206C
:10356000432100F029FB4820132100F025FB4920CE
:10357000472100F021FB4A20142100F01DFB4B20C5
:10358000362100F019FB4C20032100F015FB4D20E3
:10359000462100F011FB4E20052100F00DFB4F20CD
:1035A000102100F009FB5020082100F005FB5120FC
:1035B0000A2100F001FB0220002100F0FDFA0320A7
:1035C000002100F0F9FA0420002100F0F5FA0520AE
:1035D000EF2100F0F1FA0620002100F0EDFA0720BB
:1035E000002100F0E9FA0820012100F0E5FA0920A5
:1035F0003F2100F0E1FA0A20FEF7ECFC0120062151
:1036000000F0DAFA1620C82100F0D6FA232095211E
:1036100000F0D2FA2420952100F0CEFA2520FF21D7
:1036200000F0CAFA2720022100F0C6FA2820022161
:1036300000F0C2FA2920022100F0BEFA2A2002215D
:1036400000F0BAFA2C20022100F0B6FA2D20022157
:1036500000F0B2FA3A20012100F0AEFA3B2001213D
:1036600000F0AAFA3C20F02100F0A6FA3D2000214B
:1036700000F0A2FA1420FEF7ADFC3520382100F04E
:103680009BFA3620782100F097FA3E20382100F08E
:1036900093FA40200F2100F08FFA4120F02100F032
:1036A0008BFA3820002100F087FA1920492100F018
:1036B00083FA93200A2100F07FFA0A20FEF78AFCA1
:1036C0002020202100F078FA1D20032100F074FA58
:1036D0001E20002100F070FA1F20092100F06CFA72
:1036E0004420532100F068FA4520102100F064FACC
:1036F0000A20FEF76FFC1C20042100F05DFA142064
:10370000FEF768FC4320802100F056FA0520FEF702
:1037100061FC1B200A2100F04FFA2820FEF75AFC1A
:103720001B20122100F048FA2820FEF753FC9020BD
:103730007F2100F041FA2620042100F03DFA2820E4
:10374000FEF748FC2620242100F036FA26202C2102
:1037500000F032FA2820FEF73DFC7020082100F02E
:103760002BFA26203C2100F027FA5720022100F0F6
:1037700023FA5520002100F01FFA5720002100F005
:103780001BFA3220FEF726FC80BD00BFE46100205A
:10379000B309002080B584B000AF0346FB8000234E
:1037A000FB60204B1B780A2B03D01E4B1B780B2B86
:1037B00020D10220002100F0FFF90320002100F0B9
:1037C000FBF90420002100F0F7F90520EF2100F0BB
:1037D000F3F90620002100F0EFF90720002100F0A6
:1037E000EBF90820012100F0E7F909203F2100F062
:1037F000E3F903E00020002100F016F8222000F099
:10380000B1F90023FB6006E0FB88184600F0B8F928
:10381000FB680133FB60FB68B3F5963FF4D31037C8
:10382000BD4680BDB309002080B584B000AF03461B
:103830000A46FB801346BB80FB88FB81BB88FB806C
:10384000FB89C3F59F730133BB80284B1B78043B76
:10385000092B17D801A252F823F000BF9B380008AB
:103860009B3800088538000885380008853800082E
:1038700085380008B1380008B138000885380008DC
:10388000E3380008FB882020194600F095F9BB8832
:103890002120194600F090F924E0FB884E201946BB
:1038A00000F08AF9BB884F20194600F085F919E02D
:1038B000FB881B0A9BB20220194600F07DF9FB88A9
:1038C0000320194600F078F9BB881B0A9BB206203A
:1038D000194600F071F9BB880720194600F06CF911
:1038E00000E000BF1037BD4680BD00BFB309002017
:1038F00080B582B000AF0346FB800B46BB80134609
:103900007B80FB88B3F5A07F02D2BB88EF2B00D968
:103910000AE0FA88BB8810461946FFF785FF7B88C6
:103920002220194600F048F90837BD4680BD00BF87
:1039300090B58BB000AF0446084611461A462346A0
:10394000FB800346BB800B467B8013463B800023F5
:103950003B820023FB810023FB840023BB840023E4
:103960007B8400233B840023FB830023BB83002351
:103970007B8300233B830023FB820023BB82002345
:103980007B827A88FB88D31A002BB8BF5B423B82CC
:103990003A88BB88D31A002BB8BF5B42FB81FB88F7
:1039A000FB84BB88BB847A88FB889A4204D30123BA
:1039B0007B8401233B8405E04FF6FF737B844FF645
:1039C000FF733B843A88BB889A4204D30123FB836C
:1039D0000123BB8305E04FF6FF73FB834FF6FF73B4
:1039E000BB83B7F91020B7F90E309A4210DB0023E1
:1039F0007B840023BB833B8A7B83B7F91030DA0FCB
:103A000013445B103B83FB89FB823B8ABB820FE044
:103A100000233B840023FB83FB897B83B7F90E30B3
:103A2000DA0F13445B103B833B8AFB82FB89BB822A
:103A300000237B8230E0F98CBA8C3B8F084611461C
:103A40001A46FFF755FF3A8BFB8A13449BB23B8320
:103A5000B7F91820B7F91A309A420EDB3A8B7B8BF4
:103A6000D31A9BB23B83FA8C7B8C13449BB2FB84AE
:103A7000BA8CFB8B13449BB2BB84FA8C3B8C1344F3
:103A80009BB2FB84BA8CBB8B13449BB2BB847B8AF6
:103A90009BB201339BB27B82B7F91220B7F9143085
:103AA0009A42C8DD2C37BD4690BD00BF90B585B0A9
:103AB00000AF0446084611461A462346FB800346DB
:103AC000BB800B467B8013463B807B885B429BB26E
:103AD000FB813EE07B887A8802FB03F2B7F90E3067
:103AE000B7F90E1001FB03F3D31A184602F0DCF805
:103AF00002460B461046194601F03CFE02460B46B4
:103B00001046194602F0D0FB0346BB60BB689BB26F
:103B10005B429BB2BB8112E0FA89FB88134499B2E5
:103B2000BA89BB8813449AB23B88084611461A46A4
:103B3000FFF7DEFEBB899BB201339BB2BB81B7F9B5
:103B40000C20BB689A42E7DBFB899BB201339BB236
:103B5000FB81B7F90E207B889A42BBDB1437BD4648
:103B600090BD00BF80B483B000AF0346FB804FF030
:103B7000DE42FB8813800C37BD465DF8047B70473E
:103B800080B483B000AF0346FB80044AFB881380F7
:103B90000C37BD465DF8047B704700BF0000016F25
:103BA00080B400AF034B1B889BB21846BD465DF83E
:103BB000047B70470000016F80B582B000AF034600
:103BC0000A46FB801346BB80FB881846FFF7CAFFF6
:103BD000BB881846FFF7D4FF0837BD4680BD00BF3D
:103BE00080B582B000AF0346FB80FB881846FFF724
:103BF000B9FFFFF7D5FF034618460837BD4680BD1D
:103C000080B483B000AF78604FF020407B681B68C1
:103C10007A6851687A68926811437A68D268114369
:103C20007A68126911437A68526911437A68926915
:103C300011437A68D26911437A68126A11437A682B
:103C4000526A11437A68926A11437A68D26A1143C0
:103C50007A68126B0A4340F823207B689B68082B24
:103C60000DD14FF020417B681B684FF020407A68EF
:103C7000126850F8222042F0400241F823204FF011
:103C800020407B681B6801337A68526B11687A6840
:103C9000526B5268120111437A68526B9268120299
:103CA00011437A68526BD268120411437A68526BDE
:103CB0001269120511437A68526B52691206114358
:103CC0007A68526B92690A4340F823207B68DB6A6A
:103CD000B3F5804F20D116487B681B687A68926BD9
:103CE00011687A68926B5268120111437A68926B7C
:103CF0009268120211437A68926B1269120511439D
:103D00007A68926B5269120611437A68926B9269D3
:103D10000A4340F8232006E0054A7B681B686FF0E1
:103D2000704142F823100C37BD465DF8047B7047A4
:103D3000040100A080B483B000AF78600B46FB7034
:103D4000FB78002B0CD04FF020414FF020427B68D5
:103D500052F8233043F001027B6841F823200BE046
:103D60004FF020414FF020427B6852F82320054B52
:103D700013407A6841F822300C37BD465DF8047B69
:103D8000704700BFFEFF0F0080B582B000AF034652
:103D90003960FB71FB79013B054AD35C18463968F1
:103DA00001F04EF9FB7918460837BD4680BD00BFCB
:103DB000EC61002090B583B000AF0023FB710BE0F5
:103DC000FC790120002101F0EFF803461A46054B6B
:103DD0001A55FB790133FB71FB79042BF0D90C37B1
:103DE000BD4690BDEC61002080B582B000AFFCF70D
:103DF000E1FC012001213222054BFCF7B9FB03460F
:103E0000FB71FB791846FCF749FC0837BD4680BDBD
:103E1000153E000880B582B000AFFCF7E3FC034616
:103E2000FB71FB79002B0BD0084B1B78FA799A4277
:103E300006D0FB79013B064AD35C184601F0BCF979
:103E4000024AFB7913700837BD4680BDE861002047
:103E5000EC61002080B485B000AF786039603B68C9
:103E6000002B00D164E0354B1B68002B06D17B682A
:103E70003A681A62314A7B68136053E02F4B1B6823
:103E8000BB603B68FB604AE0FA68BB681B6AD31AF8
:103E9000FB60FB68002B2EDABB689B6A002B0ED000
:103EA000BB689B6A7A685A62BB689A6A7B689A6246
:103EB0007B68BA685A62BB687A689A620AE01F4BEC
:103EC0001A687B685A621D4B1B687A689A621B4AA3
:103ED0007B6813607B685B6A1A6AFB681A447B68BC
:103EE0001A627B685B6A7A68526A116A7A68126A37
:103EF0008A1A1A6216E0FB68002B0DDBBB685B6A4E
:103F0000002B09D17B68BA689A62BB687A685A62EA
:103F1000FA687B681A6205E0BB685B6ABB60BB68D5
:103F2000002BB1D17B6802225A71054B01221A7015
:103F30001437BD465DF8047B704700BFB40900200C
:103F40001E05002080B483B000AF78607B689B6A58
:103F5000002B07D17B685B6A002B03D1254B002225
:103F60001A603DE07B689B6A002B14D17B685B6A1A
:103F7000204A13607B685B6A7A68526A116A7A68C1
:103F8000126A0A441A627B685B6A00229A627B6842
:103F900000225A6224E07B685B6A002B07D17B68B1
:103FA0009B6A00225A627B6800229A6218E07B6852
:103FB0009B6A7A68526A5A627B685B6A7A68926A1C
:103FC0009A627B685B6A7A68526A116A7A68126AD6
:103FD0000A441A627B6800225A627B6800229A6255
:103FE0007B684FF0FF321A620C37BD465DF8047BE8
:103FF000704700BFB409002080B582B000AF786080
:10400000164B1B78DBB2002B01D0032321E07B6829
:10401000B3F1FF3F01D102231BE07B68002B01D1EC
:10402000002316E00E4B1B78DBB2002B01D01523CA
:104030000FE00B4B1B78DBB20133DAB2084B1A707E
:10404000084B1B6818467968FFF704FFFCF7BEF8B9
:10405000002318460837BD4680BD00BF1C05002060
:104060001D0500206009002090B585B000AF044612
:10407000084611461A462346FB710346BB710B46A0
:104080007B7113467B80214B1B78DBB2002B01D068
:10409000032336E0BB793B2B06D87B793B2B03D837
:1040A0007B88B3F57A7F01D302232AE0184B1B7873
:1040B000DBB2002B01D0152323E0FB794FF46162C2
:1040C00002FB03F1BA7913461B019B1A9B00CA1825
:1040D0007B7913444FF47A7202FB03F27B884FF42E
:1040E0007A7101FB03F303F5FA730A4981FB0301BB
:1040F0008911DB17CB1A1344FB60F868FFF77CFFCC
:10410000002318461437BD4690BD00BF1C05002093
:104110001D050020D34D621080B582B000AF1A4B50
:104120001B687B6026E07B681B7AFF2B02D07868D7
:1041300000F0C8F97B68DB69002B04D07B68DB6981
:10414000184601F019F97B684FF0FF321A627B685C
:104150005B6A0D4A13607B6800225A627868FDF73B
:10416000CBF8094B1B687B607B68002B02D07B6817
:1041700000229A627B68002B03D07B681B6A002BAD
:10418000D1D00837BD4680BDB409002080B500AF4E
:10419000074B1B78DBB2012B06D9064B01221A70A4
:1041A000054B01221A7001E0FFF7B6FF80BD00BF8A
:1041B0001D050020B0090020B109002080B485B0A1
:1041C00000AF0023FB73184BBB60184B7B6014E0FF
:1041D000BB687A681A60BB68FA7B1A71BA6853794F
:1041E000042161F303035371BB681033BB607B6828
:1041F00010337B60FB7B0133FB73FB7B122BE7D916
:10420000BA685379042161F303035371BB68002238
:104210001A60BB68FA7B1A71054B034A1A6014379F
:10422000BD465DF8047B7047B8090020C80900202E
:10423000F80A002080B584B000AF03463A60FB71F5
:104240000B46BB711A4B1B78DBB20133DAB2184B49
:104250001A70184B1B68002B03D1FBF7B7FF002324
:1042600022E0144B1B68FB60124B1B681B68114A51
:104270001360FBF7ABFFFB7903F00F03D9B2FA68C9
:10428000537961F303035371BB7903F00F03D9B280
:10429000FA68537961F307135371FB683A681A603F
:1042A000FB680022DA60FB6818461037BD4680BD07
:1042B0001D050020F80A002080B584B000AF7860AA
:1042C00039603B4B1B78DBB20133DAB2384B1A70E2
:1042D0007B68DB68FB607B681A793B681A727B68D5
:1042E0005B7923F00F03DBB2102B15D1FB68002B99
:1042F00003D17B683A68DA604EE002E0FB685B69F4
:10430000FB60FB685B69002BF8D1FB683A685A6177
:104310003B68FA689A613FE07B685B7923F00F03A2
:10432000DBB2202B38D1FB68002B03D17B683A68C5
:10433000DA6031E0FB681A793B681B799A4209D947
:104340007B683A68DA603B68FA685A61FB683A68E9
:104350009A6121E0FB685B69BB600BE0BB681A797E
:104360003B681B799A4200D907E0BB68FB60BB68D9
:104370005B69BB60BB68002BF0D1FB683A685A618F
:104380003B68FA689A613B68BA685A61BB68002B5F
:1043900002D0BB683A689A613B6802225A71054BA9
:1043A00001221A70FBF712FF1037BD4680BD00BF17
:1043B0001D0500201E05002080B584B000AF786088
:1043C0007B68DB68FB60FB68002B00D174E0FB6856
:1043D0005A697B68DA607B68DB68002B03D07B68F6
:1043E000DB6800229A61FB6800225A61FB68FF22A9
:1043F0001A72FB681B6AB3F1FF3F02D0F868FFF73F
:10440000A1FD7B685B7903F00F03DBB2022B0DD1BA
:104410007B681A68FB681A617B6800221A607B68F7
:10442000DB88013B9AB27B68DA8039E07B685B7994
:1044300003F00F03DBB2032B21D17B681B68BB6049
:10444000BB681A68BB68DB889B0013441A68FB686A
:104450001A61BB68DB8801339AB2BB68DA80BB683B
:104460009B89013B9AB2BB689A81BB68DA88BB68BA
:104470005B899A4214D1BB680022DA8010E07B6825
:104480005B7903F00F03DBB2012B09D17B68DB887A
:10449000013B9AB27B68DA80FB684FF0FF321A6109
:1044A000074B1B68FA689A4203D1FB6801225A71D4
:1044B00002E0F868FCF720FF1037BD4680BD00BF62
:1044C0006009002080B485B000AF78607B681B7AFB
:1044D0001B01214A1344FB607B685B69002B07D1F9
:1044E0007B689B69002B03D1FB680022DA602BE01C
:1044F0007B689B69002B0BD17B685B6900229A610A
:104500007B685A69FB68DA607B6800225A611BE0AD
:104510007B685B69002B07D17B689B6900225A612D
:104520007B6800229A610FE07B689B697A68526918
:104530005A617B685B697A6892699A617B6800223C
:104540009A617B6800225A617B68FF221A721437D5
:10455000BD465DF8047B7047B809002080B487B081
:1045600000AF7860396000237B6100233B6100234A
:10457000FB6000237B6176E07B69012202FA03F392
:104580003B613B681A683B691340FB60FA683B6912
:104590009A4265D17B681A687B695B0019460323E0
:1045A0008B40DB431A407B681A607B681A683B6863
:1045B0001B7919467B695B0001FA03F31A437B6898
:1045C0001A603B681B79012B03D03B681B79022BD7
:1045D0002ED17B689A687B695B00194603238B4068
:1045E000DB431A407B689A607B689A683B685B791A
:1045F00019467B695B0001FA03F31A437B689A60F2
:104600007B685A687B699BB2194601238B40DB4368
:104610001A407B685A607B685B683A6892791146F9
:104620007A6992B201FA02F292B21A437B685A6036
:104630007B68DA687B699BB25B00032101FA03F3B4
:10464000DB431A407B68DA607B68DA683B68DB79B9
:1046500019467B695B0001FA03F31A437B68DA6051
:104660007B6901337B617B690F2B85D91C37BD4684
:104670005DF8047B704700BF80B485B000AF786000
:104680000B467B800023FB737B681A697B88134091
:10469000002B02D00123FB7301E00023FB73FB7BA3
:1046A00018461437BD465DF8047B704780B483B06C
:1046B00000AF78607B681B699BB218460C37BD461B
:1046C0005DF8047B704700BF80B483B000AF7860B2
:1046D0000B467B807B687A881A830C37BD465DF871
:1046E000047B704780B483B000AF78600B467B805A
:1046F0007B687A885A830C37BD465DF8047B704727
:1047000080B485B000AF78600B467B8013467B7029
:104710000023FB600023BB607B787A8802F00702ED
:1047200092009340FB607B88DB089BB218467B8835
:10473000DB089BB21A467B68083253F822207B883C
:1047400003F007039B0019460F238B40DB4302EA6B
:1047500003017B6800F1080243F822107B88DB0824
:104760009BB21A467B68083253F82220FB68134339
:10477000BB607B88DB089BB21A467B680832B9684D
:1047800043F822101437BD465DF8047B704700BF24
:1047900080B500AF154A154BD3F8883043F4700349
:1047A000C2F88830124A124B1B6843F001031360B1
:1047B0000F4B00229A600E4A0D4B1B6823F0847346
:1047C00023F4803313600A4B0A4A5A60084A084BA4
:1047D0001B6823F480231360054B0022DA6000F08D
:1047E0000BF8024B4FF000629A6080BD00ED00E0D4
:1047F000003802401030002480B400AF234A234B1D
:104800001B6C43F080531364214A214B1B6843F413
:10481000804313601D4A1D4B9B6893601B4A1B4BD2
:104820009B6843F400439360184A184B9B6843F419
:10483000A0539360154B174A5A60144A134B1B68D8
:1048400043F08073136000BF104B1B6803F00073CC
:10485000002BF9D0104B40F205721A600B4A0B4B3B
:104860009B6823F003039360084A084B9B6843F05E
:104870000203936000BF054B9B6803F00C03082BF9
:10488000F9D1BD465DF8047B704700BF0038024097
:104890000070004010540007003C024080B582B018
:1048A00000AF01200121FDF70FFAFF233B60002339
:1048B0003B710023FB713B4603481946FFF74EFE50
:1048C0000837BD4680BD00BF0000024080B582B001
:1048D00000AF40200121FDF7F7F94FF400633B6082
:1048E00000233B710123FB713B460B481946FFF740
:1048F00035FE4FF480433B6001233B7102237B7103
:104900000023BB710023FB713B4603481946FFF7A8
:1049100025FE0837BD4680BD0018024080B584B032
:1049200000AF4FF480700121FDF70AFA2923BB8004
:104930000023FB804FF6FF73BB600023BB81002385
:10494000BB733B1D0548194600F07EFE034801215C
:1049500000F0F0FE1037BD4680BD00BF00200040D3
:1049600080B500AF03484FF40061FFF785FE0346B2
:10497000184680BD0018024080B500AF02484FF4D1
:104980008041FFF7A1FE80BD0018024080B500AF56
:1049900002484FF48041FFF7A5FE80BD0018024099
:1049A00080B584B000AF78600023FB730023BB8127
:1049B0000848FFF77BFE0346BB810648FFF776FEFB
:1049C0000346FB73FB7B9AB27B681A801037BD46A7
:1049D00080BD00BF0000024080B500AF024800F07B
:1049E0009DFE0346184680BD0020004080B584B07F
:1049F00000AF78600B467B8013467B707B68002B92
:104A000002D07B88002B01D1FF2362E0334B1B785F
:104A1000DBB20133DAB2314B1A700023FB7352E080
:104A2000FB7B012202FA03F31A462D4B1B6813404D
:104A3000002B45D1FB7B012202FA03F31A46284BD7
:104A40001B681343264A1360FBF7C0FBFB7B254A18
:104A50001B0113447A681A60FB7B224A1B01134432
:104A6000FA7B1A71FB7B1F4A1B0113440022DA8078
:104A7000FB7B1C4A1B011344083300221A80FB7B7A
:104A8000184A1B01134408337A885A80FB7B154A65
:104A90001B011344083300229A80FB7B1B01114A3F
:104AA00013447A78032011461A46FFF7C3FBB86017
:104AB000BB68002B01D1FF230BE0BB681B7908E02A
:104AC000FB7B0133FB73FB7B012BA9D9FBF77EFB3F
:104AD000FF2318461037BD4680BD00BF1D050020CE
:104AE0001C0B0020FC0A002080B588B000AF0346F4
:104AF000B9607A60FB734F4B1B78DBB2002B04D09C
:104B00007B6803221A7000238FE0FB7B132B04D9F0
:104B10007B6801221A70002387E0FB7B1B01464A59
:104B20001344FB61FB695B7903F00F03DBB2032BDA
:104B300004D07B6801221A70002376E03F4B1B787B
:104B4000DBB2002B04D07B6815221A7000236CE0C6
:104B5000FB691B68BB61394B1B78DBB20133DAB2EE
:104B6000364B1A70BB699B89002B23D0BB691A682E
:104B7000BB69DB889B0013441B687B61BB69DB88D6
:104B800001339AB2BB69DA80BB699B89013B9AB257
:104B9000BB699A81BB69DA88BB695B899A4202D199
:104BA000BB690022DA80FBF711FB7B6800221A70D8
:104BB0007B693AE0FBF70AFB214B1B683B61BB6852
:104BC000002B0ED1F8693969FFF776FB3B691B6949
:104BD0007B613B6900221A617B6800221A707B6945
:104BE00023E0164B1B78DBB20133DAB2134B1A7099
:104BF000F8693969FFF760FB3869B968FFF72AF986
:104C0000FBF7E4FA3B691B69002B04D17B680522A2
:104C10001A70002309E03B691B697B613B69002234
:104C20001A617B6800221A707B6918462037BD46DE
:104C300080BD00BF1C050020B80900201D05002014
:104C40006009002080B584B000AF03463960FB7175
:104C5000FB79132B01D9012342E0FB791B01224A86
:104C60001344FB60FB685B7903F00F03DBB2032B9B
:104C700001D0012334E0FB681B68BB60BB689A89E4
:104C8000BB685B899A4201D1082329E0174B1B7846
:104C9000DBB20133DAB2154B1A70BB681A68BB6815
:104CA0001B899B0013443A681A60BB681B89013357
:104CB0009AB2BB681A81BB689B8901339AB2BB6800
:104CC0009A81BB681A89BB685B899A4202D1BB682A
:104CD00000221A81F868FFF76FFBFBF777FA0023D1
:104CE00018461037BD4680BDB80900201D050020BC
:104CF00080B400AF62B600BFBD465DF8047B70476C
:104D000080B400AF72B600BFBD465DF8047B70474B
:104D1000A0F11C0080F30988704700BF024B1B689C
:104D2000024A1168196070473404002038040020DA
:104D30000B4B19680B4A126891420AD0EFF30980B5
:104D400020E9F00F08601A601068B0E8F00F80F3F7
:104D50000988054B002018704EF0040E70470000C3
:104D6000600900205C0900201D05002080B586B088
:104D700000AF0346FB714B4B1B78DBB2002B01D01D
:104D800003238BE0484B1B78FA799A4201D3012325
:104D900084E0464B1B78DBB20133DAB2434B1A7026
:104DA000FB79DB00424A1344FB60FB689B781A46A0
:104DB0002C2303FB02F33F4A13447B617B69FF22F0
:104DC000DA71FB685B68002B08D1FB6800225A701F
:104DD000FB68FF229A70FBF7F9F95EE0FB689B78AD
:104DE000FB72FB68DB78FA7A9A4219D1FB685B6840
:104DF0007B617B691B79FB740EE07B691B79FA7C14
:104E00009A4206D97B691B79FB747B699A79FB68A6
:104E1000DA707B695B6A7B617B69002BEDD107E00F
:104E2000FB7A244A2C2101FB03F313441B79FB7406
:104E3000FB68FF229A70FB681B78FA7A10461946C5
:104E4000FCF79CFBFB685B687B617B695A6AFB68CB
:104E50005A607B691A79FB681A707B699A79FB68DA
:104E60009A707B691B79FA7C9A4208D07B691B791E
:104E70001846FCF7F1F9FB7C1846FCF791F97B69C1
:104E8000FA7C1A717B6900225A627B6900229A625D
:104E90007869FCF731FAFBF799F9002318461837BF
:104EA000BD4680BD1C050020200B00201D050020F4
:104EB000240B00206805002080B586B000AF786024
:104EC0007B68DB79DB00374A13443B617B685B6AB4
:104ED000002B07D17B689B6A002B03D13B69002222
:104EE0005A6027E07B685B6A002B07D17B689B6A6E
:104EF00000225A627B6800229A621BE07B689B6AF0
:104F0000002B07D17B685B6A00229A627B680022D3
:104F10005A620FE07B685B6A7A68926A9A627B6881
:104F20009B6A7A68526A5A627B6800229A627B683E
:104F300000225A627B68FF22DA713B69DA787B686B
:104F40009B799A422BD13B695B687B603B691B78FC
:104F5000FB753B699A783B69DA700EE07B681B79D8
:104F6000FA7D9A4206D97B681B79FB757B689A7932
:104F70003B69DA707B685B6A7B607B68002BEDD1F4
:104F80003B699B78FB733B69FF229A70FA7BFB7D40
:104F900010461946FCF7F2FA3B69FA7B9A7018370B
:104FA000BD4680BD240B002080B584B000AF034611
:104FB0000A46FB711346BB711F4B1B78DBB20133F2
:104FC000DAB21D4B1A700023FB732AE01B4B9B685F
:104FD000FA7B012101FA02F21340002B1ED1174B7C
:104FE0009B68FA7B012101FA02F21343134A936092
:104FF000124B1B68B979FA7B01FA02F213430F4A8C
:1050000013600E4B5B68F979FA7B01FA02F21343E5
:105010000A4A5360FBF7DAF8FB7B08E0FB7B0133BD
:10502000FB73FB7B1F2BD1D9FBF7D0F8FF2318466E
:105030001037BD4680BD00BF1D050020740B002049
:1050400080B58AB000AF03463960FB71554B1B78C1
:10505000DBB2002B01D00323A0E0534B1B78DBB263
:10506000002B01D0152399E0FB791F2B01D90123D7
:1050700094E04E4B9B68FA79012101FA02F2134049
:10508000002B01D1012389E0474B1B78DBB20133B0
:10509000DAB2454B1A70454B7B627B6A1B68FA7922
:1050A000012101FA02F21340002B0FD07B6A1A682B
:1050B0007B6A5B68F979012000FA01F10B40DB4360
:1050C0001A407B6A1A60FBF781F866E0384B1B6870
:1050D0003B623B68002B2ED1FB79012202FA03F3DD
:1050E0001A4607F10C0318461146022200F0DEF8BA
:1050F0003B6A02225A712F4B01221A70FBF766F8A5
:105100003B6A0022DA61284B1B78DBB20133DAB24A
:10511000254B1A707B6A1A68FB79012101FA03F3A7
:1051200019467B6A5B680B40DB431A407B6A1A6056
:10513000FBF74CF831E0FB79012202FA03F31A463F
:1051400007F10C0318461146022200F0AFF8386A46
:105150003968FEF77FFEFBF739F83B6ADB69002B05
:1051600001D105231AE03B6A0022DA610E4B1B785D
:10517000DBB20133DAB20C4B1A707B6A1A68FB7926
:10518000012101FA03F319467B6A5B680B40DB439C
:105190001A407B6A1A60FBF719F800231846283773
:1051A000BD4680BD1C0500201D050020740B00209D
:1051B000600900201E05002080B584B000AF0346C2
:1051C000FB71384BBB60FB791F2B01D9012364E0D5
:1051D000BB689B68FA79012101FA02F21340002BA7
:1051E00001D1012359E0BB681B68FA79012101FA5A
:1051F00002F21340002B01D000234EE0BB681B6875
:10520000FA79012101FA02F21A43BB681A60264BAF
:105210001B78DBB20133DAB2234B1A70BB68DB6850
:10522000FB6034E0FB681B7C002B17D1FB689A689D
:10523000BB681B681A40FB689B689A4224D1F868D7
:1052400000F070F8F860BB685B68FA79012101FA38
:1052500002F21340002B00D01CE018E0FB689A68B3
:10526000BB681B681340002B0ED0F86800F05AF89A
:10527000F860BB685B68FA79012101FA02F2134019
:10528000002B00D006E002E0FB681B68FB60FB68B7
:10529000002BC7D1FAF79AFF002318461037BD46F6
:1052A00080BD00BF740B00201D05002080B487B0B6
:1052B00000AFF860B9601346FB71184B7B61184B67
:1052C0001B68FA68DA61164B1A68FB68DA60FB68DB
:1052D000BA689A60FB68FA791A747B691B69002BBB
:1052E00009D1FB6800221A60FB6800225A607B69C2
:1052F000FA68DA600AE07B691B69FA681A607B6900
:105300001A69FB685A60FB6800221A607B69FA68B8
:105310001A611C37BD465DF8047B7047740B002092
:105320006009002080B584B000AF7860786800F034
:1053300023F87B68DB68FB60FB681B6AB3F1FF3F07
:1053400002D0F868FEF7FEFDFB684FF0FF32DA612D
:10535000084B1B68FA689A4203D1FB6801225A7114
:1053600002E0F868FBF7C8FF7B681B681846103737
:10537000BD4680BD6009002080B483B000AF786076
:105380007B681B68002B0AD17B685B68002B06D109
:10539000194B0022DA60184B00221A6123E07B6867
:1053A0001B68002B08D17B685B68134A13617B681C
:1053B0005B6800221A6016E07B685B68002B08D1EE
:1053C0007B681B680C4AD3607B681B6800225A60AC
:1053D00009E07B681B687A6852685A607B685B6882
:1053E0007A6812681A607B68DB680022DA610C3721
:1053F000BD465DF8047B7047740B002080B487B015
:1054000000AFF860B9607A607B687B617B691A1FC6
:105410007A614FF080721A607B691A1F7A61FA68AC
:105420001A607B696FF001021A607B69143B7B6133
:10543000BA687B691A607B69203B7B617B6918468F
:105440001C37BD465DF8047B704700BF80B500AFD8
:105450001F4B1B78DBB20133DAB21D4B1A701D4BA8
:10546000D3E90023013243F100031A49C1E90023C3
:10547000194B1B68002B10D0174B1B681B6A012BA4
:1054800005D9154B1B681A6A013A1A6205E0124BDE
:105490001B6800221A62FEF779FE104B1B68002B76
:1054A00010D00E4B1B685B68012B05D90B4B1B689A
:1054B0005A68013A5A6005E0084B1B6800225A609E
:1054C000FBF760F9064B01221A70FAF77FFE80BDE8
:1054D0001D050020880B0020B40900205005002085
:1054E0001E05002080B584B000AF0346FB71FB7938
:1054F000132B01D9012328E0FB791B01154A134422
:10550000FB60FB685B7903F00F03DBB2012B01D07A
:1055100001231AE0FB68DA88FB681B899A4201D1F3
:10552000062312E00C4B1B78DBB20133DAB20A4BD4
:105530001A70FB68DB8801339AB2FB68DA80F8687E
:10554000FEF73AFFFAF742FE002318461037BD4631
:1055500080BD00BFB80900201D05002080B500AF48
:1055600005484FF400710122FFF740FA03461A463E
:10557000024B1A7080BD00BFF4610020F469002066
:1055800080B500AFFFF78AF9FFF7A0F9FFF7C6F97A
:10559000FFF7E4FF03480021034A044BFCF79CF9A2
:1055A00080BD00BFB155000803000400F48900204D
:1055B00080B584B000AF78600123FB730123BB7317
:1055C0000023BB81FFF7D8F9FFF7CAF90346BB7385
:1055D000BB7B002B1CD1FB7B002B19D007F10803F0
:1055E0001846FFF7DDF9FFF7F7F90346BB81FFF730
:1055F000CDF93A890C4B1A800B4ABB8953800B4B6F
:105600001B7818460849FFF71DFB0346FB7207E0AD
:10561000BB7B002B04D0FB7B002B01D1FFF7ACF947
:10562000BB7BFB73D0E700BFF8890020F469002042
:1056300080B483B000AF7860FEE700BF80B483B071
:1056400000AF0346FB71FEE780B485B000AF786021
:1056500039600023FB817B681B88FB817B68284ABB
:10566000934213D07B68274A93420FD07B68B3F1F3
:10567000804F0BD07B68244A934207D07B68234A33
:10568000934203D07B68224A934208D1FB8923F0DE
:105690007003FB813B685A88FB891343FB817B685D
:1056A0001C4A93420CD07B681B4A934208D0FB896A
:1056B00023F44073FB813B681A89FB891343FB8108
:1056C0007B68FA891A803B685A687B68DA623B68B3
:1056D0001A887B681A857B68094A934203D07B68E5
:1056E000084A934204D13B689B7A9AB27B681A8637
:1056F0007B6801229A821437BD465DF8047B7047AF
:105700000000014000040140000400400008004087
:10571000000C0040001000400014004080B483B032
:1057200000AF78607B685B6A18460C37BD465DF851
:10573000047B704780B483B000AF78600B46FB7089
:10574000FB78002B08D07B681B889BB243F00103D9
:105750009AB27B681A8007E07B681B889BB223F0B3
:1057600001039AB27B681A800C37BD465DF8047B52
:10577000704700BF2DE9F047DFF8A0A08AB00646C9
:105780000F4600F04DF89AF90030013304460D46FB
:105790000FD03046394600F007F950B14FF00008FD
:1057A0004FF000093046394642464B4600F054FD62
:1057B00020B9204629460AB0BDE8F087164B9AF872
:1057C0000040019301220023CDE90467CDE902677F
:1057D0000092089364B9CDE90689684600F010F993
:1057E00080B1089B9BB9DDE906010AB0BDE8F087EE
:1057F0004046494642464B4600F0E6FB022CCDE9C6
:105800000601EAD100F078FD21230360E9E700F00A
:1058100073FD089B0360E6E7046300084004002072
:105820002DE9F0415F4EB6460E40764504460D46E2
:105830000B4600F095800029024674DD0F157FD0DD
:10584000A7F2FF37C3F31303F80743F4801365D4BB
:10585000D10F002601EB43037F105200B6461620FD
:105860004FF400110EEB01049C424FEAD2754FEA4F
:10587000420203DC1B1B04EB010E0E44013805EB56
:1058800043034FEA5101EDD1844620254FF00041FA
:105890000AE0734521D0D40F013D4FEA510104EBDA
:1058A00043034FEA420221D09E450CEB0104F0DA9B
:1058B000002C04EB010C0ADBF046CEEB0303944210
:1058C00088BF03F1FF33121B0844C646E3E7BCF16F
:1058D000000FF1DB0EF10108EFE794421CD8002C19
:1058E00004EB010C48DB98460023ECE7134304D09B
:1058F000411C47D000F00103184445087310F2071B
:1059000003F17F5303F5001348BF45F0004503EB57
:1059100007512846BDE8F0819E46BCE7D10F01EB58
:105920004303520094E721F00046064322D079BB9E
:105930000F46D30A153F5205002BFAD0DD0223D4BF
:1059400000215B00DC0201F10101FAD5C1F1010087
:10595000C1F1200422FA04F4234307448A406FE78C
:1059600002460B4600F006FA22462B4600F050F89D
:10597000BDE8F081BDE8F081BCF1000FAADAF04685
:105980000023A0E70136B9E7202401200021E1E748
:1059900002460B4600F03AF802460B4600F014FBB4
:1059A000BDE8F0810000F07F10B431F000440B46F8
:1059B00008D0114AA1F58011914208D804205DF861
:1059C000044B704718B902205DF8044B704703F18F
:1059D000FF43094A03F5E0039342EFD9B4F5801F72
:1059E00001D20320EBE7054B9C4201D00020E6E703
:1059F000B0FA80F04009E2E7FFFFDF7F0000F07FB0
:105A00000020704781F0004102E000BF83F00043B6
:105A100030B54FEA41044FEA430594EA050F08BF49
:105A200090EA020F1FBF54EA000C55EA020C7FEA0D
:105A3000645C7FEA655C00F0E2804FEA5454D4EB8A
:105A40005555B8BF6D420CDD2C4480EA020281EA54
:105A5000030382EA000083EA010180EA020281EA8C
:105A60000303362D88BF30BD11F0004F4FEA0131DE
:105A70004FF4801C4CEA113102D0404261EB4101ED
:105A800013F0004F4FEA03334CEA133302D0524273
:105A900063EB430394EA050F00F0A780A4F101042F
:105AA000D5F1200E0DDB02FA0EFC22FA05F2801869
:105AB00041F1000103FA0EF2801843FA05F359414F
:105AC0000EE0A5F120050EF1200E012A03FA0EFCCE
:105AD00028BF4CF0020C43FA05F3C01851EBE371F8
