:020000040800F2
:1000000080460020491D0008B11D0008B11D0008F0
:10001000B11D0008B11D0008B11D0008000000005E
:10002000000000000000000000000000B11D0008FA
:10003000B11D0008000000000551000875580008B7
:10004000B11D0008B11D0008B11D0008B11D000858
:10005000B11D0008B11D0008B11D0008B11D000848
:10006000B11D0008B11D0008B11D0008B11D000838
:10007000B11D0008B11D0008B11D0008B11D000828
:10008000B11D0008B11D0008B11D0008B11D000818
:10009000B11D0008B11D0008B11D0008B11D000808
:1000A000B11D0008B11D0008B11D0008B11D0008F8
:1000B000B11D0008B11D0008B11D0008B11D0008E8
:1000C000B11D0008B11D0008B11D0008B11D0008D8
:1000D000B11D0008B11D0008B11D0008B11D0008C8
:1000E000B11D0008B11D0008B11D0008B11D0008B8
:1000F000B11D0008B11D0008B11D0008B11D0008A8
:10010000B11D0008B11D0008B11D0008B11D000897
:10011000B11D0008B11D0008B11D0008B11D000887
:10012000B11D0008B11D0008B11D0008B11D000877
:10013000B11D0008B11D0008B11D0008B11D000867
:10014000B11D0008B11D0008B11D0008B11D000857
:10015000B11D0008B11D0008B11D0008B11D000847
:10016000B11D0008B11D0008B11D0008B11D000837
:10017000B11D0008B11D0008B11D0008B11D000827
:10018000B11D0008B11D000880B582B000AF80200D
:10019000012101F0B1FE0C233B6001233B710223DE
:1001A0007B710023BB710023FB713B460C48194651
:1001B00004F0D8FC4FF48070012101F09DFE4FF453
:1001C000A0633B6001233B710023BB710023FB71E3
:1001D0003B460448194604F0C5FC0837BD4680BDBF
:1001E000001C02400020024080B582B000AF0346F0
:1001F000FB71FB79042B2DD801A252F823F000BF2C
:100200001502000829020008330200083D02000818
:100210004902000811480C2104F05AFD10484FF41F
:10022000A06104F055FD15E00C48042104F050FDD8
:1002300010E00A48082104F04BFD0BE008484FF499
:10024000807104F045FD05E005484FF4806104F03D
:100250003FFD00BF0837BD4680BD00BF001C024007
:100260000020024080B582B000AF0346FB71FB79ED
:10027000042B2DD801A252F823F000BF91020008F0
:10028000A5020008AF020008B9020008C502000874
:1002900011480C2104F02AFD10484FF4A06104F02D
:1002A00025FD15E00C48042104F020FD10E00A486B
:1002B000082104F01BFD0BE008484FF4807104F0A6
:1002C00015FD05E005484FF4806104F00FFD00BF07
:1002D0000837BD4680BD00BF001C02400020024020
:1002E00080B582B000AF0346FB71FB79042B2DD89B
:1002F00001A252F823F000BF0D03000821030008FB
:100300002B030008350300084103000811480C21A5
:1003100004F0FAFC10484FF4A06104F0F5FC15E07D
:100320000C48042104F0F0FC10E00A48082104F015
:10033000EBFC0BE008484FF4807104F0E5FC05E0AD
:1003400005484FF4806104F0DFFC00BF0837BD466C
:1003500080BD00BF001C02400020024080B400AFFE
:100360000C4A0D4B1A600B4BC8330B4A53600B4BB6
:10037000084A1A60094B1B6800221A60074B1B6869
:1003800000225A60054B1B6800229A60BD465DF84A
:10039000047B704710000020DC000020D800002003
:1003A00080B500AF0E4B1B78DBB2012B10D10D4B8B
:1003B0001B78012B01D101F0FFFC0B4B1B78DBB24A
:1003C000012B01D101F0D8FA054B00221A7006E08A
:1003D000034B1B78DBB2013BDAB2014B1A7080BDD4
:1003E000E500002070050020E600002080B500AF89
:1003F000154B164A1A60164B07221A60154A154B00
:100400001B6843F07F431360134A134B1B686FEA6A
:1004100003436FEA1343136000F002FE04F0D2F9C5
:10042000FFF79CFF0D4B1B78DBB20133DAB20B4BAD
:100430001A700B48002144F240020A4B01F062FBA3
:10044000084804F04FFE80BD14E000E03F90020039
:1004500010E000E01CED00E020ED00E0E5000020F1
:10046000D55C00081005002080B500AF094B0A4A92
:100470001A60084B1B68094A1360064B1B6801226F
:100480005A71044B1B68184601F0F6F8FFF788FF15
:1004900080BD00BF20050020280100201C05002091
:1004A00090B587B000AF0346FB71FA796D491346EA
:1004B0005B001344DB000B445B68FB60FB68002BB4
:1004C00000D1CCE0684B1B78DBB20133DAB2664B6B
:1004D0001A70664B1B68002B09D1FA7913465B0032
:1004E0001344DB005F4A1344604A1360B5E05F4B7E
:1004F0001B687B61FB683B61ABE03A697B695B68C9
:10050000D31A3B613B69002B7CDA7B695B69002B6A
:1005100028D07B695969FA7913465B001344DB00E4
:10052000504A13440B61FA797B6959694D48134667
:100530005B001344DB00034410335960FA794949E6
:1005400013465B001344DB000B4410337A691A60D6
:10055000FA7913465B001344DB00424A1A447B6974
:100560005A611DE0FA79414B19683E4813465B0019
:100570001344DB000344103319603C4B1968FA79CB
:1005800013465B001344DB00364A13444B61FA798F
:1005900013465B001344DB00324A1344334A1360B2
:1005A000FA79F9792F480B465B000B44DB000344D2
:1005B00010331B6859683B6919442A4813465B008D
:1005C0001344DB0003445960FA79264913465B0063
:1005D0001344DB000B4410331968FA7921481346A1
:1005E0005B001344DB00034410331B685868FA793E
:1005F0001C4C13465B001344DB0023445B68C31AA6
:100600004B602AE03B69002B20DB7B691B69002BD8
:100610001CD1FA79134913465B001344DB000B44E9
:1006200010337A695A60FA7913465B001344DB0091
:100630000C4A1A447B691A61FA79396909481346E8
:100640005B001344DB000344596006E07B691B69CF
:100650007B617B69002B7FF450AFFFF7A1FE1C3755
:10066000BD4690BDE8000020E500002018010020F4
:1006700080B584B000AF0346FB71FA7913465B0086
:100680001344DB002C4A1344FB602C4B1B78DBB279
:100690000133DAB2294B1A70FB685B69002B07D172
:1006A000FB681B69002B03D1254B00221A603DE03B
:1006B000FB685B69002B14D1FB681B69204A13603F
:1006C0001F4B1B6800225A61FB681B69FA6812699C
:1006D0005168FA6852680A445A60FB6800221A613D
:1006E00024E0FB681B69002B07D1FB685B690022D3
:1006F0001A61FB6800225A6118E0FB685B69FA68BE
:1007000012691A61FB681B69FA6852695A61FB68D1
:100710001B69FA6812695168FA6852680A445A609B
:10072000FB6800221A61FB6800225A61FFF738FE5D
:100730001037BD4680BD00BFE8000020E500002066
:100740001801002080B586B000AFB9607A603B60C8
:100750000346FB73FB7B002B04D0FB7B012B01D0FA
:10076000FF237BE03B68002B01D1FF2376E03D4B6C
:100770001B78DBB20133DAB23A4B1A700023FB75F7
:1007800066E0FB7D012202FA03F31A46364B1B6832
:100790001340002B59D1FB7D012202FA03F31A46C4
:1007A000314B1B681343304A1360FFF7F9FDFA7DA4
:1007B0002E4913465B001344DB000B44FA7D1A708C
:1007C000FA7D2A4913465B001344DB000B44FA7B95
:1007D0005A70FA7D254913465B001344DB000B4435
:1007E00001229A70FA7D214913465B001344DB0015
:1007F0000B44BA685A60FA7D1C4913465B001344E7
:10080000DB000B4408337A681A60FA7D17491346F7
:100810005B001344DB000B4408333A685A60FA7DEE
:10082000124913465B001344DB000B4410330022D3
:100830005A60FA7D0D4913465B001344DB000B44FC
:10084000103300221A60FB7D08E0FB7D0133FB754D
:10085000FB7D012B95D9FFF7A3FDFF231846183721
:10086000BD4680BDE50000201C010020E8000020FE
:1008700080B582B000AF0346FB71FB79012B01D933
:10088000012325E0FB79012202FA03F31A46124BF9
:100890001B681340002B01D1012319E0FA790F499D
:1008A00013465B001344DB000B449B78002B01D103
:1008B00000230DE0FA79094913465B001344DB007D
:1008C0000B4400229A70FB791846FFF7E9FD0023DC
:1008D00018460837BD4680BD1C010020E8000020F6
:1008E00080B582B000AF1B4B1B687B6027E07B6844
:1008F0005B78002B0BD17B681B781846FFF7B8FE9E
:100900007B6801229A707B68DB68984714E07B68FB
:100910005B78012B10D17B681B781846FFF7A8FE87
:100920007B689A687B685A607B681B781846FFF77B
:10093000B7FD7B68DB689847064B1B687B607B686C
:10094000002B03D07B685B68002BD0D00837BD46F6
:1009500080BD00BF1801002080B500AF074B1B7899
:10096000DBB2012B06D9064B01221A70054B01227E
:100970001A7001E0FFF7B4FF80BD00BFE500002062
:10098000700500207205002080B582B000AF1020F5
:10099000012101F0B1FA7C233B6000233B7101236C
:1009A000FB713B460348194604F0DCF80837BD46A6
:1009B00080BD00BF0010024080B582B000AF0023B0
:1009C000FB711948042104F05BF90346002B01D1A7
:1009D0000123FB711448082104F052F90346002B4F
:1009E00001D10223FB711048102104F049F903469C
:1009F000002B01D10323FB710B48202104F040F9A7
:100A00000346002B01D10423FB710748402104F069
:100A100037F90346002B01D10523FB71FB791846FA
:100A20000837BD4680BD00BF0010024080B500AF52
:100A300001F022FC1F2002F0DFFF03480021034ADF
:100A4000034B01F05FF880BD550A00080100040067
:100A50003017002080B584B000AF7860134B1B784E
:100A6000002B12D012480021124A134B01F04AF811
:100A70000346FB730520002103F08AFCFB7B18462C
:100A800001F0D2F8094B00221A700C480021094AE3
:100A9000094B01F037F80346FB730520002103F0F2
:100AA00077FCFB7B184601F0BFF8D7E70000002079
:100AB000C10A00080100040030270020C10D000811
:100AC00080B58EB002AF78600023FB854FF478408C
:100AD00002F092FF4FF6FF7300930A2014213B4A65
:100AE0001F2303F007FA4FF6FF7300930A2020211B
:100AF000374A1F2303F0FEF94FF6FF7300930A20D5
:100B00002C21344A1F2303F0F5F94FF6FF730093AD
:100B10000A203821304A1F2303F0ECF94FF6FF7307
:100B200000930A2044212D4A1F2303F0E3F94FF6D6
:100B3000FF7300930A205021294A1F2303F0DAF99A
:100B40004FF6FF7300930A205C21264A1F2303F00F
:100B5000D1F94FF6FF7300930A2068211E4A1F2324
:100B600003F0C8F94FF6FF7300930A2074211E4A60
:100B70001F2303F0BFF91D4B1B78002B09D04FF644
:100B8000FF7300930A209121194A1F2303F0B2F941
:100B900009E04FF4784300930A209121144A4FF45E
:100BA000784303F0A7F9114B1B78002B0CBF0123EE
:100BB0000023DBB21A460D4B1A70002000210022E0
:100BC0004FF4487303F054FDD5E700BFEC6500080F
:100BD0001066000820660008446600085466000895
:100BE0007C6600088C660008B466000823010020BB
:100BF000D466000880B500AF0C4B1B78002B06D1E3
:100C00000B4B1B781846322104F0B0FE09E0074B6D
:100C10001B78012B05D1074B1B781846322104F0B5
:100C2000A5FE054B01221A7080BD00BF20010020E7
:100C3000783D0020742C00202101002080B500AFF9
:100C4000104B1B78002B05D10F4B1B78184604F076
:100C500001FF08E00B4B1B78012B04D10B4B1B78D9
:100C6000184604F0F7FE0A4B00221A70054B1B7859
:100C7000002B0CBF01230023DBB21A46014B1A7074
:100C800080BD00BF20010020783D0020742C002092
:100C900021010020B0B584B002AF0023FB80032304
:100CA000009300230193002000214FF4A072CD2374
:100CB00003F02EF80023FB8042E0FB885B0199B231
:100CC000FB885B019AB20023009308460021CD23E4
:100CD00002F060FFFB88184605F0F0F902460B466B
:100CE000104619464FF00002184B05F04DFA024627
:100CF0000B461046194605F059FC03469DB2FB8889
:100D0000184605F0DBF902460B46104619464FF02F
:100D100000020E4B05F038FA02460B461046194603
:100D200005F044FC03469CB20023009300202946B2
:100D30004FF4A072234602F02DFFFB880133FB80A5
:100D4000FB88092BB9D90837BD46B0BD00803440B7
:100D500080B487B000AF78600B46FB700023FB7552
:100D600000233B610023FB60FB78C3F1A0035A0022
:100D7000FB7892FBF3F3FB601C37BD465DF8047B08
:100D8000704700BF80B485B000AF78600B46FB7041
:100D90000023FB730023FB7308E0FB7B9B007A6856
:100DA000134400221A60FB7B0133FB73FA7BFB7850
:100DB0009A42F2D31437BD465DF8047B704700BFFA
:100DC00080B5C8B002AF3B1D18601F2002F014FEB2
:100DD0001F2300930A20E021724A4FF6FF7303F0AD
:100DE00089F80023A7F816310023A7F81231002351
:100DF000A7F81031B7F8103103F584434033A7F852
:100E00000E310023A7F814314FF6FF730093002032
:100E100000214FF4A072CD2302F0DCFFFFF73AFF70
:100E2000614B00221A7007F10B0300221A7007F1C0
:100E30000A0300221A7007F1090300221A70002029
:100E400000210022012303F013FC584B1B78002BD8
:100E500015D1574B1B781846002104F0DBFA544B90
:100E60001B78184604F092FB524B1B78002B40F085
:100E70009780FFF7BFFE4D4B01221A70DFE7B7F8EE
:100E80001421B7F80E319A4273D84B4B1B78002BC4
:100E900008D1454B1B781A46484B33F81230A7F857
:100EA00016310BE0444B1B78012B07D13E4B1B78CE
:100EB0001A46434B33F81230A7F81631B7F81631FB
:100EC000DBB2184607F10B0107F10A0207F109032B
:100ED00000F078F8B7F81621B7F8161107F10C03EF
:100EE00053F82130591C07F10C0343F82210324B00
:100EF0001B78002B08D12C4B1B78304A403332F83A
:100F00001330A7F814310BE02B4B1B78012B07D1C2
:100F1000254B1B782A4A403332F81330A7F8143196
:100F2000214B1B780133DAB21F4B1A701E4B1B7812
:100F3000402B1DD11F4B1B78002B07D0FFF77EFEE7
:100F40001C4B00221A70184B00221A70184B1B7889
:100F50001846002104F05EFA154B1B78184604F081
:100F600015FB144B1B78002B02D1FFF743FE17E053
:100F700016E007F10C0318464021FFF7E9FE07F1E0
:100F80000C0318464021FFF7FDFEB7F81431A7F80F
:100F90001031B7F8103103F584434033A7F80C3112
:100FA0004DE700BF0867000824010020220100204F
:100FB000793D002021010020200100207C3D0020FF
:100FC000782C002080B487B000AFB9607A603B60B5
:100FD0000346FB730023FB750023BB7500237B7561
:100FE000FB7B23F07F03FB75FB7DDB09FB75FB7B44
:100FF00003F07E03BB75BB7D5B08BB75FB7B03F019
:1010000001037B75BB68FA7D1A707B68BA7D1A7024
:101010003B687A7D1A701C37BD465DF8047B7047CB
:1010200080B485B000AF1C4B00221A701B4BBB6014
:101030001B4B7B600023FB7319E0BB68FA7B9A7142
:10104000BB6803225A71BB687A685A62FB7B154AF7
:10105000FF21D154FB7B144AFF21D154BB682C33B0
:10106000BB607B682C337B60FB7B0133FB73FB7BBA
:101070000F2BE2D9FB7B0C4AFF21D154BB68FA7BD2
:101080009A71BB6800225A62084B044A1A601437EE
:10109000BD465DF8047B70473428002028010020FD
:1010A00054010020300500205028002014050020A5
:1010B00080B485B000AF03463960FB710023BB7379
:1010C000194B1B78FB7321E0BB7B7B73BA7BFB7BEB
:1010D0001344DA0F13445B10BB73BB7B134AD35C1E
:1010E000FA799A4204D13B68BA7B1A70012315E061
:1010F000BB7B0E4AD35CFA799A4204D2BB7BFB736A
:101100007B7BBB7302E0BB7B0133BB73BA7BFB7B96
:101110009A42D9D13B68BA7B1A700023184614371B
:10112000BD465DF8047B704734280020502800201D
:1011300080B485B000AF0346FB71FB795B09FB739C
:10114000FB7903F01F03BB73FB7B404A52F823304B
:10115000BB60BB68002B6AD0BB7BDB087B737B7BEF
:10116000DB00FF2202FA03F31A46BB681340002B90
:1011700053D07B7BDB00F02202FA03F31A46BB68F4
:101180001340002B1FD0BB7B3B7315E097F90C304D
:10119000012202FA03F31A46BB681340002B06D063
:1011A000FB7B5B01DAB23B7B1344DBB247E03B7B6A
:1011B000DBB2013BDBB23B7397F90C207B7BDB009E
:1011C00004339A42E2DABB7B03F00403002B05D020
:1011D000BB7B43F00303DBB2043BBB73BB7B3B73C2
:1011E00015E097F90C30012202FA03F31A46BB68A6
:1011F0001340002B06D0FB7B5B01DAB23B7B134430
:10120000DBB21CE03B7BDBB2013BDBB23B7397F90B
:101210000C207B7BDB009A42E3DA7B7BDB00DBB2DA
:10122000013BBB737B7B5A1E7A73002B97D11F2324
:10123000BB73FB7B5A1EFA73002B85D1FF23184624
:101240001437BD465DF8047B704700BF4C28002072
:1012500080B485B000AF0346FB710023BB7300234D
:10126000BB60FB795B09BB730023FB730AE0FB7B6C
:10127000012202FA03F31A46BB681343BB60FB7BEF
:101280000133FB73FB7903F01F03DBB2FA7B9A4255
:10129000EDD3BB7B204A52F82330BA681340BB60C1
:1012A000FB79FB7325E0FB7B03F01F03DBB2002B14
:1012B0000DD1FA7BFB799A4209D0BB7B5A1CBA73D9
:1012C0001946154ABB6842F821300023BB60FB7BFE
:1012D000124AD35CFF2B09D0FB7B03F01F030122D2
:1012E00002FA03F31A46BB681343BB60FB7B01336E
:1012F000FB730B4B1B78FA7B9A42D4D3BB7B5A1CF3
:10130000BA731946044ABB6842F821301437BD4607
:101310005DF8047B704700BF4C280020300500209A
:101320003428002080B483B000AF0346FB71FB7902
:101330005B09DBB21A460A4B53F82230FA7902F005
:101340001F02012101FA02F21340002B01D10023F8
:1013500000E0012318460C37BD465DF8047B70475A
:101360004C28002080B485B000AF03460A46FB71CC
:101370001346BB71FB795B09DBB21A46124B53F87B
:101380002230FB60FB7903F01F03012202FA03F312
:10139000DB431A46FB681340FB60BA79FB7903F024
:1013A0001F0302FA03F31A46FB681343FB60FB7941
:1013B0005B09DBB21946044AFB6842F82130143756
:1013C000BD465DF8047B70474C28002080B584B092
:1013D00000AF0346FB71FA7907F10E031046194678
:1013E000FFF766FE0346002B39D1224B1B78FB73B7
:1013F00017E0FB7BFA7B013A1F49895C1E4AD154F6
:10140000FB7BFA7B013A1D49895C1C4AD154FB7B6A
:10141000FA7B013A1A49895C194AD154FB7B013B9A
:10142000FB73BB7BFA7B9A42E3D8BB7B1946124A1B
:10143000FB795354BB7B1A46104B01219954BB7B5B
:101440001A460F4BFF2199540A4B1B780133DAB22D
:10145000084B1A70BB7B1846FFF7FAFE06E0BB7B11
:10146000064AD25C0132D1B2044AD1541037BD468B
:1014700080BD00BF342800205028002038280020DC
:101480003005002080B584B000AF0346FB71FA79C7
:1014900007F10E0310461946FFF70AFEBB7B1D4AF3
:1014A000D25C013AD1B21B4AD154BB7B1A46194BCC
:1014B0009B5C002B2AD1BB7BFB7317E0FB7BFA7B89
:1014C00001321549895C144AD154FB7BFA7B013205
:1014D0001049895C0F4AD154FB7BFA7B01320F49DA
:1014E000895C0E4AD154FB7B0133FB73FA7B0C4BB6
:1014F0001B78013B9A42E1DB094B1B78013BDAB2D6
:10150000074B1A70BB7B1846FFF7A2FE1037BD468B
:1015100080BD00BF38280020502800203005002062
:101520003428002080B586B000AF78607B681B79D6
:10153000FB747B6800225A71484B1B687B617B6996
:101540001B79FA7C9A421ED17A697B689A421AD03A
:101550007B69002B17D0424BD3E90001414BD3E903
:101560000023994208BF90420DD27B695B8998B2F3
:101570004FF000013B4BD3E90023121843EB01036A
:101580003749C1E90023FA7C07F10B0310461946DD
:10159000FFF78EFDFB7A1846FFF7C4FE0346012BCA
:1015A00011D1FB7A1A46304B9B5C1A462C2303FB65
:1015B00002F32E4A13447B61FB7A1A467B689979C1
:1015C000294B995434E0FB7A1A467B689979264B6B
:1015D0009954FB7A1846FFF7ABFD0346BB74FB7AC0
:1015E00018460121FFF7BEFEBB7CFF2B16D1204B16
:1015F0001B687B611F4B01221A707B69002B03D192
:101600001B4A7B68136025E07B687A695A627B69B4
:101610007A689A62164A7B6813601BE0BB7C124AA8
:10162000D35C1A462C2303FB02F3104A13447B615C
:101630007B695B6AFB607B68FA685A627B697A68DF
:101640005A627B687A699A62FB68002B02D0FB6859
:101650007A689A621837BD4680BD00BF2005002019
:101660002805002028070020300500202801002040
:1016700018050020E600002080B584B000AF786037
:101680000023FB737B681B79BB73BA7B07F10D03E7
:1016900010461946FFF70CFD7B685B6A002B09D1E9
:1016A0007B689B6A002B05D13D4B00221A60012309
:1016B000FB7365E07B689B6A002B13D17B685B6AD8
:1016C000374A13607B6800225A62354B1B68002240
:1016D0009A62334B1B681B79BA7B9A4250D0012324
:1016E000FB734DE07B685B6A002B17D17B689B6ABC
:1016F0001B79BA7B9A4202D00123FB7306E07B7B05
:101700001A467B689B6A9979264B99547B689B6A39
:1017100000225A627B6800229A6231E07B689B6AF1
:101720001B79BA7B9A4208D07B685B6A1B79BA7BCB
:101730009A4202D00123FB7312E07B689B6A1B79FB
:10174000BA7B9A420CD17B685B6A1B79BA7B9A425E
:1017500006D07B7B1A467B689B6A9979114B99541A
:101760007B689B6A7A68526A5A627B685B6A7A68AD
:10177000926A9A627B6800225A627B6800229A62AF
:10178000FB7B012B09D17B7B1A46064BFF21995429
:101790007B7B18460021FFF7E5FD1037BD4680BD75
:1017A000180500203005002080B586B000AF034644
:1017B0000A46FB711346BB71FB79002B01D1142340
:1017C000CAE0FB79102B01D90123C5E0FB792C225B
:1017D00002FB03F3624A13447B617B695B79032B51
:1017E00001D10123B8E0BB79402B01D90123B3E03B
:1017F0007B691B79BA799A4200F0AD807B69DB790D
:10180000FF2B15D07B69DB79DB00564A1344FB6064
:10181000FB689A787B699B799A4209D1FB68BA790F
:101820001A707B691B79BA799A4201D9002393E037
:101830007B691B791846FFF725FEBB791846FFF731
:10184000C5FD7B69BA791A717B695B79002B0FD171
:10185000454B1B78DBB20133DAB2434B1A7078691F
:10186000FFF70AFF7869FFF75DFEFEF799FD72E06A
:101870007B695B79012B13D17B691A793B4B1B6820
:101880001B799A4267D9384B1B78DBB20133DAB245
:10189000354B1A70364B01221A70FEF781FD5AE063
:1018A0007B69DB79FF2B37D02F4B1B78DBB2013301
:1018B000DAB22D4B1A707B69DB79DB00294A1344BD
:1018C000FB60FB685B687B61FB681B78FB74FB68F3
:1018D0009A78FB68DA700EE07B691B79FA7C9A4291
:1018E00006D97B691B79FB747B699A79FB68DA708E
:1018F0007B695B6A7B617B69002BEDD1FEF750FD54
:10190000FB681B78FA7C9A4206D0FB689A78FB7CCD
:1019100010461946FFF748FFFB792C2202FB03F320
:101920000F4A13447B617B691B7AFF2B13D07B69C1
:101930001B7A1B010F4A1344BB60BB685B7923F021
:101940000F03DBB2202B06D1786903F0BFF8B8682B
:10195000796902F0B5FF002318461837BD4680BDEF
:1019600028010020C0060020E50000201805002006
:10197000E60000207805002080B584B000AF454B1C
:101980001B68FB60444B1B68BB60BB68002B0ED020
:10199000424B1B68FA689A4209D1414B1B78DBB273
:1019A000012B04D83F4B1B78DBB2002B00D06DE03D
:1019B0003D4B00221A70FB681B79FB71BB681B79D9
:1019C000BB71FB685B79012B09D0344ABB6813609B
:1019D000BB6801225A71B868FFF74EFE2CE0BA7955
:1019E000FB799A420CD22D4ABB681360F868FFF766
:1019F00099FDB868FFF740FEBB6801225A711BE0F1
:101A0000FA79BB799A4216D1284BD3E90001284BC9
:101A1000D3E90023994208BF90420CD11F4ABB680A
:101A20001360F868FFF77EFDB868FFF725FEBB6816
:101A300001225A7100E029E0184B1B681A79164BF5
:101A40001B681B799A420ED1144B1B685B8998B2B4
:101A50004FF00001164BD3E90023121843EB0103AA
:101A60001249C1E90023FB681A68FB68DB689A42E7
:101A700005D3FB68DB681B680E4A934204D0FB6801
:101A80009B79184604F02CF903F032FB1037BD4661
:101A900080BD00BF20050020180500201C05002087
:101AA000E5000020E4000020E600002028050020DA
:101AB00028070020A5A55A5A80B582B000AF0F4B69
:101AC0001B78DBB20133DAB20C4B1A700C4B1B687B
:101AD000002B03D1FEF764FC00230AE0084B1B68CF
:101AE0007B60074B1B685B6A054A1360FEF758FC76
:101AF0007B6818460837BD4680BD00BFE500002062
:101B00001405002080B588B000AFF860B9607A6035
:101B10003B607A68404B13401B0ABB837B68FB76B3
:101B2000FB68002B01D1FF2372E03B68002B01D141
:101B3000FF236DE0FB7E402B01D9FF2368E0BB8BC8
:101B4000132B01D8FF2363E0F868B9683A6803F003
:101B500069FE7861FFF7B0FF38613B69002B01D166
:101B6000FF2355E03B697A691A603B69FA7E1A7176
:101B7000BA8B13469B079B1A9B0004333A681A449E
:101B80003B69DA603B69DB68244A1A603B694FF0C5
:101B9000FF321A623B6900225A623B6900229A6254
:101BA0007A681F4B13401B0DFB83FB8B002B01D16D
:101BB0000A23FB833B69FA8B5A813B690022DA6175
:101BC0003B69FF221A723B6900221A613B690022BD
:101BD0005A613B6900229A613B69FF22DA71FB7E00
:101BE0001846FFF7F3FB7B68002B0CDB0D4B1B78D3
:101BF000DBB20133DAB20B4B1A703869FFF792FC93
:101C0000FEF7CEFB02E03B6902225A713B699B79E9
:101C100018462037BD4680BD00FF0F00A5A55A5AC3
:101C20000000FF7FE500002080B584B000AF0346D0
:101C3000FB71FB79102B01D9012376E0FB792C2273
:101C400002FB03F33B4A1344FB60FB685B79032B05
:101C500001D1012369E0FB79002B01D1142364E059
:101C6000FB685B79012B06D1334B1B78DBB2002B71
:101C700001D0152359E0FB68DB79FF2B0ED0FB6800
:101C8000DB792E4ADB0013449A78FB689B799A42F1
:101C900004D1FB68DB79184603F052FA264B1B7817
:101CA000DBB20133DAB2244B1A70FB685B79002B8C
:101CB00003D1F868FFF7E0FC22E0FB685B79022BB8
:101CC0001ED1FB681B6AB3F1FF3F02D0F86802F037
:101CD0003DFCFB681B7AFF2B02D0F86802F0F6FE91
:101CE000FB68DB69002B04D0FB68DB69184603F056
:101CF00057FDFB68DB79FF2B02D0F86803F0C6FACA
:101D0000FB6803225A710E4B01221A70FB681B7983
:101D10001846FFF7B7FB0B4B1A68FB685A62094A73
:101D2000FB681360FEF73CFB002318461037BD46E6
:101D300080BD00BF28010020E5000020C006002073
:101D4000E60000201405002080B582B000AF124BE1
:101D50007B60124B3B6007E03B681A1D3A607A6873
:101D6000111D796012681A603B680D4A9342F3D3E3
:101D70000C480D494FF000028842B8BF40F8042BD0
:101D8000FADBDFF82800016841F47001016000F01F
:101D9000A5F80837BD4680BD046D0008000000208E
:101DA00010000020100000207C3E002088ED00E0A4
:101DB00080B400AFFEE700BF80B582B000AF394B02
:101DC0001B78012B04D102F0ABFC364B00221A70B9
:101DD000354B1B78012B04D1FEF782FD324B0022DC
:101DE0001A704CE003F076F9304B5B782F4ADB0039
:101DF00013443A46043393E8030082E803002B4B74
:101E00005B785A1C2A4B83FB02135910D317C91A4B
:101E10000B469B000B44D11ACAB2244B5A70234B79
:101E20001B78013BDAB2214B1A7003F04BF93B7877
:101E3000013B032B22D801A252F823F04D1E0008CB
:101E4000571E0008651E00086F1E00087B781846A4
:101E500003F000FE13E07A787B681046194600F024
:101E6000BFF80CE07B78184603F0BAFB07E07A78FD
:101E70007B681046194603F0CFF800E000BF0B4B1B
:101E80001B78002BAED103F025F9084B1B78002BF3
:101E900002D1084B00221A7003F014F90837BD462E
:101EA00080BD00BF710500207205002044050020A0
:101EB000676666667005002080B500AF02F07EFAA6
:101EC00080BD00BF80B500AF02F05CF902F090FA6F
:101ED00003F020FEFEF7AAFD80BD00BF80B500AF75
:101EE00002F06CFFFEF782FAFFF7E6FFFFF7EAFF6A
:101EF000FEF7BAFAFEE700BF80B483B000AF7860A7
:101F00000B46FB70FB78002B06D00949084B1A6B77
:101F10007B6813430B6306E00549054B1A6B7B682E
:101F2000DB4313400B630C37BD465DF8047B704701
:101F30000038024080B483B000AF78600B46FB707D
:101F4000FB78002B06D00949084B9A6B7B6813433A
:101F50008B6306E00549054B9A6B7B68DB431340B6
:101F60008B630C37BD465DF8047B70470038024038
:101F700080B483B000AF78600B46FB70FB78002B19
:101F800006D00949084B1A6C7B6813430B6406E0C2
:101F90000549054B1A6C7B68DB4313400B640C3717
:101FA000BD465DF8047B70470038024090B482B0B3
:101FB00000AF78600B46FB70FB78203B1B01074AA3
:101FC0001A447B68146850689168D2681C60586035
:101FD0009960DA600837BD4690BC70471467000806
:101FE00080B584B000AF03463960FB71FB79132BD9
:101FF00001D9012326E0FB791B01144A1344FB603D
:10200000FB685B7903F00F03DBB2022B01D00123E5
:1020100018E0FB68DB88002B13D10D4B1B78DBB27B
:102020000133DAB20A4B1A70FB683A681A60FB682F
:102030000122DA80F86802F0C3FCFEF7B1F9002350
:1020400000E0072318461037BD4680BD7805002004
:10205000E500002080B582B000AF58200121FFF7D5
:102060004BFF01200121FFF765FF484800210C22AA
:1020700002F05CFE454801210C2202F057FE434865
:1020800004210C2202F052FE404805210C2202F0ED
:102090004DFE3E4808210C2202F048FE3B48092133
:1020A0000C2202F043FE39480A210C2202F03EFEC7
:1020B00036480E210C2202F039FE34480F210C2242
:1020C00002F034FE4CF233733B6002233B71022377
:1020D0007B710023BB710023FB713B462B481946E3
:1020E00002F040FD2A4802210C2202F01FFE28487F
:1020F00007210C2202F01AFE254808210C2202F0CA
:1021000015FE234809210C2202F010FE20480A2166
:102110000C2202F00BFE1E480B210C2202F006FEE0
:102120001B480C210C2202F001FE19480D210C2243
:1021300002F0FCFD16480E210C2202F0F7FD1448B7
:102140000F210C2202F0F2FD4FF684733B603B46F8
:102150000F48194602F006FD0E4805210C2202F038
:10216000E5FD0C480C210C2202F0E0FD09480D2190
:102170000C2202F0DBFD43F220033B603B460548A6
:10218000194602F0EFFC0837BD4680BD000C024046
:10219000001002400018024080B596B000AF062340
:1021A000FB6100233B6200237B621023BB620023A0
:1021B000FB6200237B630023BB630023FB634FF4BC
:1021C00080533B6400237B6400233B630023BB6498
:1021D0000023FB643B463B650F233B6000237B6091
:1021E0000F23BB600023FB6000233B6100237B6166
:1021F0000023BB613B467B6507F11C03184601F0D9
:10220000FDFE0620012101F093FF5837BD4680BD39
:1022100080B582B000AF074B7B60FFF71BFF00BFAC
:102220007B685A1E7A60002BFAD1FFF7B5FF08379A
:10223000BD4680BDFFFF1F0080B485B000AF0346E0
:10224000FB800023FB810DE00023BB8102E0BB8902
:102250000133BB81BB8940F274429342F7D9FB89B9
:102260000133FB81FA89FB889A42EDD31437BD46CE
:102270005DF8047B704700BF80B500AFFFF7C8FF73
:10228000ED4B40F223121A80002001F0A7FE034616
:102290001A46E94B1A80E84B1B8849F225329342D3
:1022A00006D0E54B1B8849F22832934240F0078163
:1022B000E24B01221A70E720102101F07BFE002082
:1022C000012101F077FE01204FF4807101F072FED0
:1022D00002204FF4E06101F06DFE032041F2300175
:1022E00001F068FE0420002101F064FE082040F2A5
:1022F000072101F05FFE0920002101F05BFE0A20AA
:10230000002101F057FE0C20012101F053FE0D20A9
:10231000002101F04FFE0F20002101F04BFE1020A4
:10232000002101F047FE1120072101F043FE122099
:10233000002101F03FFE1320002101F03BFE32207E
:10234000FFF77AFF102041F2905101F033FE112087
:1023500040F2272101F02EFE3220FFF76DFF122000
:102360009C2101F027FE3220FFF766FF13204FF477
:10237000C85101F01FFE2920232101F01BFE2B2054
:102380000E2101F017FE3220FFF756FF202000211A
:1023900001F010FE2120002101F00CFE3220FFF799
:1023A0004BFF3020072101F005FE312040F207717C
:1023B00001F000FE3220062101F0FCFD352040F244
:1023C000047101F0F7FD362041F6047101F0F2FDD1
:1023D0003720042101F0EEFD3820002101F0EAFD54
:1023E000392040F2067101F0E5FD3C2040F2017118
:1023F00001F0E0FD3D200F2101F0DCFD3220FFF770
:102400001BFF5020002101F0D5FD5120EF2101F0EC
:10241000D1FD5220002101F0CDFD532040F23F11AB
:1024200001F0C8FD60204FF4274101F0C3FD612099
:10243000012101F0BFFD6A20002101F0BBFD8020D9
:10244000002101F0B7FD8120002101F0B3FD8220C1
:10245000002101F0AFFD8320002101F0ABFD8420BD
:10246000002101F0A7FD8520002101F0A3FD9020AF
:10247000102101F09FFD9220002101F09BFD93208F
:10248000032101F097FD95204FF4887101F092FD32
:102490009720002101F08EFD9820002101F08AFD97
:1024A000072040F2331101F085FD2020002101F0CA
:1024B00081FD2120002101F07DFD01F094BA5E4BE9
:1024C0001B8849F22032934205D05B4B1B88B3F541
:1024D000134F40F0B580594B00221A7000200021A4
:1024E00001F068FD01204FF4807101F063FD0220CE
:1024F0004FF4E06101F05EFD032041F2180101F0AC
:1025000059FD0420002101F055FD082040F2022170
:1025100001F050FD0920002101F04CFD0A200021AE
:1025200001F048FD0C20012101F044FD0D200021A7
:1025300001F040FD0F20002101F03CFD6420FFF779
:102540007BFE072040F2011101F034FD6420FFF70B
:1025500073FE10204FF4865101F02CFD112007214D
:1025600001F028FD12204FF4887101F023FD1320A3
:102570004FF4306101F01EFD2920002101F01AFD09
:102580002B2044F2100101F015FD5020002101F034
:1025900011FD5120EF2101F00DFD5220002101F02D
:1025A00009FD532040F23F1101F004FD60204FF47B
:1025B0001C5101F0FFFC6120012101F0FBFC6A20AD
:1025C000002101F0F7FC8020002101F0F3FC8120C4
:1025D000002101F0EFFC8220002101F0EBFC8320C0
:1025E000002101F0E7FC8420002101F0E3FC8520BC
:1025F000002101F0DFFC9020102101F0DBFC922093
:10260000002101F0D7FC9320012101F0D3FC95209B
:102610004FF4887101F0CEFC9720002101F0CAFC34
:102620009820002101F0C6FC072040F2731101F050
:10263000C1FC01F0D8B900BF642800207305002058
:10264000C74B1B8849F23132934240F0F380C54BAF
:1026500003221A70E72041F2140101F0ABFC0120C3
:102660004FF4807101F0A6FC02204FF4007101F0DC
:10267000A1FC032041F2300101F09CFC082040F253
:10268000022101F097FC0920002101F093FC0A20AF
:10269000002101F08FFC0C20002101F08BFC0D20AB
:1026A000002101F087FC0F20002101F083FC1020A5
:1026B000002101F07FFC1120072101F07BFC12209A
:1026C000002101F077FC1320002101F073FCC820E9
:1026D000FFF7B2FD102041F2906101F06BFC112078
:1026E00040F2272101F066FC3220FFF7A5FD122001
:1026F0000C2101F05FFC3220FFF79EFD13204FF408
:10270000006101F057FC2920112101F053FC2B201E
:102710000B2101F04FFC3220FFF78EFD202000211D
:1027200001F048FC2120002101F044FC3020002170
:1027300001F040FC31204FF4837101F03BFC32206A
:10274000002101F037FC35204FF4017101F032FC1B
:10275000362041F20A6101F02DFC372040F207716A
:1027600001F028FC38204FF4837101F023FC39205C
:1027700040F2077101F01EFC3C2040F2024101F0E2
:1027800019FC3D2040F60F4101F014FC50200021BF
:1027900001F010FC5120EF2101F00CFC522000212F
:1027A00001F008FC532040F23F1101F003FC6020CF
:1027B0004FF41C5101F0FEFB6120012101F0FAFBF6
:1027C0006A20002101F0F6FB8020002101F0F2FBDD
:1027D0008120002101F0EEFB8220002101F0EAFBC4
:1027E0008320002101F0E6FB8420002101F0E2FBC0
:1027F0008520002101F0DEFB9020102101F0DAFBA2
:1028000092204FF4C06101F0D5FB0720212101F097
:10281000D1FB3220FFF710FD0720612101F0CAFB38
:102820003220FFF709FD072040F2331101F0C2FB0F
:1028300001F0D9B84A4B1B8849F61912934240F06F
:102840009380484B0D221A702820062101F0B2FB1C
:102850000020012101F0AEFB1020002101F0AAFBB5
:10286000012047F2EF2101F0A5FB02204FF4C061E7
:1028700001F0A0FB032046F6382101F09BFB11205C
:1028800046F6740101F096FB0F20002101F092FB47
:102890000B2045F2083101F08DFB0C20032101F0E3
:1028A00089FB0D200A2101F085FB0E204FF43851E1
:1028B00001F080FB1E20BE2101F07CFB25204FF49F
:1028C000004101F077FB26204FF4F04101F072FB4C
:1028D0002720782101F06EFB4E20002101F06AFBD9
:1028E0004F20002101F066FB122040F6D90101F0D3
:1028F00061FB3020002101F05DFB31204FF482713B
:1029000001F058FB32204FF4807101F053FB33206B
:1029100040F2053101F04EFB342040F2055101F048
:1029200049FB352040F2053101F044FB362040F2EE
:10293000077101F03FFB37204FF4407101F03AFB83
:102940003A204FF4905101F035FB3B204FF40061E9
:1029500001F030FB0720332101F02CFB01F043B8DC
:102960006428002073050020904B1B8841F205521B
:10297000934206D08D4B1B8840F20552934240F0A3
:1029800019818B4B09221A700720002101F012FBDC
:102990003220FFF751FC12204FF48E7101F00AFB38
:1029A000A420012101F006FB08200F2101F002FB09
:1029B0000A20082101F0FEFA0D20082101F0FAFAA0
:1029C000302040F2077101F0F5FA3120072101F0C3
:1029D000F1FA322040F2036101F0ECFA33204FF4B7
:1029E000E06101F0E7FA342040F2022101F0E2FA5E
:1029F0003520022101F0DEFA362041F60F7101F098
:102A0000D9FA372040F2077101F0D4FA38200021BA
:102A100001F0D0FA3920002101F0CCFA3A2040F23E
:102A2000077101F0C7FA3B20002101F0C3FA3C20F6
:102A3000072101F0BFFA3D20002101F0BBFA32204E
:102A4000FFF7FAFB0720012101F0B4FA172001215A
:102A500001F0B0FA3220FFF7EFFB10204FF4BD5128
:102A600001F0A8FA112040F2172101F0A3FA122078
:102A70004FF48F7101F09EFA13204FF4706101F052
:102A800099FA2A20002101F095FA29200A2101F063
:102A900091FA12204FF49F7101F08CFA502000211E
:102AA00001F088FA5120EF2101F084FA5220002130
:102AB00001F080FA532040F23F1101F07BFA6020D0
:102AC0004FF41C5101F076FA6120012101F072FAF5
:102AD0006A20002101F06EFA8020002101F06AFADC
:102AE0008120002101F066FA8220002101F062FAC3
:102AF0008320002101F05EFA8420002101F05AFABF
:102B00008520002101F056FA9020132101F052FA9D
:102B100092204FF4407101F04DFA9320052101F00D
:102B200049FA9520002101F045FA9720002101F093
:102B300041FA9820002101F03DFA01204FF4807104
:102B400001F038FA02204FF4E06101F033FA03207B
:102B500041F2300101F02EFA0420002101F02AFA9E
:102B60000C20002101F026FA0F20002101F022FAAA
:102B70002020002101F01EFA2120002101F01AFA84
:102B80000720212101F016FAC820FFF755FB072086
:102B9000612101F00FFAC820FFF74EFB072040F239
:102BA000731101F007FA00F01EBF00BF6428002077
:102BB000730500209F4B1B8848F68912934240F012
:102BC0003D819D4B05221A700020012101F0F2F990
:102BD0003220FFF731FB03204AF6A40101F0EAF9A5
:102BE0003220FFF729FB0C20002101F0E3F932200D
:102BF000FFF722FB0D2040F60C0101F0DBF932203B
:102C0000FFF71AFB0E204FF42C5101F0D3F93220BC
:102C1000FFF712FB1E20B02101F0CCF93220FFF7A4
:102C20000BFB012042F63F3101F0C4F93220FFF7DF
:102C300003FB02204FF4C06101F0BCF93220FFF722
:102C4000FBFA1020002101F0B5F93220FFF7F4FA69
:102C5000112046F2700101F0ADF93220FFF7ECFAD5
:102C60000520002101F0A6F93220FFF7E5FA062041
:102C7000002101F09FF93220FFF7DEFA16204EF610
:102C80001C7101F097F93220FFF7D6FA17200321C3
:102C900001F090F93220FFF7CFFA072040F233110C
:102CA00001F088F93220FFF7C7FA0B20002101F06C
:102CB00081F93220FFF7C0FA0F20002101F07AF9E4
:102CC0003220FFF7B9FA4120002101F073F93220D8
:102CD000FFF7B2FA4220002101F06CF93220FFF731
:102CE000ABFA4820002101F065F93220FFF7A4FA81
:102CF000492040F23F1101F05DF93220FFF79CFAC4
:102D00004A20002101F056F93220FFF795FA4B20B6
:102D1000002101F04FF93220FFF78EFA44204FF4E2
:102D20006F4101F047F93220FFF786FA4520002174
:102D300001F040F93220FFF77FFA462040F23F11C0
:102D400001F038F93220FFF777FA302040F20771AE
:102D500001F030F93220FFF76FFA31204FF40171A2
:102D600001F028F93220FFF767FA32204FF40171A1
:102D700001F020F93220FFF75FFA332040F20251D0
:102D800001F018F93220FFF757FA342040F20751CA
:102D900001F010F93220FFF74FFA35204FF401719E
:102DA00001F008F93220FFF747FA36204FF401719D
:102DB00001F000F93220FFF73FFA372040F20251CC
:102DC00001F0F8F83220FFF737FA3A2040F20231EA
:102DD00001F0F0F83220FFF72FFA3B2040F20231E9
:102DE00001F0E8F83220FFF727FA2320002101F054
:102DF000E1F83220FFF720FA2420002101F0DAF870
:102E00003220FFF719FA25204FF4004101F0D2F8E3
:102E10003220FFF711FA4F20002101F0CBF84E20AD
:102E2000002101F0C7F8112046F2680101F0C2F854
:102E300000F0D9BD6428002073050020C14B1B8819
:102E400048F69912934240F0CB80BF4B04221A708F
:102E50002820062101F0AEF80020012101F0AAF897
:102E600003204AF6A46101F0A5F80C20042101F02A
:102E7000A1F80D200C2101F09DF80E204FF42051F7
:102E800001F098F81E20B52101F094F8012043F6D6
:102E90003F3101F08FF802204FF4C06101F08AF851
:102EA0001020002101F086F8112046F6300101F0D3
:102EB00081F80520002101F07DF80620002101F0B5
:102EC00079F816204EF61C7101F074F807203321B2
:102ED00001F070F80B20002101F06CF80F200021A8
:102EE00001F068F84120002101F064F8422000213F
:102EF00001F060F84820002101F05CF8492040F220
:102F00003F1101F057F84A20002101F053F84B20FF
:102F1000002101F04FF844204FF46F4101F04AF8CE
:102F20004520002101F046F8462040F23F1101F013
:102F300041F84E20002101F03DF84F20002101F022
:102F400039F8302040F2077101F034F8312040F2B6
:102F5000022101F02FF832204FF4017101F02AF81C
:102F6000332040F2025101F025F8342040F207519D
:102F700001F020F835204FF4017101F01BF83620E4
:102F80004FF4017101F016F8372040F2025101F0C0
:102F900011F83A2040F2023101F00CF83B2040F2E7
:102FA000023101F007F82320002101F003F824206A
:102FB000002100F0FFFF25204FF4004100F0FAFF50
:102FC00026204FF4E04100F0F5FF20204BF2EB010A
:102FD00000F0F0FF27207C2100F0ECFF00F003BDA3
:102FE000584B1B8845F20842934240F0AF80564B45
:102FF00008221A7001204FF4807100F0DBFF0220DC
:103000004FF4E06100F0D6FF032041F2300100F000
:10301000D1FF0420002100F0CDFF082040F207215D
:1030200000F0C8FF0920002100F0C4FF0A200021A1
:1030300000F0C0FF0C20002100F0BCFF0D2000219B
:1030400000F0B8FF0F20002100F0B4FF3220FFF79E
:10305000F3F8072040F2011100F0ACFF3220FFF737
:10306000EBF8102041F2B06100F0A4FF1120012123
:1030700000F0A0FF1720012100F09CFF12204FF468
:103080009C7100F097FF13204FF4006100F092FF55
:103090002920092100F08EFF2A20092100F08AFF53
:1030A000A420002100F086FF5020002100F082FFC4
:1030B0005120EF2100F07EFF5220002100F07AFF26
:1030C000532040F23F1100F075FF60204FF41C5177
:1030D00000F070FF6120032100F06CFF6A200021E6
:1030E00000F068FF8020002100F064FF81200021B3
:1030F00000F060FF8220002100F05CFF83200021AF
:1031000000F058FF8420002100F054FF85200021AA
:1031100000F050FF9020132100F04CFF922000217E
:1031200000F048FF9320032100F044FF95204FF466
:10313000887100F03FFF072040F2731100F03AFF62
:1031400000F051BC6428002073050020B64B1B889A
:1031500044F23152934240F0AD80B44B07221A70D2
:103160000020012100F026FF10204FF4C56100F07F
:1031700021FF1220062100F01DFF132040F632210E
:1031800000F018FF1120402100F014FF15205021FD
:1031900000F010FF1220162100F00CFF3220FFF784
:1031A0004BF8102045F2606100F004FF3220FFF779
:1031B00043F8132042F64E2100F0FCFE01204FF4AC
:1031C000807100F0F7FE02204FF4407100F0F2FE33
:1031D000032041F2300100F0EDFE082040F2022110
:1031E00000F0E8FE0A20002100F0E4FE302000217B
:1031F00000F0E0FE312040F2024100F0DBFE322020
:103200004FF4837100F0D6FE33204FF4E06100F0FC
:10321000D1FE34204FF4827100F0CCFE352040F214
:10322000013100F0C7FE362040F2077100F0C2FE07
:10323000372040F2053100F0BDFE38204FF4027116
:1032400000F0B8FE392040F60B7100F0B3FE3220DA
:10325000FEF7F2FF4120022100F0ACFE60204FF4A7
:103260001C5100F0A7FE6120012100F0A3FE902078
:1032700040F2191100F09EFE92204FF4857100F08B
:1032800099FE9320042100F095FEA0204FF4807158
:1032900000F090FE3220FEF7CFFF072040F23311FE
:1032A00000F088FE3220FEF7C7FFA020002100F0CA
:1032B00081FE98E35C4B1B8844F23552934240F008
:1032C000B7805A4B0C221A701520302100F072FE84
:1032D0009A20102100F06EFE1120202100F06AFEDD
:1032E000102043F2284100F065FE1220022100F078
:1032F00061FE132041F2380100F05CFE2820FEF749
:103300009BFF1220122100F055FE2820FEF794FFAB
:10331000102043F2204100F04DFE132043F24501FE
:1033200000F048FE4620FEF787FF3020002100F025
:1033300041FE312040F2024100F03CFE322040F2DA
:10334000073100F037FE33204FF4417100F032FEB8
:103350003420042100F02EFE352040F2014100F01F
:1033600029FE362040F2077100F024FE372040F29B
:10337000053100F01FFE38204FF4C26100F01AFE44
:1033800039204FF4C26100F015FE01204FF4807126
:1033900000F010FE02204FF4407100F00BFE0320FD
:1033A00041F2300100F006FE082040F6080100F06E
:1033B00001FE0A20082100F0FDFD60204FF41C51A1
:1033C00000F0F8FD6120012100F0F4FD90204FF4A1
:1033D0009F7100F0EFFD92204FF4807100F0EAFD44
:1033E00093204FF4807100F0E5FDA0204FF4405190
:1033F00000F0E0FDA320102100F0DCFD07200121FA
:1034000000F0D8FD0720212100F0D4FD0720232162
:1034100000F0D0FD0720332100F0CCFD072040F262
:10342000331100F0C7FDDEE26428002073050020A0
:10343000D44B1B88472B40F0E380D34B0A221A70F1
:10344000EA20002100F0B6FDEB20202100F0B2FDC3
:10345000EC200C2100F0AEFDED20C42100F0AAFD0F
:10346000E820402100F0A6FDE920382100F0A2FD6F
:10347000F120012100F09EFDF220102100F09AFDC4
:103480002720A32100F096FD4020012100F092FDAD
:103490004120002100F08EFD4220002100F08AFD35
:1034A0004320102100F086FD44200E2100F082FD13
:1034B0004520242100F07EFD4620042100F07AFD05
:1034C0004720502100F076FD4820022100F072FDD7
:1034D0004920132100F06EFD4A20192100F06AFDF9
:1034E0004B20192100F066FD4C20162100F062FDF2
:1034F00050201B2100F05EFD5120312100F05AFDCB
:1035000052202F2100F056FD53203F2100F052FDA4
:1035100054203F2100F04EFD55203E2100F04AFD91
:1035200056202F2100F046FD57207B2100F042FD60
:103530005820092100F03EFD5920062100F03AFDF7
:103540005A20062100F036FD5B200C2100F032FDF0
:103550005C201D2100F02EFD5D20CC2100F02AFD15
:103560001B20182100F026FD1A20012100F022FD69
:103570002420152100F01EFD2520502100F01AFD09
:1035800023208B2100F016FD1820362100F012FDBB
:103590001920012100F00EFD0120002100F00AFD9C
:1035A0001F20882100F006FD3220FEF745FE1F2077
:1035B000802100F0FFFC3220FEF73EFE1F2090210C
:1035C00000F0F8FC3220FEF737FE1F20D02100F07B
:1035D000F1FC3220FEF730FE1720052100F0EAFC56
:1035E0003620002100F0E6FC2820382100F0E2FC23
:1035F0003220FEF721FE28203C2100F0DBFCF2E126
:10360000604B1B8847F28372934240F0BF805E4B51
:1036100006221A70FF20012100F0CCFCF3200821C3
:1036200000F0C8FC01204FF4807100F0C3FC0220C0
:103630004FF4E06100F0BEFC032041F2300100F0E5
:10364000B9FC082040F2023100F0B4FC082040F23E
:10365000072100F0AFFC0920002100F0ABFC0A209C
:10366000002100F0A7FC1020002100F0A3FC112095
:10367000052100F09FFC1220002100F09BFC13208C
:10368000002100F097FC3220FEF7D6FD102041F219
:10369000B02100F08FFC3220FEF7CEFD1120072173
:1036A00000F088FC3220FEF7C7FD12208B2100F0CD
:1036B00081FC3220FEF7C0FD13204FF4B85100F01A
:1036C00079FC3220FEF7B8FD2920222100F072FC9F
:1036D0003020002100F06EFC312040F2077100F034
:1036E00069FC322040F2055100F064FC352040F2C4
:1036F000071100F05FFC3620082100F05BFC37204A
:10370000002100F057FC382040F2022100F052FC6A
:1037100039204FF4837100F04DFC3C2040F202212F
:1037200000F048FC3D204FF4816100F043FC322062
:10373000FEF782FD5020002100F03CFC5120EF21DB
:1037400000F038FC5220002100F034FC532040F2FD
:103750003F1100F02FFC60204FF4274100F02AFCBD
:103760006120012100F026FC9020332100F022FC92
:103770002B200B2100F01EFC072040F2331100F03B
:1037800019FC30E16428002073050020984B40F2BA
:1037900023121A80672000F021FC03461A46944B3E
:1037A0001A80934B1B88472B40F01D81914B0B22B5
:1037B0001A704220082100F0FDFB4620B42100F0E1
:1037C000F9FB4720432100F0F5FB4820132100F0CE
:1037D000F1FB4920472100F0EDFB4A20142100F0C5
:1037E000E9FB4B20362100F0E5FB4C20032100F0E3
:1037F000E1FB4D20462100F0DDFB4E20052100F0CD
:10380000D9FB4F20102100F0D5FB5020082100F0FB
:10381000D1FB51200A2100F0CDFB0220002100F055
:10382000C9FB0320002100F0C5FB0420002100F0AB
:10383000C1FB0520EF2100F0BDFB0620002100F0B8
:10384000B9FB0720002100F0B5FB0820012100F0A2
:10385000B1FB09203F2100F0ADFB0A20FEF7ECFC94
:103860000120062100F0A6FB1620C82100F0A2FBD3
:103870002320952100F09EFB2420952100F09AFB47
:103880002520FF2100F096FB2720022100F092FB6B
:103890002820022100F08EFB2920022100F08AFB63
:1038A0002A20022100F086FB2C20022100F082FB5E
:1038B0002D20022100F07EFB3A20012100F07AFB4E
:1038C0003B20012100F076FB3C20F02100F072FB50
:1038D0003D20002100F06EFB1420FEF7ADFC3520EA
:1038E000382100F067FB3620782100F063FB3E2092
:1038F000382100F05FFB40200F2100F05BFB4120EE
:10390000F02100F057FB3820002100F053FB192074
:10391000492100F04FFB93200A2100F04BFB0A20C5
:10392000FEF78AFC2020202100F044FB1D2003210B
:1039300000F040FB1E20002100F03CFB1F2009216D
:1039400000F038FB4420532100F034FB45201021C7
:1039500000F030FB0A20FEF76FFC1C20042100F071
:1039600029FB1420FEF768FC4320802100F022FB95
:103970000520FEF761FC1B200A2100F01BFB28201C
:10398000FEF75AFC1B20122100F014FB2820FEF742
:1039900053FC90207F2100F00DFB2620042100F035
:1039A00009FB2820FEF748FC2620242100F002FB1A
:1039B00026202C2100F0FEFA2820FEF73DFC702086
:1039C000082100F0F7FA26203C2100F0F3FA5720F6
:1039D000022100F0EFFA5520002100F0EBFA572009
:1039E000002100F0E7FA3220FEF726FC80BD00BF80
:1039F000642800207305002080B584B000AF034622
:103A0000FB800023FB60204B1B780A2B03D01E4B4E
:103A10001B780B2B20D10220002100F0CBFA0320D1
:103A2000002100F0C7FA0420002100F0C3FA0520AD
:103A3000EF2100F0BFFA0620002100F0BBFA0720BA
:103A4000002100F0B7FA0820012100F0B3FA0920A4
:103A50003F2100F0AFFA03E00020002100F016F84B
:103A6000222000F07DFA0023FB6006E0FB88184668
:103A700000F084FAFB680133FB60FB68B3F5963F06
:103A8000F4D31037BD4680BD7305002080B584B0E7
:103A900000AF03460A46FB801346BB80FB88FB81D0
:103AA000BB88FB80FB89C3F59F730133BB80284B28
:103AB0001B78043B092B17D801A252F823F000BF52
:103AC000FF3A0008FF3A0008E93A0008E93A00081E
:103AD000E93A0008E93A0008153B0008153B0008E0
:103AE000E93A0008473B0008FB882020194600F00F
:103AF00061FABB882120194600F05CFA24E0FB88BB
:103B00004E20194600F056FABB884F20194600F0A7
:103B100051FA19E0FB881B0A9BB20220194600F0FB
:103B200049FAFB880320194600F044FABB881B0AB7
:103B30009BB20620194600F03DFABB8807201946C3
:103B400000F038FA00E000BF1037BD4680BD00BF6E
:103B50007305002080B582B000AF0346FB800B46A2
:103B6000BB8013467B80FB88B3F5A07F02D2BB8865
:103B7000EF2B00D90AE0FA88BB8810461946FFF7F8
:103B800085FF7B882220194600F014FA0837BD46CD
:103B900080BD00BF90B58BB000AF0446084611460B
:103BA0001A462346FB800346BB800B467B801346A8
:103BB0003B8000233B820023FB810023FB84002306
:103BC000BB8400237B8400233B840023FB830023EE
:103BD000BB8300237B8300233B830023FB820023E2
:103BE000BB8200237B827A88FB88D31A002BB8BF64
:103BF0005B423B823A88BB88D31A002BB8BF5B423A
:103C0000FB81FB88FB84BB88BB847A88FB889A4253
:103C100004D301237B8401233B8405E04FF6FF732B
:103C20007B844FF6FF733B843A88BB889A4204D367
:103C30000123FB830123BB8305E04FF6FF73FB8366
:103C40004FF6FF73BB83B7F91020B7F90E309A42D5
:103C500010DB00237B840023BB833B8A7B83B7F983
:103C60001030DA0F13445B103B83FB89FB823B8AE5
:103C7000BB820FE000233B840023FB83FB897B8313
:103C8000B7F90E30DA0F13445B103B833B8AFB829B
:103C9000FB89BB8200237B8230E0F98CBA8C3B8F9E
:103CA000084611461A46FFF755FF3A8BFB8A134424
:103CB0009BB23B83B7F91820B7F91A309A420EDB52
:103CC0003A8B7B8BD31A9BB23B83FA8C7B8C13444D
:103CD0009BB2FB84BA8CFB8B13449BB2BB84FA8CE3
:103CE0003B8C13449BB2FB84BA8CBB8B13449BB2BA
:103CF000BB847B8A9BB201339BB27B82B7F91220D3
:103D0000B7F914309A42C8DD2C37BD4690BD00BFCC
:103D100090B587B002AF0446084611461A462346BE
:103D2000FB800346BB800B467B8013463B80FA88B2
:103D30007B881344BB81BA883B8813447B81002372
:103D4000FB813EE0BA88FB89134499B2BA88FB89AB
:103D500013449CB2F888BA89BB8C00932346FFF7C2
:103D600019FF7A89FB89D31A99B27A89FB89D31A08
:103D70009CB2F888BA89BB8C00932346FFF70AFFF0
:103D8000FA88FB89134498B2FA88FB8913449AB2E3
:103D9000B9887C89BB8C00932346FFF7FBFEBA8968
:103DA000FB89D31A98B2BA89FB89D31A9AB2B98817
:103DB0007C89BB8C00932346FFF7ECFEFB89013323
:103DC000FB8197F820309BB2FA899A42BAD3143714
:103DD000BD4690BD90B585B000AF0446084611467B
:103DE0001A462346FB800346BB800B467B80134666
:103DF0003B80FA887B8813447B81BA883B881344D4
:103E00003B81BB88BB8114E0FB88FB810AE0F98918
:103E1000BA893B8C084611461A46FFF79BFEFB8980
:103E20000133FB81FA897B899A42F0D3BB89013344
:103E3000BB81BA893B899A42E6D31437BD4690BD0F
:103E400090B589B000AF0446084611461A4623468D
:103E5000FB800346BB800B46FB7013463B8007F19B
:103E60000802FB7810461946FEF7A0F80023FB83F2
:103E700039E0FB8B07F12002134413F8183CFB7662
:103E80000023BB8329E0FA7EBB8BC3F1070342FA10
:103E900003F303F00103002B0ED0FA88BB8B13440D
:103EA00099B2BA88FB8B13449AB23B8808461146F4
:103EB0001A46FFF74FFE0DE0FA88BB8B134499B208
:103EC000BA88FB8B13449AB23B8E084611461A46B9
:103ED000FFF740FEBB8B0133BB83BB8B072BD2D9D3
:103EE000FB8B0133FB83FB8B0F2BC2D92437BD46E1
:103EF00090BD00BF90B589B002AFBA601A460346C4
:103F0000FB810B46BB811346FB80BB685A1CBA6021
:103F10001B78FB75F889B989FA7DFC883B8D009385
:103F20002346FFF78DFFFB89B3F59C7F03D2FB8906
:103F30000833FB810CE0BB89DF2B05D80023FB8114
:103F4000BB891033BB8103E00023FB810023BB81CD
:103F5000BB681B78002BD8D11C37BD4690BD00BF75
:103F600080B483B000AF0346FB804FF0DE42FB8895
:103F700013800C37BD465DF8047B704780B483B076
:103F800000AF0346FB80044AFB8813800C37BD4614
:103F90005DF8047B704700BF0000016F80B400AF84
:103FA000034B1B889BB21846BD465DF8047B7047E7
:103FB0000000016F80B582B000AF03460A46FB8067
:103FC0001346BB80FB881846FFF7CAFFBB8818461C
:103FD000FFF7D4FF0837BD4680BD00BF80B582B073
:103FE00000AF0346FB80FB881846FFF7B9FFFFF7D9
:103FF000D5FF034618460837BD4680BD80B483B060
:1040000000AF78604FF020407B681B687A68516889
:104010007A68926811437A68D26811437A681269A3
:1040200011437A68526911437A68926911437A6838
:10403000D26911437A68126A11437A68526A11434D
:104040007A68926A11437A68D26A11437A68126B6D
:104050000A4340F823207B689B68082B0DD14FF062
:1040600020417B681B684FF020407A68126850F846
:10407000222042F0400241F823204FF020407B688C
:104080001B6801337A68526B11687A68526B526808
:10409000120111437A68526B9268120211437A68D6
:1040A000526BD268120411437A68526B126912057E
:1040B00011437A68526B5269120611437A68526B47
:1040C00092690A4340F823207B68DB6AB3F5804F8E
:1040D00020D116487B681B687A68926B11687A68F1
:1040E000926B5268120111437A68926B92681202C5
:1040F00011437A68926B1269120511437A68926BC8
:104100005269120611437A68926B92690A4340F829
:10411000232006E0054A7B681B686FF0704142F877
:1041200023100C37BD465DF8047B7047040100A0E6
:1041300080B483B000AF78600B46FB70FB78002B37
:104140000CD04FF020414FF020427B6852F82330D2
:1041500043F001027B6841F823200BE04FF020413F
:104160004FF020427B6852F82320054B13407A68B9
:1041700041F822300C37BD465DF8047B704700BF24
:10418000FEFF0F0080B500AFFBF7FEFF0E480121D8
:1041900044F203020D4BFDF7B5FC0D48022144F239
:1041A00003020C4BFDF7AEFC0B48032144F2030263
:1041B0000A4BFDF7A7FC0A48042144F20302094B0D
:1041C000FDF7A0FC80BD00BFE94100086429002084
:1041D0002D420008642A0020A5420008642B00201C
:1041E00031430008642C002080B584B000AF7860B3
:1041F0007B68BB73BB7B1846002100F0C9F8002028
:10420000FCF730F80023FB730BE00020FCF768F8A4
:10421000002000210022C82300F02AFAFB7B013392
:10422000FB73FB7B092BF0D9E4E700BF80B584B0BA
:1042300000AF78607B68BB60BB68DBB218460021CA
:1042400000F0A6F80020FCF70DF80123FB730CE04A
:10425000FB7B1846FBF7C8FF0020002100226423E7
:1042600000F006FAFB7B0133FB73FB7B042BEFD9D9
:104270000123FB730FE0FB7BC3F10503DBB21846A0
:10428000FBF7F0FF002000210022642300F0F0F98A
:10429000FB7B0133FB73FB7B042BECD90020FBF78A
:1042A000E1FFC9E780B584B000AF78607B68BB6090
:1042B000BB68DBB21846002100F06AF80123FB73EB
:1042C00012E0FB7B013BDBB21846FBF7CBFFFB7B2D
:1042D0001846FBF789FF002000210022642300F02C
:1042E000C7F9FB7B0133FB73FB7B042BE9D901236B
:1042F000FB7316E0FB7BC3F10603DBB21846FBF74A
:10430000B1FFFB7BC3F10503DBB21846FBF76CFF83
:10431000002000210022642300F0AAF9FB7B013376
:10432000FB73FB7B042BE5D90020FBF79BFFBFE76A
:1043300080B584B000AF78607B68BB73BB7B1846E8
:10434000002100F025F80020FBF78CFF0123FB7310
:1043500016E0FB7B1846FBF747FF002000210022F8
:10436000642300F085F9FB7B1846FBF77BFF0020F8
:1043700000210022642300F07BF9FB7B0133FB73F7
:10438000FB7B042BE5D90020FBF76CFFD6E700BFD1
:1043900080B582B000AF03463960FB71FB79013B09
:1043A000054AD35C1846396801F034F8FB791846A1
:1043B0000837BD4680BD00BF6C2C002090B583B08F
:1043C00000AF0023FB710BE0FC790120002100F01D
:1043D000D5FF03461A46054B1A55FB790133FB718D
:1043E000FB79042BF0D90C37BD4690BD6C2C002016
:1043F00080B582B000AFFCF7C7FA0120012132225C
:10440000054BFCF79FF90346FB71FB791846FCF757
:104410002FFA0837BD4680BD1D44000880B582B024
:1044200000AFFCF7C9FA0346FB71FB79002B0BD0F8
:10443000084B1B78FA799A4206D0FB79013B064A71
:10444000D35C184601F0CCF8024AFB7913700837A8
:10445000BD4680BD682C00206C2C002080B485B047
:1044600000AF786039603B68002B00D164E0354BC9
:104470001B68002B06D17B683A681A62314A7B6858
:10448000136053E02F4B1B68BB603B68FB604AE046
:10449000FA68BB681B6AD31AFB60FB68002B2EDA34
:1044A000BB689B6A002B0ED0BB689B6A7A685A6215
:1044B000BB689A6A7B689A627B68BA685A62BB6812
:1044C0007A689A620AE01F4B1A687B685A621D4B31
:1044D0001B687A689A621B4A7B6813607B685B6A18
:1044E0001A6AFB681A447B681A627B685B6A7A689E
:1044F000526A116A7A68126A8A1A1A6216E0FB68AE
:10450000002B0DDBBB685B6A002B09D17B68BA68A6
:104510009A62BB687A685A62FA687B681A6205E038
:10452000BB685B6ABB60BB68002BB1D17B680222B1
:104530005A71054B01221A701437BD465DF8047B91
:10454000704700BF74050020E600002080B483B0EF
:1045500000AF78607B689B6A002B07D17B685B6A41
:10456000002B03D1254B00221A603DE07B689B6A3B
:10457000002B14D17B685B6A204A13607B685B6AFE
:104580007A68526A116A7A68126A0A441A627B6807
:104590005B6A00229A627B6800225A6224E07B6890
:1045A0005B6A002B07D17B689B6A00225A627B689A
:1045B00000229A6218E07B689B6A7A68526A5A62A3
:1045C0007B685B6A7A68926A9A627B685B6A7A68DF
:1045D000526A116A7A68126A0A441A627B68002277
:1045E0005A627B6800229A627B684FF0FF321A623F
:1045F0000C37BD465DF8047B704700BF7405002092
:1046000080B582B000AF7860164B1B78DBB2002B10
:1046100001D0032321E07B68B3F1FF3F01D10223E6
:104620001BE07B68002B01D1002316E00E4B1B78AA
:10463000DBB2002B01D015230FE00B4B1B78DBB254
:104640000133DAB2084B1A70084B1B6818467968B8
:10465000FFF704FFFBF7A4FE002318460837BD460A
:1046600080BD00BFE4000020E50000202005002000
:1046700090B585B000AF0446084611461A46234659
:10468000FB710346BB710B467B7113467B80214B4C
:104690001B78DBB2002B01D0032336E0BB793B2B28
:1046A00006D87B793B2B03D87B88B3F57A7F01D37F
:1046B00002232AE0184B1B78DBB2002B01D0152314
:1046C00023E0FB794FF4616202FB03F1BA791346F0
:1046D0001B019B1A9B00CA187B7913444FF47A7212
:1046E00002FB03F27B884FF47A7101FB03F303F5BD
:1046F000FA730A4981FB03018911DB17CB1A1344B2
:10470000FB60F868FFF77CFF002318461437BD46AE
:1047100090BD00BFE4000020E5000020D34D6210F2
:1047200080B582B000AF1A4B1B687B6026E07B68C7
:104730001B7AFF2B02D0786800F0C8F97B68DB6930
:10474000002B04D07B68DB69184601F029F87B68F0
:104750004FF0FF321A627B685B6A0D4A13607B6818
:1047600000225A627868FCF7DDFE094B1B687B600B
:104770007B68002B02D07B6800229A627B68002B4A
:1047800003D07B681B6A002BD1D00837BD4680BDA3
:104790007405002080B500AF074B1B78DBB2012BFE
:1047A00006D9064B01221A70054B01221A7001E04E
:1047B000FFF7B6FF80BD00BFE500002070050020B8
:1047C0007105002080B485B000AF0023FB73184B47
:1047D000BB60184B7B6014E0BB687A681A60BB68EA
:1047E000FA7B1A71BA685379042161F30303537198
:1047F000BB681033BB607B6810337B60FB7B01338D
:10480000FB73FB7B122BE7D9BA685379042161F360
:1048100003035371BB6800221A60BB68FA7B1A71EC
:10482000054B034A1A601437BD465DF8047B704798
:104830007805002088050020B806002080B584B0E7
:1048400000AF03463A60FB710B46BB711A4B1B78F5
:10485000DBB20133DAB2184B1A70184B1B68002B0D
:1048600003D1FBF79DFD002322E0144B1B68FB6086
:10487000124B1B681B68114A1360FBF791FDFB7913
:1048800003F00F03D9B2FA68537961F3030353714C
:10489000BB7903F00F03D9B2FA68537961F30713B8
:1048A0005371FB683A681A60FB680022DA60FB68A3
:1048B00018461037BD4680BDE5000020B806002030
:1048C00080B584B000AF786039603B4B1B78DBB2B9
:1048D0000133DAB2384B1A707B68DB68FB607B68A7
:1048E0001A793B681A727B685B7923F00F03DBB29D
:1048F000102B15D1FB68002B03D17B683A68DA6076
:104900004EE002E0FB685B69FB60FB685B69002BC3
:10491000F8D1FB683A685A613B68FA689A613FE0EF
:104920007B685B7923F00F03DBB2202B38D1FB6867
:10493000002B03D17B683A68DA6031E0FB681A79B2
:104940003B681B799A4209D97B683A68DA603B6810
:10495000FA685A61FB683A689A6121E0FB685B6912
:10496000BB600BE0BB681A793B681B799A4200D99F
:1049700007E0BB68FB60BB685B69BB60BB68002B82
:10498000F0D1FB683A685A613B68FA689A613B6803
:10499000BA685A61BB68002B02D0BB683A689A615A
:1049A0003B6802225A71054B01221A70FBF7F8FC92
:1049B0001037BD4680BD00BFE5000020E6000020A6
:1049C00080B584B000AF78607B68DB68FB60FB6813
:1049D000002B00D174E0FB685A697B68DA607B6861
:1049E000DB68002B03D07B68DB6800229A61FB68E0
:1049F00000225A61FB68FF221A72FB681B6AB3F13E
:104A0000FF3F02D0F868FFF7A1FD7B685B7903F0F8
:104A10000F03DBB2022B0DD17B681A68FB681A61A9
:104A20007B6800221A607B68DB88013B9AB27B6856
:104A3000DA8039E07B685B7903F00F03DBB2032B8C
:104A400021D17B681B68BB60BB681A68BB68DB88C8
:104A50009B0013441A68FB681A61BB68DB8801334A
:104A60009AB2BB68DA80BB689B89013B9AB2BB688B
:104A70009A81BB68DA88BB685B899A4214D1BB68AB
:104A80000022DA8010E07B685B7903F00F03DBB271
:104A9000012B09D17B68DB88013B9AB27B68DA8005
:104AA000FB684FF0FF321A61074B1B68FA689A42A5
:104AB00003D1FB6801225A7102E0F868FCF732FD6D
:104AC0001037BD4680BD00BF2005002080B485B0F2
:104AD00000AF78607B681B7A1B01214A1344FB609E
:104AE0007B685B69002B07D17B689B69002B03D136
:104AF000FB680022DA602BE07B689B69002B0BD1FE
:104B00007B685B6900229A617B685A69FB68DA609E
:104B10007B6800225A611BE07B685B69002B07D130
:104B20007B689B6900225A617B6800229A610FE0D2
:104B30007B689B697A6852695A617B685B697A68AD
:104B400092699A617B6800229A617B6800225A61AF
:104B50007B68FF221A721437BD465DF8047B7047EC
:104B60007805002080B487B000AF786039600023FA
:104B70007B6100233B610023FB6000237B6176E0C7
:104B80007B69012202FA03F33B613B681A683B69C7
:104B90001340FB60FA683B699A4265D17B681A68EA
:104BA0007B695B00194603238B40DB431A407B681B
:104BB0001A607B681A683B681B7919467B695B0041
:104BC00001FA03F31A437B681A603B681B79012BD7
:104BD00003D03B681B79022B2ED17B689A687B69D6
:104BE0005B00194603238B40DB431A407B689A60C5
:104BF0007B689A683B685B7919467B695B0001FAC0
:104C000003F31A437B689A607B685A687B699BB29E
:104C1000194601238B40DB431A407B685A607B684E
:104C20005B683A68927911467A6992B201FA02F2A7
:104C300092B21A437B685A607B68DA687B699BB2E0
:104C40005B00032101FA03F3DB431A407B68DA605F
:104C50007B68DA683B68DB7919467B695B0001FA9F
:104C600003F31A437B68DA607B6901337B617B69FC
:104C70000F2B85D91C37BD465DF8047B704700BFFC
:104C800080B485B000AF78600B467B800023FB7357
:104C90007B681A697B881340002B02D00123FB73C9
:104CA00001E00023FB73FB7B18461437BD465DF81B
:104CB000047B704780B483B000AF78607B681B6969
:104CC0009BB218460C37BD465DF8047B704700BFA9
:104CD00080B483B000AF78600B467B807B687A88B5
:104CE0001A830C37BD465DF8047B704780B483B0EF
:104CF00000AF78600B467B807B687A885A830C37DC
:104D0000BD465DF8047B704780B483B000AF786027
:104D10000B467B807B685A697B885A407B685A6166
:104D20000C37BD465DF8047B704700BF80B485B08A
:104D300000AF78600B467B8013467B700023FB60DE
:104D40000023BB607B787A8802F0070292009340D0
:104D5000FB607B88DB089BB218467B88DB089BB234
:104D60001A467B68083253F822207B8803F0070339
:104D70009B0019460F238B40DB4302EA03017B684B
:104D800000F1080243F822107B88DB089BB21A4628
:104D90007B68083253F82220FB681343BB607B8892
:104DA000DB089BB21A467B680832B96843F82210C8
:104DB0001437BD465DF8047B704700BF80B500AF77
:104DC000154A154BD3F8883043F47003C2F8883085
:104DD000124A124B1B6843F0010313600F4B002271
:104DE0009A600E4A0D4B1B6823F0847323F48033C2
:104DF00013600A4B0A4A5A60084A084B1B6823F49E
:104E000080231360054B0022DA6000F00BF8024BA0
:104E10004FF000629A6080BD00ED00E00038024073
:104E20001030002480B400AF234A234B1B6C43F0A6
:104E300080531364214A214B1B6843F48043136061
:104E40001D4A1D4B9B6893601B4A1B4B9B6843F498
:104E500000439360184A184B9B6843F4A053936037
:104E6000154B174A5A60144A134B1B6843F0807362
:104E7000136000BF104B1B6803F00073002BF9D0C8
:104E8000104B40F205721A600B4A0B4B9B6823F0E3
:104E900003039360084A084B9B6843F00203936046
:104EA00000BF054B9B6803F00C03082BF9D1BD46EE
:104EB0005DF8047B704700BF00380240007000407E
:104EC00010540007003C024080B582B000AF0120C2
:104ED0000121FDF711F8FF233B6000233B71002304
:104EE000FB713B4603481946FFF73CFE0837BD46B9
:104EF00080BD00BF0000024080B582B000AF4020FE
:104F00000121FCF7F9FF4FF400633B6000233B7184
:104F10000123FB713B460B481946FFF723FE4FF474
:104F200080433B6001233B7102237B710023BB71F3
:104F30000023FB713B4603481946FFF713FE083771
:104F4000BD4680BD0018024080B584B000AF4FF46C
:104F500080700121FDF70CF82923BB800023FB8022
:104F60004FF6FF73BB600023BB810023BB733B1D67
:104F70000548194600F0BAFE0348012100F02CFF55
:104F80001037BD4680BD00BF0020004080B500AF97
:104F900003484FF40061FFF773FE0346184680BDD7
:104FA0000018024080B500AF02484FF48041FFF77F
:104FB0008FFE80BD0018024080B500AF02484FF45C
:104FC0008041FFF793FE80BD0018024080B584B099
:104FD00000AF78600023FB730023BB810848FFF714
:104FE00069FE0346BB810648FFF764FE0346FB7378
:104FF000FB7B9AB27B681A801037BD4680BD00BF2C
:105000000000024080B500AF024800F0D9FE034620
:10501000184680BD0020004080B584B000AF034634
:105020003960FB71FB79132B01D9012342E0FB7935
:105030001B01224A1344FB60FB685B7903F00F03FA
:10504000DBB2032B01D0012334E0FB681B68BB609B
:10505000BB689A89BB685B899A4201D1082329E021
:10506000174B1B78DBB20133DAB2154B1A70BB68F1
:105070001A68BB681B899B0013443A681A60BB68B6
:105080001B8901339AB2BB681A81BB689B890133C3
:105090009AB2BB689A81BB681A89BB685B899A42DD
:1050A00002D1BB6800221A81F868FFF789FCFBF780
:1050B00077F9002318461037BD4680BD78050020DB
:1050C000E500002080B400AF62B600BFBD465DF8C9
:1050D000047B704780B400AF72B600BFBD465DF878
:1050E000047B7047A0F11C0080F30988704700BF63
:1050F000024B1B68024A11681960704704000020C7
:10510000080000200B4B19680B4A126891420AD024
:10511000EFF3098020E9F00F08601A601068B0E82A
:10512000F00F80F30988054B002018704EF0040E34
:1051300070470000200500201C050020E50000202D
:1051400080B586B000AF0346FB714B4B1B78DBB2DA
:10515000002B01D003238BE0484B1B78FA799A424D
:1051600001D3012384E0464B1B78DBB20133DAB272
:10517000434B1A70FB79DB00424A1344FB60FB6827
:105180009B781A462C2303FB02F33F4A13447B61AE
:105190007B69FF22DA71FB685B68002B08D1FB6832
:1051A00000225A70FB68FF229A70FBF7F9F85EE064
:1051B000FB689B78FB72FB68DB78FA7A9A4219D11C
:1051C000FB685B687B617B691B79FB740EE07B6924
:1051D0001B79FA7C9A4206D97B691B79FB747B693F
:1051E0009A79FB68DA707B695B6A7B617B69002B6B
:1051F000EDD107E0FB7A244A2C2101FB03F3134491
:105200001B79FB74FB68FF229A70FB681B78FA7AA3
:1052100010461946FCF7C8FAFB685B687B617B693E
:105220005A6AFB685A607B691A79FB681A707B6955
:105230009A79FB689A707B691B79FA7C9A4208D04C
:105240007B691B791846FCF71DF9FB7C1846FCF7B7
:10525000BDF87B69FA7C1A717B6900225A627B690E
:1052600000229A627869FCF75DF9FBF799F8002350
:1052700018461837BD4680BDE4000020BC0600205B
:10528000E5000020C00600202801002080B586B07F
:1052900000AF78607B68DB79DB00374A13443B6101
:1052A0007B685B6A002B07D17B689B6A002B03D16C
:1052B0003B6900225A6027E07B685B6A002B07D1BC
:1052C0007B689B6A00225A627B6800229A621BE01C
:1052D0007B689B6A002B07D17B685B6A00229A621D
:1052E0007B6800225A620FE07B685B6A7A68926A88
:1052F0009A627B689B6A7A68526A5A627B6800226B
:105300009A627B6800225A627B68FF22DA713B69ED
:10531000DA787B689B799A422BD13B695B687B602A
:105320003B691B78FB753B699A783B69DA700EE044
:105330007B681B79FA7D9A4206D97B681B79FB75DD
:105340007B689A793B69DA707B685B6A7B607B6813
:10535000002BEDD13B699B78FB733B69FF229A7070
:10536000FA7BFB7D10461946FCF71EFA3B69FA7B77
:105370009A701837BD4680BDC006002080B584B045
:1053800000AF03460A46FB711346BB711F4B1B78E7
:10539000DBB20133DAB21D4B1A700023FB732AE033
:1053A0001B4B9B68FA7B012101FA02F21340002B90
:1053B0001ED1174B9B68FA7B012101FA02F21343BD
:1053C000134A9360124B1B68B979FA7B01FA02F217
:1053D00013430F4A13600E4B5B68F979FA7B01FAAD
:1053E00002F213430A4A5360FAF7DAFFFB7B08E044
:1053F000FB7B0133FB73FB7B1F2BD1D9FAF7D0FF6B
:10540000FF2318461037BD4680BD00BFE5000020D1
:105410001007002080B58AB000AF03463960FB71E9
:10542000554B1B78DBB2002B01D00323A0E0534B7C
:105430001B78DBB2002B01D0152399E0FB791F2BE1
:1054400001D9012394E04E4B9B68FA79012101FABE
:1054500002F21340002B01D1012389E0474B1B7856
:10546000DBB20133DAB2454B1A70454B7B627B6A83
:105470001B68FA79012101FA02F21340002B0FD0C8
:105480007B6A1A687B6A5B68F979012000FA01F18E
:105490000B40DB431A407B6A1A60FAF781FF66E033
:1054A000384B1B683B623B68002B2ED1FB790122F5
:1054B00002FA03F31A4607F10C03184611460222BA
:1054C00000F008F93B6A02225A712F4B01221A7030
:1054D000FAF766FF3B6A0022DA61284B1B78DBB2E1
:1054E0000133DAB2254B1A707B6A1A68FB79012105
:1054F00001FA03F319467B6A5B680B40DB431A40F1
:105500007B6A1A60FAF74CFF31E0FB79012202FA5C
:1055100003F31A4607F10C0318461146022200F065
:10552000D9F8386A3968FEF799FFFAF739FF3B6A0C
:10553000DB69002B01D105231AE03B6A0022DA6106
:105540000E4B1B78DBB20133DAB20C4B1A707B6A5C
:105550001A68FB79012101FA03F319467B6A5B683B
:105560000B40DB431A407B6A1A60FAF719FF0023ED
:1055700018462837BD4680BDE4000020E500002025
:105580001007002020050020E600002080B485B030
:1055900000AF0346FB71114BFB60FB791F2B01D958
:1055A000012315E0FB689B68FA79012101FA02F2F8
:1055B0001340002B01D101230AE0FB681B68FA7934
:1055C000012101FA02F2D2431A40FB681A6000235B
:1055D00018461437BD465DF8047B7047100700205D
:1055E00080B584B000AF0346FB71384BBB60FB79DC
:1055F0001F2B01D9012364E0BB689B68FA79012164
:1056000001FA02F21340002B01D1012359E0BB68DB
:105610001B68FA79012101FA02F21340002B01D034
:1056200000234EE0BB681B68FA79012101FA02F2FF
:105630001A43BB681A60264B1B78DBB20133DAB21F
:10564000234B1A70BB68DB68FB6034E0FB681B7C93
:10565000002B17D1FB689A68BB681B681A40FB686F
:105660009B689A4224D1F86800F070F8F860BB6833
:105670005B68FA79012101FA02F21340002B00D095
:105680001CE018E0FB689A68BB681B681340002B9D
:105690000ED0F86800F05AF8F860BB685B68FA79D9
:1056A000012101FA02F21340002B00D006E002E0D3
:1056B000FB681B68FB60FB68002BC7D1FAF770FE24
:1056C000002318461037BD4680BD00BF10070020DC
:1056D000E500002080B487B000AFF860B9601346E1
:1056E000FB71184B7B61184B1B68FA68DA61164B2B
:1056F0001A68FB68DA60FB68BA689A60FB68FA7936
:105700001A747B691B69002B09D1FB6800221A609F
:10571000FB6800225A607B69FA68DA600AE07B69FC
:105720001B69FA681A607B691A69FB685A60FB6832
:1057300000221A607B69FA681A611C37BD465DF861
:10574000047B7047100700202005002080B584B03E
:1057500000AF7860786800F023F87B68DB68FB6056
:10576000FB681B6AB3F1FF3F02D0F868FEF7EEFE5C
:10577000FB684FF0FF32DA61084B1B68FA689A4207
:1057800003D1FB6801225A7102E0F868FBF7CAFEF8
:105790007B681B6818461037BD4680BD2005002079
:1057A00080B483B000AF78607B681B68002B0AD19F
:1057B0007B685B68002B06D1194B0022DA60184B1E
:1057C00000221A6123E07B681B68002B08D17B68EC
:1057D0005B68134A13617B685B6800221A6016E0FD
:1057E0007B685B68002B08D17B681B680C4AD36020
:1057F0007B681B6800225A6009E07B681B687A6836
:1058000052685A607B685B687A6812681A607B68C5
:10581000DB680022DA610C37BD465DF8047B704717
:105820001007002080B487B000AFF860B9607A60DC
:105830007B687B617B691A1F7A614FF080721A6006
:105840007B691A1F7A61FA681A607B696FF001023E
:105850001A607B69143B7B61BA687B691A607B695B
:10586000203B7B617B6918461C37BD465DF8047B95
:10587000704700BF80B500AF1F4B1B78DBB2013310
:10588000DAB21D4B1A701D4BD3E90023013243F1EC
:1058900000031A49C1E90023194B1B68002B10D0E3
:1058A000174B1B681B6A012B05D9154B1B681A6A1D
:1058B000013A1A6205E0124B1B6800221A62FEF7D9
:1058C00069FF104B1B68002B10D00E4B1B685B68E8
:1058D000012B05D90B4B1B685A68013A5A6005E049
:1058E000084B1B6800225A60FBF736F8064B012272
:1058F0001A70FAF755FD80BDE5000020280700204A
:105900007405002018010020E600002080B584B056
:1059100000AF0346FB800B46BB801346FB70FA8842
:10592000BB889A4201D9FF231BE0FB78012B04D0EE
:10593000FB78022B01D0FF2313E0FB7801201946EE
:105940000022FEF77BFFF860FB68002B01D1FF23EC
:1059500007E0FB68FA88DA80FB68BA881A81FB687E
:105960001B7918461037BD4680BD00BF80B584B096
:1059700000AF03463960FB71324B1B78DBB2002B62
:1059800001D003235AE0FB79132B01D9012355E001
:10599000FB791B012C4A1344FB60FB685B7903F025
:1059A0000F03DBB2012B01D0012347E0274B1B780B
:1059B000DBB2002B01D0152340E0244B1B78DBB277
:1059C0000133DAB2214B1A70FB68DB88002B09D057
:1059D000FB68DB88013B9AB2FB68DA80FAF7E0FCEF
:1059E00000232BE0FAF7DCFC194B1B68BB603B681B
:1059F000002B08D1F868B968FEF762FFBB68002287
:105A00001A6100231AE0114B1B78DBB20133DAB2C2
:105A10000E4B1A70F868B968FEF752FFB86839681B
:105A2000FEF71CFDFAF7BCFCBB681B69002B01D11B
:105A3000052303E0BB6800221A61002318461037D3
:105A4000BD4680BDE400002078050020E500002070
:105A50002005002080B584B000AF0346FB71FB79C0
:105A6000132B01D9012328E0FB791B01154A1344AC
:105A7000FB60FB685B7903F00F03DBB2012B01D005
:105A800001231AE0FB68DA88FB681B899A4201D17E
:105A9000062312E00C4B1B78DBB20133DAB20A4B5F
:105AA0001A70FB68DB8801339AB2FB68DA80F86809
:105AB000FEF786FFFAF774FC002318461037BD4640
:105AC00080BD00BF78050020E500002080B500AF54
:105AD000002001210122FFF719FF03461A460A4B55
