:020000040800F2
:10000000E0730020C91A0008311B0008311B0008EA
:10001000311B0008311B0008311B000800000000E4
:10002000000000000000000000000000311B00087C
:10003000311B000800000000314E00084D5500083B
:10004000311B0008311B0008311B0008311B000860
:10005000311B0008311B0008311B0008311B000850
:10006000311B0008311B0008311B0008311B000840
:10007000311B0008311B0008311B0008311B000830
:10008000311B0008311B0008311B0008311B000820
:10009000311B0008311B0008311B0008311B000810
:1000A000311B0008311B0008311B0008311B000800
:1000B000311B0008311B0008311B0008311B0008F0
:1000C000311B0008311B0008311B0008311B0008E0
:1000D000311B0008311B0008311B0008311B0008D0
:1000E000311B0008311B0008311B0008311B0008C0
:1000F000311B0008311B0008311B0008311B0008B0
:10010000311B0008311B0008311B0008311B00089F
:10011000311B0008311B0008311B0008311B00088F
:10012000311B0008311B0008311B0008311B00087F
:10013000311B0008311B0008311B0008311B00086F
:10014000311B0008311B0008311B0008311B00085F
:10015000311B0008311B0008311B0008311B00084F
:10016000311B0008311B0008311B0008311B00083F
:10017000311B0008311B0008311B0008311B00082F
:10018000311B0008311B000880B400AF0C4A0D4B36
:100190001A600B4BC8330B4A53600B4B084A1A606A
:1001A000094B1B6800221A60074B1B6800225A602B
:1001B000054B1B6800229A60BD465DF8047B7047C2
:1001C00048040020140500201005002080B500AF71
:1001D0000E4B1B78DBB2012B10D10D4B1B78012B82
:1001E00001D101F0A9FC0B4B1B78DBB2012B01D133
:1001F00001F082FA054B00221A7006E0034B1B78CF
:10020000DBB2013BDAB2014B1A7080BD1D05002044
:10021000B00900201E05002080B500AF154B164A1E
:100220001A60164B07221A60154A154B1B6843F0DB
:100230007F431360134A134B1B686FEA03436FEA53
:100240001343136000F0ACFD04F038F8FFF79CFF97
:100250000D4B1B78DBB20133DAB20B4B1A700B4833
:10026000002144F240020A4B01F00CFB084804F064
:10027000CFFD80BD14E000E03F90020010E000E000
:100280001CED00E020ED00E01D05002031570008C6
:100290005009002080B500AF094B0A4A1A60084B8C
:1002A0001B68094A1360064B1B6801225A71044BF4
:1002B0001B68184601F0A0F8FFF788FF80BD00BF5B
:1002C00060090020680500205C09002090B587B017
:1002D00000AF0346FB71FA796D4913465B00134486
:1002E000DB000B445B68FB60FB68002B00D1CCE0BB
:1002F000684B1B78DBB20133DAB2664B1A70664B7F
:100300001B68002B09D1FA7913465B001344DB000C
:100310005F4A1344604A1360B5E05F4B1B687B6122
:10032000FB683B61ABE03A697B695B68D31A3B6170
:100330003B69002B7CDA7B695B69002B28D07B69E9
:100340005969FA7913465B001344DB00504A1344A1
:100350000B61FA797B6959694D4813465B00134478
:10036000DB00034410335960FA79494913465B00B6
:100370001344DB000B4410337A691A60FA79134690
:100380005B001344DB00424A1A447B695A611DE05A
:10039000FA79414B19683E4813465B001344DB0071
:1003A0000344103319603C4B1968FA7913465B001B
:1003B0001344DB00364A13444B61FA7913465B0061
:1003C0001344DB00324A1344334A1360FA79F97953
:1003D0002F480B465B000B44DB00034410331B68C3
:1003E00059683B6919442A4813465B001344DB00F3
:1003F00003445960FA79264913465B001344DB0035
:100400000B4410331968FA79214813465B001344F2
:10041000DB00034410331B685868FA791C4C134600
:100420005B001344DB0023445B68C31A4B602AE083
:100430003B69002B20DB7B691B69002B1CD1FA79FF
:10044000134913465B001344DB000B4410337A69F5
:100450005A60FA7913465B001344DB000C4A1A44D5
:100460007B691A61FA793969094813465B001344BC
:10047000DB000344596006E07B691B697B617B6993
:10048000002B7FF450AFFFF7A1FE1C37BD4690BD97
:10049000200500201D0500205005002080B584B0F7
:1004A00000AF0346FB71FA7913465B001344DB008F
:1004B0002C4A1344FB602C4B1B78DBB20133DAB2BD
:1004C000294B1A70FB685B69002B07D1FB681B691D
:1004D000002B03D1254B00221A603DE0FB685B69CD
:1004E000002B14D1FB681B69204A13601F4B1B684B
:1004F00000225A61FB681B69FA6812695168FA6840
:1005000052680A445A60FB6800221A6124E0FB68C2
:100510001B69002B07D1FB685B6900221A61FB682D
:1005200000225A6118E0FB685B69FA6812691A6177
:10053000FB681B69FA6852695A61FB681B69FA68B3
:1005400012695168FA6852680A445A60FB680022CE
:100550001A61FB6800225A61FFF738FE1037BD466A
:1005600080BD00BF200500201D0500205005002093
:1005700080B586B000AFB9607A603B600346FB731C
:10058000FB7B002B04D0FB7B012B01D0FF237BE006
:100590003B68002B01D1FF2376E03D4B1B78DBB29B
:1005A0000133DAB23A4B1A700023FB7566E0FB7D2B
:1005B000012202FA03F31A46364B1B681340002B44
:1005C00059D1FB7D012202FA03F31A46314B1B6815
:1005D0001343304A1360FFF7F9FDFA7D2E491346A5
:1005E0005B001344DB000B44FA7D1A70FA7D2A4944
:1005F00013465B001344DB000B44FA7B5A70FA7D10
:10060000254913465B001344DB000B4401229A701A
:10061000FA7D214913465B001344DB000B44BA68A2
:100620005A60FA7D1C4913465B001344DB000B44FF
:1006300008337A681A60FA7D174913465B00134441
:10064000DB000B4408333A685A60FA7D12491346BE
:100650005B001344DB000B44103300225A60FA7D28
:100660000D4913465B001344DB000B44103300229A
:100670001A60FB7D08E0FB7D0133FB75FB7D012BE0
:1006800095D9FFF7A3FDFF2318461837BD4680BD57
:100690001D050020540500202005002080B582B0F3
:1006A00000AF0346FB71FB79012B01D9012325E043
:1006B000FB79012202FA03F31A46124B1B6813401E
:1006C000002B01D1012319E0FA790F4913465B0091
:1006D0001344DB000B449B78002B01D100230DE079
:1006E000FA79094913465B001344DB000B440022EE
:1006F0009A70FB791846FFF7E9FD00231846083782
:10070000BD4680BD540500202005002080B582B084
:1007100000AF1B4B1B687B6027E07B685B78002B7E
:100720000BD17B681B781846FFF7B8FE7B68012267
:100730009A707B68DB68984714E07B685B78012BD4
:1007400010D17B681B781846FFF7A8FE7B689A6873
:100750007B685A607B681B781846FFF7B7FD7B689B
:10076000DB689847064B1B687B607B68002B03D0D7
:100770007B685B68002BD0D00837BD4680BD00BFCA
:100780005005002080B500AF074B1B78DBB2012B72
:1007900006D9064B01221A70054B01221A7001E09E
:1007A000FFF7B4FF80BD00BF1D050020B009002089
:1007B000B209002080B582B000AF1020012101F005
:1007C00059FA7C233B6000233B710123FB713B46BC
:1007D0000348194603F042FF0837BD4680BD00BFFD
:1007E0000010024080B582B000AF0023FB711948B1
:1007F000042103F0C1FF0346002B01D10123FB714B
:100800001448082103F0B8FF0346002B01D102234E
:10081000FB711048102103F0AFFF0346002B01D1FC
:100820000323FB710B48202103F0A6FF0346002B96
:1008300001D10423FB710748402103F09DFF0346CB
:10084000002B01D10523FB71FB7918460837BD4603
:1008500080BD00BF0010024080B485B000AF78605A
:100860000B46FB700023FB730023FB7308E0FB7B4C
:100870009B007A68134400221A60FB7B0133FB73F0
:10088000FA7BFB789A42F2D31437BD465DF8047BBD
:10089000704700BF80B586B000AF78603960002334
:1008A000BB6000233B610123FB6000237B6120E0F0
:1008B000FB68002B0AD07B69BB607B699B007A6870
:1008C00013441B683B610023FB600FE03A697B69BE
:1008D0009B0079680B441B689A4207D87B69BB6010
:1008E0007B699B007A6813441B683B617B69013319
:1008F0007B617B693E2BDBDD00237B6145E07B690F
:100900009B007A6813443A691A601B68002B0FD069
:100910003B6850339AB27B699BB2C3F1DC039BB254
:100920001046194601224FF4784303F0AFF829E04E
:100930007B699B007A6813441A683B69D90F0B44A2
:100940005B109A420FD93B6850339AB27B699BB2D5
:10095000C3F1DC039BB21046194601224FF6E07347
:1009600003F094F80EE03B6850339AB27B699BB277
:10097000C3F1DC039BB21046194601224FF4FC631D
:1009800003F084F87B6901337B617B693E2BB6DD24
:100990001837BD4680BD00BF80B582B002AF4FF6AC
:1009A000FF7002F0E7FE1F2300930A20DC210A22D9
:1009B000002302F0ADFF1F2300934FF4A070DC2151
:1009C0000022DC2302F0A4FFBD4680BD80B487B0C6
:1009D00000AFB9607A603B600346FB730023FB7590
:1009E0000023BB7500237B75FB7B23F07F03FB7526
:1009F000FB7DDB09FB75FB7B03F07E03BB75BB7DD9
:100A00005B08BB75FB7B03F001037B75BB68FA7D5C
:100A10001A707B68BA7D1A703B687A7D1A701C3731
:100A2000BD465DF8047B704780B500AF01F0E2FA87
:100A30001F2002F09FFE03480021034A034B00F0F1
:100A400021FF80BD510A000803000400901B002014
:100A500080B584B000AF7860174B1B78002B12D0A4
:100A600016480021164A174B00F00CFF0346FB7393
:100A70000520002103F008FAFB7B184600F094FFE4
:100A80000D4B00221A70104800210D4A0D4B00F04A
:100A9000F9FE0346FB730520002103F0F5F9FB7B0B
:100AA000184600F081FF0020002100224FF4FA7365
:100AB00003F05AFBD0E700BF00000020CD0A000879
:100AC00001000400902B0020050C000880B58EB0BA
:100AD00002AF78600023FB854FF6FF7002F04AFEFC
:100AE0004FF6FF7300930A2014213B4A1F2303F0A3
:100AF00083F84FF6FF7300930A202021374A1F2303
:100B000003F07AF84FF6FF7300930A202C21344A41
:100B10001F2303F071F84FF6FF7300930A2038216A
:100B2000304A1F2303F068F84FF6FF7300930A2042
:100B300044212D4A1F2303F05FF84FF6FF73009303
:100B40000A205021294A1F2303F056F84FF6FF735D
:100B500000930A205C21264A1F2303F04DF84FF62C
:100B6000FF7300930A2068211E4A1F2303F044F8F4
:100B70004FF6FF7300930A2074211E4A1F2303F0CF
:100B80003BF81D4B1B78002B09D04FF6FF730093E9
:100B90000A209121194A1F2303F02EF809E04FF68D
:100BA000FF7300930A209121154A4FF6FF7303F05B
:100BB00023F8114B1B78002B0CBF01230023DBB261
:100BC0001A460D4B1A700020002100224FF4FA73D0
:100BD00003F0CAFAD5E700BF0464000828640008DF
:100BE000386400085C6400086C64000894640008C1
:100BF000A4640008CC64000858050020EC640008D8
:100C00000065000880B5CAB000AF3B1D1860002326
:100C1000A7F820310023A7F81E310023A7F82631BA
:100C20000023A7F824315A4B1B685B08594AA2FBE2
:100C300003231B09A7F81C310023A7F82231B7F8BA
:100C40001C31A7F81A310023C7F81031FFF7A4FEB2
:100C500007F10C0318464021FFF7FEFD4E4B1A78B2
:100C600007F20F13104600211A4603F0BDFFC7F824
:100C70001401D7F814311B88A7F82031D7F81431A4
:100C80005B88A7F81E31B7F81E21B7F826319A42C3
:100C900003D30023A7F8243104E0B7F82631DB435F
:100CA000A7F82431B7F81E213C4B1B681A44B7F84B
:100CB00024311344394A1360384B1A68344B1B688B
:100CC0009A4252D8B7F82221344B1B689A4222D854
:100CD000B7F81A21314B1B689A421CD3B7F8203160
:100CE000D8B207F5867107F586735A1C07F5867327
:100CF0000233FFF76BFE97F80D31194697F80D3167
:100D00001A4607F10C0353F822305A1C07F10C0362
:100D100043F8212037E007F10C0207F588731046ED
:100D20001946FFF7B7FD07F10C0318464021FFF7FE
:100D300093FDD7F810310133C7F81031B7F81A31E5
:100D4000A7F82231D7F8103101339BB2B7F81C2134
:100D500012FB03F3A7F82231D7F81031B3F59F7FC8
:100D600011D10023C7F810310DE007F10C0318462C
:100D70004021FFF771FDFFF70FFE0023C7F8103188
:100D8000064B00221A60B7F81E31A7F8263165E736
:100D9000040000204FD1C219D45B00206005002060
:100DA00080B485B000AF1C4B00221A701B4BBB6097
:100DB0001B4B7B600023FB7319E0BB68FA7B9A71C5
:100DC000BB6803225A71BB687A685A62FB7B154A7A
:100DD000FF21D154FB7B144AFF21D154BB682C3333
:100DE000BB607B682C337B60FB7B0133FB73FB7B3D
:100DF0000F2BE2D9FB7B0C4AFF21D154BB68FA7B55
:100E00009A71BB6800225A62084B044A1A60143770
:100E1000BD465DF8047B70479453002068050020B0
:100E20009405002070090020B053002054090020D0
:100E300080B485B000AF03463960FB710023BB73FB
:100E4000194B1B78FB7321E0BB7B7B73BA7BFB7B6D
:100E50001344DA0F13445B10BB73BB7B134AD35CA0
:100E6000FA799A4204D13B68BA7B1A70012315E0E3
:100E7000BB7B0E4AD35CFA799A4204D2BB7BFB73EC
:100E80007B7BBB7302E0BB7B0133BB73BA7BFB7B19
:100E90009A42D9D13B68BA7B1A700023184614379E
:100EA000BD465DF8047B704794530020B05300208A
:100EB00080B485B000AF0346FB71FB795B09FB731F
:100EC000FB7903F01F03BB73FB7B404A52F82330CE
:100ED000BB60BB68002B6AD0BB7BDB087B737B7B72
:100EE000DB00FF2202FA03F31A46BB681340002B13
:100EF00053D07B7BDB00F02202FA03F31A46BB6877
:100F00001340002B1FD0BB7B3B7315E097F90C30CF
:100F1000012202FA03F31A46BB681340002B06D0E5
:100F2000FB7B5B01DAB23B7B1344DBB247E03B7BEC
:100F3000DBB2013BDBB23B7397F90C207B7BDB0020
:100F400004339A42E2DABB7B03F00403002B05D0A2
:100F5000BB7B43F00303DBB2043BBB73BB7B3B7344
:100F600015E097F90C30012202FA03F31A46BB6828
:100F70001340002B06D0FB7B5B01DAB23B7B1344B2
:100F8000DBB21CE03B7BDBB2013BDBB23B7397F98E
:100F90000C207B7BDB009A42E3DA7B7BDB00DBB25D
:100FA000013BBB737B7B5A1E7A73002B97D11F23A7
:100FB000BB73FB7B5A1EFA73002B85D1FF231846A7
:100FC0001437BD465DF8047B704700BFAC5300206A
:100FD00080B485B000AF0346FB710023BB730023D0
:100FE000BB60FB795B09BB730023FB730AE0FB7BEF
:100FF000012202FA03F31A46BB681343BB60FB7B72
:101000000133FB73FB7903F01F03DBB2FA7B9A42D7
:10101000EDD3BB7B204A52F82330BA681340BB6043
:10102000FB79FB7325E0FB7B03F01F03DBB2002B96
:101030000DD1FA7BFB799A4209D0BB7B5A1CBA735B
:101040001946154ABB6842F821300023BB60FB7B80
:10105000124AD35CFF2B09D0FB7B03F01F03012254
:1010600002FA03F31A46BB681343BB60FB7B0133F0
:10107000FB730B4B1B78FA7B9A42D4D3BB7B5A1C75
:10108000BA731946044ABB6842F821301437BD468A
:101090005DF8047B704700BFAC530020700900204E
:1010A0009453002080B483B000AF0346FB71FB79FA
:1010B0005B09DBB21A460A4B53F82230FA7902F088
:1010C0001F02012101FA02F21340002B01D100237B
:1010D00000E0012318460C37BD465DF8047B7047DD
:1010E000AC53002080B485B000AF03460A46FB71C4
:1010F0001346BB71FB795B09DBB21A46124B53F8FE
:101100002230FB60FB7903F01F03012202FA03F394
:10111000DB431A46FB681340FB60BA79FB7903F0A6
:101120001F0302FA03F31A46FB681343FB60FB79C3
:101130005B09DBB21946044AFB6842F821301437D8
:10114000BD465DF8047B7047AC53002080B584B089
:1011500000AF0346FB71FA7907F10E0310461946FA
:10116000FFF766FE0346002B39D1224B1B78FB7339
:1011700017E0FB7BFA7B013A1F49895C1E4AD15478
:10118000FB7BFA7B013A1D49895C1C4AD154FB7BED
:10119000FA7B013A1A49895C194AD154FB7B013B1D
:1011A000FB73BB7BFA7B9A42E3D8BB7B1946124A9E
:1011B000FB795354BB7B1A46104B01219954BB7BDE
:1011C0001A460F4BFF2199540A4B1B780133DAB2B0
:1011D000084B1A70BB7B1846FFF7FAFE06E0BB7B94
:1011E000064AD25C0132D1B2044AD1541037BD460E
:1011F00080BD00BF94530020B053002098530020BE
:101200007009002080B584B000AF0346FB71FA7905
:1012100007F10E0310461946FFF70AFEBB7B1D4A75
:10122000D25C013AD1B21B4AD154BB7B1A46194B4E
:101230009B5C002B2AD1BB7BFB7317E0FB7BFA7B0B
:1012400001321549895C144AD154FB7BFA7B013287
:101250001049895C0F4AD154FB7BFA7B01320F495C
:10126000895C0E4AD154FB7B0133FB73FA7B0C4B38
:101270001B78013B9A42E1DB094B1B78013BDAB258
:10128000074B1A70BB7B1846FFF7A2FE1037BD460E
:1012900080BD00BF98530020B0530020700900208B
:1012A0009453002080B586B000AF78607B681B79CE
:1012B000FB747B6800225A71484B1B687B617B6919
:1012C0001B79FA7C9A421ED17A697B689A421AD0BD
:1012D0007B69002B17D0424BD3E90001414BD3E986
:1012E0000023994208BF90420DD27B695B8998B276
:1012F0004FF000013B4BD3E90023121843EB0103ED
:101300003749C1E90023FA7C07F10B03104619465F
:10131000FFF78EFDFB7A1846FFF7C4FE0346012B4C
:1013200011D1FB7A1A46304B9B5C1A462C2303FBE7
:1013300002F32E4A13447B61FB7A1A467B68997943
:10134000294B995434E0FB7A1A467B689979264BED
:101350009954FB7A1846FFF7ABFD0346BB74FB7A42
:1013600018460121FFF7BEFEBB7CFF2B16D1204B98
:101370001B687B611F4B01221A707B69002B03D114
:101380001B4A7B68136025E07B687A695A627B6937
:101390007A689A62164A7B6813601BE0BB7C124A2B
:1013A000D35C1A462C2303FB02F3104A13447B61DF
:1013B0007B695B6AFB607B68FA685A627B697A6862
:1013C0005A627B687A699A62FB68002B02D0FB68DC
:1013D0007A689A621837BD4680BD00BF6009002058
:1013E00068090020880B0020700900206805002093
:1013F000580900201E05002080B584B000AF786039
:101400000023FB737B681B79BB73BA7B07F10D0369
:1014100010461946FFF70CFD7B685B6A002B09D16B
:101420007B689B6A002B05D13D4B00221A6001238B
:10143000FB7365E07B689B6A002B13D17B685B6A5A
:10144000374A13607B6800225A62354B1B680022C2
:101450009A62334B1B681B79BA7B9A4250D00123A6
:10146000FB734DE07B685B6A002B17D17B689B6A3E
:101470001B79BA7B9A4202D00123FB7306E07B7B87
:101480001A467B689B6A9979264B99547B689B6ABC
:1014900000225A627B6800229A6231E07B689B6A74
:1014A0001B79BA7B9A4208D07B685B6A1B79BA7B4E
:1014B0009A4202D00123FB7312E07B689B6A1B797E
:1014C000BA7B9A420CD17B685B6A1B79BA7B9A42E1
:1014D00006D07B7B1A467B689B6A9979114B99549D
:1014E0007B689B6A7A68526A5A627B685B6A7A6830
:1014F000926A9A627B6800225A627B6800229A6232
:10150000FB7B012B09D17B7B1A46064BFF219954AB
:101510007B7B18460021FFF7E5FD1037BD4680BDF7
:10152000580900207009002080B586B000AF03463E
:101530000A46FB711346BB71FB79002B01D11423C2
:10154000CAE0FB79102B01D90123C5E0FB792C22DD
:1015500002FB03F3624A13447B617B695B79032BD3
:1015600001D10123B8E0BB79402B01D90123B3E0BD
:101570007B691B79BA799A4200F0AD807B69DB798F
:10158000FF2B15D07B69DB79DB00564A1344FB60E7
:10159000FB689A787B699B799A4209D1FB68BA7992
:1015A0001A707B691B79BA799A4201D9002393E0BA
:1015B0007B691B791846FFF725FEBB791846FFF7B4
:1015C000C5FD7B69BA791A717B695B79002B0FD1F4
:1015D000454B1B78DBB20133DAB2434B1A707869A2
:1015E000FFF70AFF7869FFF75DFEFEF7EFFD72E097
:1015F0007B695B79012B13D17B691A793B4B1B68A3
:101600001B799A4267D9384B1B78DBB20133DAB2C7
:10161000354B1A70364B01221A70FEF7D7FD5AE08F
:101620007B69DB79FF2B37D02F4B1B78DBB2013383
:10163000DAB22D4B1A707B69DB79DB00294A13443F
:10164000FB60FB685B687B61FB681B78FB74FB6875
:101650009A78FB68DA700EE07B691B79FA7C9A4213
:1016600006D97B691B79FB747B699A79FB68DA7010
:101670007B695B6A7B617B69002BEDD1FEF7A6FD80
:10168000FB681B78FA7C9A4206D0FB689A78FB7C50
:1016900010461946FFF748FFFB792C2202FB03F3A3
:1016A0000F4A13447B617B691B7AFF2B13D07B6944
:1016B0001B7A1B010F4A1344BB60BB685B7923F0A4
:1016C0000F03DBB2202B06D1786902F07BFFB868EC
:1016D000796902F071FE002318461837BD4680BDB7
:1016E00068050020240B00201D050020580900205B
:1016F0001E050020B809002080B584B000AF454B1E
:101700001B68FB60444B1B68BB60BB68002B0ED0A2
:10171000424B1B68FA689A4209D1414B1B78DBB2F5
:10172000012B04D83F4B1B78DBB2002B00D06DE0BF
:101730003D4B00221A70FB681B79FB71BB681B795B
:10174000BB71FB685B79012B09D0344ABB6813601D
:10175000BB6801225A71B868FFF74EFE2CE0BA79D7
:10176000FB799A420CD22D4ABB681360F868FFF7E8
:1017700099FDB868FFF740FEBB6801225A711BE073
:10178000FA79BB799A4216D1284BD3E90001284B4C
:10179000D3E90023994208BF90420CD11F4ABB688D
:1017A0001360F868FFF77EFDB868FFF725FEBB6899
:1017B00001225A7100E029E0184B1B681A79164B78
:1017C0001B681B799A420ED1144B1B685B8998B237
:1017D0004FF00001164BD3E90023121843EB01032D
:1017E0001249C1E90023FB681A68FB68DB689A426A
:1017F00005D3FB68DB681B680E4A934204D0FB6884
:101800009B79184603F09AFF03F008FB1037BD469A
:1018100080BD00BF60090020580900205C0900203D
:101820001D0500201C0500201E0500206809002061
:10183000880B0020A5A55A5A80B582B000AF0F4B87
:101840001B78DBB20133DAB20C4B1A700C4B1B68FD
:10185000002B03D1FEF7BAFC00230AE0084B1B68FB
:101860007B60074B1B685B6A054A1360FEF7AEFCA2
:101870007B6818460837BD4680BD00BF1D050020A7
:101880005409002080B588B000AFF860B9607A6074
:101890003B607A68404B13401B0ABB837B68FB7636
:1018A000FB68002B01D1FF2372E03B68002B01D1C4
:1018B000FF236DE0FB7E402B01D9FF2368E0BB8B4B
:1018C000132B01D8FF2363E0F868B9683A6803F086
:1018D00015FE7861FFF7B0FF38613B69002B01D13D
:1018E000FF2355E03B697A691A603B69FA7E1A71F9
:1018F000BA8B13469B079B1A9B0004333A681A4421
:101900003B69DA603B69DB68244A1A603B694FF047
:10191000FF321A623B6900225A623B6900229A62D6
:101920007A681F4B13401B0DFB83FB8B002B01D1EF
:101930000A23FB833B69FA8B5A813B690022DA61F7
:101940003B69FF221A723B6900221A613B6900223F
:101950005A613B6900229A613B69FF22DA71FB7E82
:101960001846FFF7F3FB7B68002B0CDB0D4B1B7855
:10197000DBB20133DAB20B4B1A703869FFF792FC15
:10198000FEF724FC02E03B6902225A713B699B7915
:1019900018462037BD4680BD00FF0F00A5A55A5A46
:1019A0000000FF7F1D05002080B584B000AF034616
:1019B000FB71FB79102B01D9012376E0FB792C22F6
:1019C00002FB03F33B4A1344FB60FB685B79032B88
:1019D00001D1012369E0FB79002B01D1142364E0DC
:1019E000FB685B79012B06D1334B1B78DBB2002BF4
:1019F00001D0152359E0FB68DB79FF2B0ED0FB6883
:101A0000DB792E4ADB0013449A78FB689B799A4273
:101A100004D1FB68DB79184603F028FA264B1B78C3
:101A2000DBB20133DAB2244B1A70FB685B79002B0E
:101A300003D1F868FFF7E0FC22E0FB685B79022B3A
:101A40001ED1FB681B6AB3F1FF3F02D0F86802F0B9
:101A5000F9FAFB681B7AFF2B02D0F86802F0B2FD9E
:101A6000FB68DB69002B04D0FB68DB69184603F0D8
:101A700003FDFB68DB79FF2B02D0F86803F09CFACA
:101A8000FB6803225A710E4B01221A70FB681B7906
:101A90001846FFF7B7FB0B4B1A68FB685A62094AF6
:101AA000FB681360FEF792FB002318461037BD4613
:101AB00080BD00BF680500201D050020240B00200C
:101AC0001E0500205409002080B582B000AF124BE3
:101AD0007B60124B3B6007E03B681A1D3A607A68F6
:101AE000111D796012681A603B680D4A9342F3D366
:101AF0000C480D494FF000028842B8BF40F8042B53
:101B0000FADBDFF82800016841F47001016000F0A1
:101B1000A3F80837BD4680BD0C6B0008000000200C
:101B20004404002048040020DC6B002088ED00E025
:101B300080B400AFFEE700BF80B582B000AF394B84
:101B40001B78012B04D102F067FB364B00221A7080
:101B5000354B1B78012B04D1FEF7D8FD324B002208
:101B60001A704CE003F04CF9304B5B782F4ADB00E5
:101B700013443A46043393E8030082E803002B4BF6
:101B80005B785A1C2A4B83FB02135910D317C91ACE
:101B90000B469B000B44D11ACAB2244B5A70234BFC
:101BA0001B78013BDAB2214B1A7003F021F93B7824
:101BB000013B032B22D801A252F823F0CD1B0008D1
:101BC000D71B0008E51B0008EF1B00087B781846B0
:101BD00003F008FD13E07A787B681046194600F0A0
:101BE000BDF80CE07B78184603F066FB07E07A78D6
:101BF0007B681046194603F0A5F800E000BF0B4BC8
:101C00001B78002BAED103F0FBF8084B1B78002BA0
:101C100002D1084B00221A7003F0EAF80837BD46DB
:101C200080BD00BFB1090020B20900208409002056
:101C300067666666B009002080B500AF02F03AF929
:101C400080BD00BF80B500AF02F04EF903F018FD73
:101C5000FEF7EAFE80BD00BF80B500AF02F018FEBF
:101C6000FEF7DAFAFFF7E8FFFFF7ECFFFEF712FBEB
:101C7000FEE700BF80B483B000AF78600B46FB7016
:101C8000FB78002B06D00949084B1A6B7B6813437D
:101C90000B6306E00549054B1A6B7B68DB43134079
:101CA0000B630C37BD465DF8047B7047003802407B
:101CB00080B483B000AF78600B46FB70FB78002BDC
:101CC00006D00949084B9A6B7B6813438B6306E087
:101CD0000549054B9A6B7B68DB4313408B630C37DC
:101CE000BD465DF8047B70470038024080B483B085
:101CF00000AF78600B46FB70FB78002B06D00949DB
:101D0000084B1A6C7B6813430B6406E00549054BCE
:101D10001A6C7B68DB4313400B640C37BD465DF8DF
:101D2000047B70470038024090B482B000AF786006
:101D30000B46FB70FB78203B1B01074A1A447B686B
:101D4000146850689168D2681C6058609960DA60C5
:101D50000837BD4690BC70471465000880B584B054
:101D600000AF03463960FB71FB79132B01D90123C6
:101D700026E0FB791B01144A1344FB60FB685B7986
:101D800003F00F03DBB2022B01D0012318E0FB6844
:101D9000DB88002B13D10D4B1B78DBB20133DAB299
:101DA0000A4B1A70FB683A681A60FB680122DA80F5
:101DB000F86802F081FBFEF709FA002300E0072330
:101DC00018461037BD4680BDB80900201D0500200B
:101DD00080B582B000AF58200121FFF74BFF0120F2
:101DE0000121FFF765FF484800210C2202F008FDA1
:101DF000454801210C2202F003FD434804210C2236
:101E000002F0FEFC404805210C2202F0F9FC3E489D
:101E100008210C2202F0F4FC3B4809210C2202F0BC
:101E2000EFFC39480A210C2202F0EAFC36480E2168
:101E30000C2202F0E5FC34480F210C2202F0E0FCF9
:101E40004CF233733B6002233B7102237B7100230E
:101E5000BB710023FB713B462B48194602F0FEFB89
:101E60002A4802210C2202F0CBFC284807210C2230
:101E700002F0C6FC254808210C2202F0C1FC2348D0
:101E800009210C2202F0BCFC20480A210C2202F09D
:101E9000B7FC1E480B210C2202F0B2FC1B480C219F
:101EA0000C2202F0ADFC19480D210C2202F0A8FC16
:101EB00016480E210C2202F0A3FC14480F210C221C
:101EC00002F09EFC4FF684733B603B460F48194678
:101ED00002F0C4FB0E4805210C2202F091FC0C48D4
:101EE0000C210C2202F08CFC09480D210C2202F07E
:101EF00087FC43F220033B603B460548194602F04D
:101F0000ADFB0837BD4680BD000C0240001002400A
:101F10000018024080B596B000AF0623FB61002395
:101F20003B6200237B621023BB620023FB62002321
:101F30007B630023BB630023FB634FF480533B644C
:101F400000237B6400233B630023BB640023FB640A
:101F50003B463B650F233B6000237B600F23BB6048
:101F60000023FB6000233B6100237B610023BB61F6
:101F70003B467B6507F11C03184601F0C1FE0620B5
:101F8000012101F057FF5837BD4680BD80B582B0B2
:101F900000AF074B7B60FFF71BFF00BF7B685A1E3B
:101FA0007A60002BFAD1FFF7B5FF0837BD4680BD38
:101FB000FFFF1F0080B485B000AF0346FB80002305
:101FC000FB810DE00023BB8102E0BB890133BB81B3
:101FD000BB8940F274429342F7D9FB890133FB81FC
:101FE000FA89FB889A42EDD31437BD465DF8047B2D
:101FF000704700BF80B500AFFFF7C8FFED4B40F260
:1020000023121A80002001F06BFE03461A46E94BAA
:102010001A80E84B1B8849F22532934206D0E54BE3
:102020001B8849F22832934240F00781E24B01229B
:102030001A70E720102101F03FFE0020012101F07D
:102040003BFE01204FF4807101F036FE02204FF478
:10205000E06101F031FE032041F2300101F02CFE7D
:102060000420002101F028FE082040F2072101F0A1
:1020700023FE0920002101F01FFE0A20002101F0AB
:102080001BFE0C20012101F017FE0D20002101F0A4
:1020900013FE0F20002101F00FFE1020002101F09F
:1020A0000BFE1120072101F007FE1220002101F094
:1020B00003FE1320002101F0FFFD3220FFF77AFF1D
:1020C000102041F2905101F0F7FD112040F227213C
:1020D00001F0F2FD3220FFF76DFF12209C2101F08C
:1020E000EBFD3220FFF766FF13204FF4C85101F0DB
:1020F000E3FD2920232101F0DFFD2B200E2101F03B
:10210000DBFD3220FFF756FF2020002101F0D4FD37
:102110002120002101F0D0FD3220FFF74BFF3020BD
:10212000072101F0C9FD312040F2077101F0C4FD23
:102130003220062101F0C0FD352040F2047101F08B
:10214000BBFD362041F6047101F0B6FD37200421B5
:1021500001F0B2FD3820002101F0AEFD392040F23F
:10216000067101F0A9FD3C2040F2017101F0A4FDCF
:102170003D200F2101F0A0FD3220FFF71BFF502072
:10218000002101F099FD5120EF2101F095FD522031
:10219000002101F091FD532040F23F1101F08CFD30
:1021A00060204FF4274101F087FD6120012101F0FB
:1021B00083FD6A20002101F07FFD8020002101F0D5
:1021C0007BFD8120002101F077FD8220002101F0BC
:1021D00073FD8320002101F06FFD8420002101F0B8
:1021E0006BFD8520002101F067FD9020102101F09A
:1021F00063FD9220002101F05FFD9320032101F097
:102200005BFD95204FF4887101F056FD9720002169
:1022100001F052FD9820002101F04EFD072040F210
:10222000331101F049FD2020002101F045FD21205E
:10223000002101F041FD01F094BA5E4B1B8849F288
:102240002032934205D05B4B1B88B3F5134F40F00F
:10225000B580594B00221A700020002101F02CFD9E
:1022600001204FF4807101F027FD02204FF4E0615E
:1022700001F022FD032041F2180101F01DFD0420B0
:10228000002101F019FD082040F2022101F014FDA7
:102290000920002101F010FD0A20002101F00CFDB1
:1022A0000C20012101F008FD0D20002101F004FDAA
:1022B0000F20002101F000FD6420FFF77BFE0720C6
:1022C00040F2011101F0F8FC6420FFF773FE1020CA
:1022D0004FF4865101F0F0FC1120072101F0ECFCD5
:1022E00012204FF4887101F0E7FC13204FF43061A5
:1022F00001F0E2FC2920002101F0DEFC2B2044F259
:10230000100101F0D9FC5020002101F0D5FC512032
:10231000EF2101F0D1FC5220002101F0CDFC53202F
:1023200040F23F1101F0C8FC60204FF41C5101F055
:10233000C3FC6120012101F0BFFC6A20002101F0F3
:10234000BBFC8020002101F0B7FC8120002101F0BE
:10235000B3FC8220002101F0AFFC8320002101F0BA
:10236000ABFC8420002101F0A7FC8520002101F0B6
:10237000A3FC9020102101F09FFC9220002101F08D
:102380009BFC9320012101F097FC95204FF488716C
:1023900001F092FC9720002101F08EFC9820002192
:1023A00001F08AFC072040F2731101F085FC01F076
:1023B000D8B900BFC4530020B3090020C74B1B8805
:1023C00049F23132934240F0F380C54B03221A7038
:1023D000E72041F2140101F06FFC01204FF48071FD
:1023E00001F06AFC02204FF4007101F065FC03204B
:1023F00041F2300101F060FC082040F2022101F0BE
:102400005BFC0920002101F057FC0A20002101F0AB
:1024100053FC0C20002101F04FFC0D20002101F0A5
:102420004BFC0F20002101F047FC1020002101F09F
:1024300043FC1120072101F03FFC1220002101F094
:102440003BFC1320002101F037FCC820FFF7B2FD50
:10245000102041F2906101F02FFC112040F2272161
:1024600001F02AFC3220FFF7A5FD12200C2101F01B
:1024700023FC3220FFF79EFD13204FF4006101F092
:102480001BFC2920112101F017FC2B200B2101F04E
:1024900013FC3220FFF78EFD2020002101F00CFC00
:1024A0002120002101F008FC3020002101F004FC73
:1024B00031204FF4837101F0FFFB3220002101F045
:1024C000FBFB35204FF4017101F0F6FB362041F2A1
:1024D0000A6101F0F1FB372040F2077101F0ECFBDB
:1024E00038204FF4837101F0E7FB392040F2077187
:1024F00001F0E2FB3C2040F2024101F0DDFB3D2017
:1025000040F60F4101F0D8FB5020002101F0D4FB30
:102510005120EF2101F0D0FB5220002101F0CCFB33
:10252000532040F23F1101F0C7FB60204FF41C51D3
:1025300001F0C2FB6120012101F0BEFB6A200021F5
:1025400001F0BAFB8020002101F0B6FB81200021C0
:1025500001F0B2FB8220002101F0AEFB83200021BC
:1025600001F0AAFB8420002101F0A6FB85200021B8
:1025700001F0A2FB9020102101F09EFB92204FF46D
:10258000C06101F099FB0720212101F095FB322069
:10259000FFF710FD0720612101F08EFB3220FFF7CD
:1025A00009FD072040F2331101F086FB01F0D9B894
:1025B0004A4B1B8849F61912934240F09380484BCE
:1025C0000D221A702820062101F076FB002001213F
:1025D00001F072FB1020002101F06EFB012047F298
:1025E000EF2101F069FB02204FF4C06101F064FBB0
:1025F000032046F6382101F05FFB112046F67401F6
:1026000001F05AFB0F20002101F056FB0B2045F290
:10261000083101F051FB0C20032101F04DFB0D208E
:102620000A2101F049FB0E204FF4385101F044FB20
:102630001E20BE2101F040FB25204FF4004101F097
:102640003BFB26204FF4F04101F036FB2720782198
:1026500001F032FB4E20002101F02EFB4F20002123
:1026600001F02AFB122040F6D90101F025FB3020B1
:10267000002101F021FB31204FF4827101F01CFB9D
:1026800032204FF4807101F017FB332040F2053106
:1026900001F012FB342040F2055101F00DFB352012
:1026A00040F2053101F008FB362040F2077101F0DD
:1026B00003FB37204FF4407101F0FEFA3A204FF44B
:1026C000905101F0F9FA3B204FF4006101F0F4FA67
:1026D0000720332101F0F0FA01F043B8C453002081
:1026E000B3090020904B1B8841F20552934206D05B
:1026F0008D4B1B8840F20552934240F019818B4B61
:1027000009221A700720002101F0D6FA3220FFF7C3
:1027100051FC12204FF48E7101F0CEFAA420012159
:1027200001F0CAFA08200F2101F0C6FA0A20082198
:1027300001F0C2FA0D20082101F0BEFA302040F26B
:10274000077101F0B9FA3120072101F0B5FA322002
:1027500040F2036101F0B0FA33204FF4E06101F080
:10276000ABFA342040F2022101F0A6FA3520022112
:1027700001F0A2FA362041F60F7101F09DFA3720E0
:1027800040F2077101F098FA3820002101F094FA24
:102790003920002101F090FA3A2040F2077101F04F
:1027A0008BFA3B20002101F087FA3C20072101F041
:1027B00083FA3D20002101F07FFA3220FFF7FAFB77
:1027C0000720012101F078FA1720012101F074FAA5
:1027D0003220FFF7EFFB10204FF4BD5101F06CFAEF
:1027E000112040F2172101F067FA12204FF48F7187
:1027F00001F062FA13204FF4706101F05DFA2A20B3
:10280000002101F059FA29200A2101F055FA12207D
:102810004FF49F7101F050FA5020002101F04CFA62
:102820005120EF2101F048FA5220002101F044FA32
:10283000532040F23F1101F03FFA60204FF41C5149
:1028400001F03AFA6120012101F036FA6A200021F4
:1028500001F032FA8020002101F02EFA81200021BF
:1028600001F02AFA8220002101F026FA83200021BB
:1028700001F022FA8420002101F01EFA85200021B7
:1028800001F01AFA9020132101F016FA92204FF469
:10289000407101F011FA9320052101F00DFA952005
:1028A000002101F009FA9720002101F005FA982093
:1028B000002101F001FA01204FF4807101F0FCF9D0
:1028C00002204FF4E06101F0F7F9032041F23001FA
:1028D00001F0F2F90420002101F0EEF90C200021B2
:1028E00001F0EAF90F20002101F0E6F92020002193
:1028F00001F0E2F92120002101F0DEF90720212179
:1029000001F0DAF9C820FFF755FB0720612101F03B
:10291000D3F9C820FFF74EFB072040F2731101F0F6
:10292000CBF900F01EBF00BFC4530020B309002044
:102930009F4B1B8848F68912934240F03D819D4B86
:1029400005221A700020012101F0B6F93220FFF7AC
:1029500031FB03204AF6A40101F0AEF93220FFF763
:1029600029FB0C20002101F0A7F93220FFF722FB00
:102970000D2040F60C0101F09FF93220FFF71AFB01
:102980000E204FF42C5101F097F93220FFF712FB83
:102990001E20B02101F090F93220FFF70BFB01203F
:1029A00042F63F3101F088F93220FFF703FB0220A5
:1029B0004FF4C06101F080F93220FFF7FBFA1020DC
:1029C000002101F079F93220FFF7F4FA112046F2E4
:1029D000700101F071F93220FFF7ECFA05200021B7
:1029E00001F06AF93220FFF7E5FA0620002101F034
:1029F00063F93220FFF7DEFA16204EF61C7101F063
:102A00005BF93220FFF7D6FA1720032101F054F9C1
:102A10003220FFF7CFFA072040F2331101F04CF9D2
:102A20003220FFF7C7FA0B20002101F045F93220D0
:102A3000FFF7C0FA0F20002101F03EF93220FFF726
:102A4000B9FA4120002101F037F93220FFF7B2FA3C
:102A50004220002101F030F93220FFF7ABFA482084
:102A6000002101F029F93220FFF7A4FA492040F2B1
:102A70003F1101F021F93220FFF79CFA4A20002192
:102A800001F01AF93220FFF795FA4B20002101F0EE
:102A900013F93220FFF78EFA44204FF46F4101F012
:102AA0000BF93220FFF786FA4520002101F004F9E6
:102AB0003220FFF77FFA462040F23F1101F0FCF888
:102AC0003220FFF777FA302040F2077101F0F4F876
:102AD0003220FFF76FFA31204FF4017101F0ECF86A
:102AE0003220FFF767FA32204FF4017101F0E4F869
:102AF0003220FFF75FFA332040F2025101F0DCF898
:102B00003220FFF757FA342040F2075101F0D4F891
:102B10003220FFF74FFA35204FF4017101F0CCF865
:102B20003220FFF747FA36204FF4017101F0C4F864
:102B30003220FFF73FFA372040F2025101F0BCF893
:102B40003220FFF737FA3A2040F2023101F0B4F8B0
:102B50003220FFF72FFA3B2040F2023101F0ACF8AF
:102B60003220FFF727FA2320002101F0A5F83220B8
:102B7000FFF720FA2420002101F09EF83220FFF711
:102B800019FA25204FF4004101F096F83220FFF7A2
:102B900011FA4F20002101F08FF84E20002101F0A2
:102BA0008BF8112046F2680101F086F800F0D9BDDB
:102BB000C4530020B3090020C14B1B8848F699126A
:102BC000934240F0CB80BF4B04221A70282006218C
:102BD00001F072F80020012101F06EF803204AF69E
:102BE000A46101F069F80C20042101F065F80D20C2
:102BF0000C2101F061F80E204FF4205101F05CF837
:102C00001E20B52101F058F8012043F63F3101F0B4
:102C100053F802204FF4C06101F04EF8102000215B
:102C200001F04AF8112046F6300101F045F8052080
:102C3000002101F041F80620002101F03DF81620A6
:102C40004EF61C7101F038F80720332101F034F8FA
:102C50000B20002101F030F80F20002101F02CF8AA
:102C60004120002101F028F84220002101F024F841
:102C70004820002101F020F8492040F23F1101F0E6
:102C80001BF84A20002101F017F84B20002101F029
:102C900013F844204FF46F4101F00EF84520002155
:102CA00001F00AF8462040F23F1101F005F84E20ED
:102CB000002101F001F84F20002100F0FDFF30203D
:102CC00040F2077100F0F8FF312040F2022100F0DD
:102CD000F3FF32204FF4017100F0EEFF332040F299
:102CE000025100F0E9FF342040F2075100F0E4FF08
:102CF00035204FF4017100F0DFFF36204FF40171F1
:102D000000F0DAFF372040F2025100F0D5FF3A2000
:102D100040F2023100F0D0FF3B2040F2023100F0DF
:102D2000CBFF2320002100F0C7FF2420002100F06A
:102D3000C3FF25204FF4004100F0BEFF26204FF4D2
:102D4000E04100F0B9FF20204BF2EB0100F0B4FFAE
:102D500027207C2100F0B0FF00F003BD584B1B88FA
:102D600045F20842934240F0AF80564B08221A7059
:102D700001204FF4807100F09FFF02204FF4E061CA
:102D800000F09AFF032041F2300100F095FF04208B
:102D9000002100F091FF082040F2072100F08CFF95
:102DA0000920002100F088FF0A20002100F084FFA4
:102DB0000C20002100F080FF0D20002100F07CFF9E
:102DC0000F20002100F078FF3220FFF7F3F80720F2
:102DD00040F2011100F070FF3220FFF7EBF81020F5
:102DE00041F2B06100F068FF1120012100F064FFA2
:102DF0001720012100F060FF12204FF49C7100F0B9
:102E00005BFF13204FF4006100F056FF29200921D9
:102E100000F052FF2A20092100F04EFFA4200021DB
:102E200000F04AFF5020002100F046FF5120EF2122
:102E300000F042FF5220002100F03EFF532040F2FC
:102E40003F1100F039FF60204FF41C5100F034FFB7
:102E50006120032100F030FF6A20002100F02CFFE8
:102E60008020002100F028FF8120002100F024FFB5
:102E70008220002100F020FF8320002100F01CFFB1
:102E80008420002100F018FF8520002100F014FFAD
:102E90009020132100F010FF9220002100F00CFF81
:102EA0009320032100F008FF95204FF4887100F073
:102EB00003FF072040F2731100F0FEFE00F051BC4A
:102EC000C4530020B3090020B64B1B8844F2315292
:102ED000934240F0AD80B44B07221A7000200121CC
:102EE00000F0EAFE10204FF4C56100F0E5FE12206C
:102EF000062100F0E1FE132040F6322100F0DCFE56
:102F00001120402100F0D8FE1520502100F0D4FE01
:102F10001220162100F0D0FE3220FFF74BF81020CF
:102F200045F2606100F0C8FE3220FFF743F813203D
:102F300042F64E2100F0C0FE01204FF4807100F0F7
:102F4000BBFE02204FF4407100F0B6FE032041F2B8
:102F5000300100F0B1FE082040F2022100F0ACFE8A
:102F60000A20002100F0A8FE3020002100F0A4FE7D
:102F7000312040F2024100F09FFE32204FF4837175
:102F800000F09AFE33204FF4E06100F095FE34200B
:102F90004FF4827100F090FE352040F2013100F0D4
:102FA0008BFE362040F2077100F086FE372040F29B
:102FB000053100F081FE38204FF4027100F07CFEF4
:102FC000392040F60B7100F077FE3220FEF7F2FF59
:102FD0004120022100F070FE60204FF41C5100F0EF
:102FE0006BFE6120012100F067FE902040F2191174
:102FF00000F062FE92204FF4857100F05DFE932098
:10300000042100F059FEA0204FF4807100F054FE1E
:103010003220FEF7CFFF072040F2331100F04CFEC4
:103020003220FEF7C7FFA020002100F045FE98E304
:103030005C4B1B8844F23552934240F0B7805A4BA8
:103040000C221A701520302100F036FE9A20102133
:1030500000F032FE1120202100F02EFE102043F25D
:10306000284100F029FE1220022100F025FE132045
:1030700041F2380100F020FE2820FEF79BFF1220CD
:10308000122100F019FE2820FEF794FF102043F2D1
:10309000204100F011FE132043F2450100F00CFE28
:1030A0004620FEF787FF3020002100F005FE31208A
:1030B00040F2024100F000FE322040F2073100F001
:1030C000FBFD33204FF4417100F0F6FD3420042164
:1030D00000F0F2FD352040F2014100F0EDFD362018
:1030E00040F2077100F0E8FD372040F2053100F0B2
:1030F000E3FD38204FF4C26100F0DEFD39204FF4CB
:10310000C26100F0D9FD01204FF4807100F0D4FDC0
:1031100002204FF4407100F0CFFD032041F2300156
:1031200000F0CAFD082040F6080100F0C5FD0A20A5
:10313000082100F0C1FD60204FF41C5100F0BCFDDF
:103140006120012100F0B8FD90204FF49F7100F044
:10315000B3FD92204FF4807100F0AEFD93204FF448
:10316000807100F0A9FDA0204FF4405100F0A4FDB3
:10317000A320102100F0A0FD0720012100F09CFDFC
:103180000720212100F098FD0720232100F094FD65
:103190000720332100F090FD072040F2331100F0AA
:1031A0008BFDDEE2C4530020B3090020D44B1B8802
:1031B000472B40F0E380D34B0A221A70EA2000210B
:1031C00000F07AFDEB20202100F076FDEC200C21B0
:1031D00000F072FDED20C42100F06EFDE8204021DA
:1031E00000F06AFDE920382100F066FDF1200121A0
:1031F00000F062FDF220102100F05EFD2720A321E7
:1032000000F05AFD4020012100F056FD4120002130
:1032100000F052FD4220002100F04EFD432010211D
:1032200000F04AFD44200E2100F046FD45202421F7
:1032300000F042FD4620042100F03EFD47205021D1
:1032400000F03AFD4820022100F036FD492013210C
:1032500000F032FD4A20192100F02EFD4B201921EB
:1032600000F02AFD4C20162100F026FD50201B21E5
:1032700000F022FD5120312100F01EFD52202F21AF
:1032800000F01AFD53203F2100F016FD54203F218D
:1032900000F012FD55203E2100F00EFD56202F219A
:1032A00000F00AFD57207B2100F006FD582009217F
:1032B00000F002FD5920062100F0FEFC5A200621F4
:1032C00000F0FAFC5B200C2100F0F6FC5C201D21D4
:1032D00000F0F2FC5D20CC2100F0EEFC1B20182158
:1032E00000F0EAFC1A20012100F0E6FC2420152160
:1032F00000F0E2FC2520502100F0DEFC23208B2191
:1033000000F0DAFC1820362100F0D6FC192001214B
:1033100000F0D2FC0120002100F0CEFC1F2088210B
:1033200000F0CAFC3220FEF745FE1F20802100F08D
:10333000C3FC3220FEF73EFE1F20902100F0BCFCB3
:103340003220FEF737FE1F20D02100F0B5FC3220DE
:10335000FEF730FE1720052100F0AEFC36200021DC
:1033600000F0AAFC2820382100F0A6FC3220FEF74D
:1033700021FE28203C2100F09FFCF2E1604B1B88DD
:1033800047F28372934240F0BF805E4B06221A7070
:10339000FF20012100F090FCF320082100F08CFCBC
:1033A00001204FF4807100F087FC02204FF4E061AF
:1033B00000F082FC032041F2300100F07DFC082087
:1033C00040F2023100F078FC082040F2072100F0C2
:1033D00073FC0920002100F06FFC0A20002100F09E
:1033E0006BFC1020002100F067FC1120052100F08B
:1033F00063FC1220002100F05FFC1320002100F08C
:103400005BFC3220FEF7D6FD102041F2B02100F027
:1034100053FC3220FEF7CEFD1120072100F04CFCBA
:103420003220FEF7C7FD12208B2100F045FC322030
:10343000FEF7C0FD13204FF4B85100F03DFC3220E0
:10344000FEF7B8FD2920222100F036FC30200021B3
:1034500000F032FC312040F2077100F02DFC3220E8
:1034600040F2055100F028FC352040F2071100F031
:1034700023FC3620082100F01FFC3720002100F03B
:103480001BFC382040F2022100F016FC39204FF4DA
:10349000837100F011FC3C2040F2022100F00CFC92
:1034A0003D204FF4816100F007FC3220FEF782FDE1
:1034B0005020002100F000FC5120EF2100F0FCFB27
:1034C0005220002100F0F8FB532040F23F1100F0A1
:1034D000F3FB60204FF4274100F0EEFB6120012157
:1034E00000F0EAFB9020332100F0E6FB2B200B21BB
:1034F00000F0E2FB072040F2331100F0DDFB30E189
:10350000C4530020B3090020984B40F223121A80C4
:10351000672000F0E5FB03461A46944B1A80934B54
:103520001B88472B40F01D81914B0B221A704220C3
:10353000082100F0C1FB4620B42100F0BDFB47206C
:10354000432100F0B9FB4820132100F0B5FB4920CE
:10355000472100F0B1FB4A20142100F0ADFB4B20C5
:10356000362100F0A9FB4C20032100F0A5FB4D20E3
:10357000462100F0A1FB4E20052100F09DFB4F20CD
:10358000102100F099FB5020082100F095FB5120FC
:103590000A2100F091FB0220002100F08DFB0320A6
:1035A000002100F089FB0420002100F085FB0520AC
:1035B000EF2100F081FB0620002100F07DFB0720B9
:1035C000002100F079FB0820012100F075FB0920A3
:1035D0003F2100F071FB0A20FEF7ECFC01200621E0
:1035E00000F06AFB1620C82100F066FB232095211D
:1035F00000F062FB2420952100F05EFB2520FF21D6
:1036000000F05AFB2720022100F056FB282002215F
:1036100000F052FB2920022100F04EFB2A2002215B
:1036200000F04AFB2C20022100F046FB2D20022155
:1036300000F042FB3A20012100F03EFB3B2001213B
:1036400000F03AFB3C20F02100F036FB3D20002149
:1036500000F032FB1420FEF7ADFC3520382100F0DD
:103660002BFB3620782100F027FB3E20382100F08C
:1036700023FB40200F2100F01FFB4120F02100F030
:103680001BFB3820002100F017FB1920492100F016
:1036900013FB93200A2100F00FFB0A20FEF78AFC9F
:1036A0002020202100F008FB1D20032100F004FB56
:1036B0001E20002100F000FB1F20092100F0FCFA71
:1036C0004420532100F0F8FA4520102100F0F4FACC
:1036D0000A20FEF76FFC1C20042100F0EDFA1420F4
:1036E000FEF768FC4320802100F0E6FA0520FEF793
:1036F00061FC1B200A2100F0DFFA2820FEF75AFCAB
:103700001B20122100F0D8FA2820FEF753FC90204D
:103710007F2100F0D1FA2620042100F0CDFA2820E4
:10372000FEF748FC2620242100F0C6FA26202C2192
:1037300000F0C2FA2820FEF73DFC7020082100F0BE
:10374000BBFA26203C2100F0B7FA5720022100F0F6
:10375000B3FA5520002100F0AFFA5720002100F005
:10376000ABFA3220FEF726FC80BD00BFC453002018
:10377000B309002080B584B000AF0346FB8000236E
:10378000FB60204B1B780A2B03D01E4B1B780B2BA6
:1037900020D10220002100F08FFA0320002100F048
:1037A0008BFA0420002100F087FA0520EF2100F0B9
:1037B00083FA0620002100F07FFA0720002100F0A4
:1037C0007BFA0820012100F077FA09203F2100F060
:1037D00073FA03E00020002100F016F8222000F028
:1037E00041FA0023FB6006E0FB88184600F048FA27
:1037F000FB680133FB60FB68B3F5963FF4D31037E9
:10380000BD4680BDB309002080B584B000AF03463B
:103810000A46FB801346BB80FB88FB81BB88FB808C
:10382000FB89C3F59F730133BB80284B1B78043B96
:10383000092B17D801A252F823F000BF7B380008EB
:103840007B380008653800086538000865380008CE
:10385000653800089138000891380008653800087C
:10386000C3380008FB882020194600F025FABB88E1
:103870002120194600F020FA24E0FB884E2019464A
:1038800000F01AFABB884F20194600F015FA19E02B
:10389000FB881B0A9BB20220194600F00DFAFB8838
:1038A0000320194600F008FABB881B0A9BB20620C9
:1038B000194600F001FABB880720194600F0FCF910
:1038C00000E000BF1037BD4680BD00BFB309002037
:1038D00080B582B000AF0346FB800B46BB80134629
:1038E0007B80FB88B3F5A07F02D2BB88EF2B00D989
:1038F0000AE0FA88BB8810461946FFF785FF7B88E7
:103900002220194600F0D8F90837BD4680BD00BF17
:1039100090B58BB000AF0446084611461A462346C0
:10392000FB800346BB800B467B8013463B80002315
:103930003B820023FB810023FB840023BB84002304
:103940007B8400233B840023FB830023BB83002371
:103950007B8300233B830023FB820023BB82002365
:103960007B827A88FB88D31A002BB8BF5B423B82EC
:103970003A88BB88D31A002BB8BF5B42FB81FB8817
:10398000FB84BB88BB847A88FB889A4204D30123DA
:103990007B8401233B8405E04FF6FF737B844FF665
:1039A000FF733B843A88BB889A4204D30123FB838C
:1039B0000123BB8305E04FF6FF73FB834FF6FF73D4
:1039C000BB83B7F91020B7F90E309A4210DB002301
:1039D0007B840023BB833B8A7B83B7F91030DA0FEB
:1039E00013445B103B83FB89FB823B8ABB820FE065
:1039F00000233B840023FB83FB897B83B7F90E30D4
:103A0000DA0F13445B103B833B8AFB82FB89BB824A
:103A100000237B8230E0F98CBA8C3B8F084611463C
:103A20001A46FFF755FF3A8BFB8A13449BB23B8340
:103A3000B7F91820B7F91A309A420EDB3A8B7B8B14
:103A4000D31A9BB23B83FA8C7B8C13449BB2FB84CE
:103A5000BA8CFB8B13449BB2BB84FA8C3B8C134413
:103A60009BB2FB84BA8CBB8B13449BB2BB847B8A16
:103A70009BB201339BB27B82B7F91220B7F91430A5
:103A80009A42C8DD2C37BD4690BD00BF90B585B0C9
:103A900000AF0446084611461A462346FB800346FB
:103AA000BB800B467B8013463B807B885B429BB28E
:103AB000FB813EE07B887A8802FB03F2B7F90E3087
:103AC000B7F90E1001FB03F3D31A184602F06CF994
:103AD00002460B461046194601F0CCFE02460B4644
:103AE0001046194602F060FC0346BB60BB689BB2FF
:103AF0005B429BB2BB8112E0FA89FB88134499B206
:103B0000BA89BB8813449AB23B88084611461A46C4
:103B1000FFF7DEFEBB899BB201339BB2BB81B7F9D5
:103B20000C20BB689A42E7DBFB899BB201339BB256
:103B3000FB81B7F90E207B889A42BBDB1437BD4668
:103B400090BD00BF90B589B000AF0446084611464D
:103B50001A462346FB800346BB800B46FB70134688
:103B60003B8007F10802FB7810461946FEF7DCF8A7
:103B70000023FB8339E0FB8B07F12002134413F889
:103B8000183CFB760023BB8329E0FA7EBB8BC3F194
:103B9000070342FA03F303F00103002B0ED0FA8867
:103BA000BB8B134499B2BA88FB8B13449AB23B88FF
:103BB000084611461A46FFF78BFE0DE0FA88BB8BCC
:103BC000134499B2BA88FB8B13449AB23B8E0846D1
:103BD00011461A46FFF77CFEBB8B0133BB83BB8BC0
:103BE000072BD2D9FB8B0133FB83FB8B0F2BC2D965
:103BF0002437BD4690BD00BF90B589B002AFBA6012
:103C00001A460346FB810B46BB811346FB80BB680B
:103C10005A1CBA601B78FB75F889B989FA7DFC8853
:103C20003B8D00932346FFF78DFFFB89B3F59C7F07
:103C300003D2FB890833FB810CE0BB89DF2B05D85D
:103C40000023FB81BB891033BB8103E00023FB8190
:103C50000023BB81BB681B78002BD8D11C37BD4625
:103C600090BD00BF80B483B000AF0346FB804FF02F
:103C7000DE42FB8813800C37BD465DF8047B70473D
:103C800080B483B000AF0346FB80044AFB881380F6
:103C90000C37BD465DF8047B704700BF0000016F24
:103CA00080B400AF034B1B889BB21846BD465DF83D
:103CB000047B70470000016F80B582B000AF0346FF
:103CC0000A46FB801346BB80FB881846FFF7CAFFF5
:103CD000BB881846FFF7D4FF0837BD4680BD00BF3C
:103CE00080B582B000AF0346FB80FB881846FFF723
:103CF000B9FFFFF7D5FF034618460837BD4680BD1C
:103D000080B483B000AF78604FF020407B681B68C0
:103D10007A6851687A68926811437A68D268114368
:103D20007A68126911437A68526911437A68926914
:103D300011437A68D26911437A68126A11437A682A
:103D4000526A11437A68926A11437A68D26A1143BF
:103D50007A68126B0A4340F823207B689B68082B23
:103D60000DD14FF020417B681B684FF020407A68EE
:103D7000126850F8222042F0400241F823204FF010
:103D800020407B681B6801337A68526B11687A683F
:103D9000526B5268120111437A68526B9268120298
:103DA00011437A68526BD268120411437A68526BDD
:103DB0001269120511437A68526B52691206114357
:103DC0007A68526B92690A4340F823207B68DB6A69
:103DD000B3F5804F20D116487B681B687A68926BD8
:103DE00011687A68926B5268120111437A68926B7B
:103DF0009268120211437A68926B1269120511439C
:103E00007A68926B5269120611437A68926B9269D2
:103E10000A4340F8232006E0054A7B681B686FF0E0
:103E2000704142F823100C37BD465DF8047B7047A3
:103E3000040100A080B483B000AF78600B46FB7033
:103E4000FB78002B0CD04FF020414FF020427B68D4
:103E500052F8233043F001027B6841F823200BE045
:103E60004FF020414FF020427B6852F82320054B51
:103E700013407A6841F822300C37BD465DF8047B68
:103E8000704700BFFEFF0F0080B582B000AF034651
:103E90003960FB71FB79013B054AD35C18463968F0
:103EA00001F04EF9FB7918460837BD4680BD00BFCA
:103EB000CC53002090B583B000AF0023FB710BE022
:103EC000FC790120002101F0EFF803461A46054B6A
:103ED0001A55FB790133FB71FB79042BF0D90C37B0
:103EE000BD4690BDCC53002080B582B000AFFCF73A
:103EF00061FC012001213222054BFCF739FB03460E
:103F0000FB71FB791846FCF7C9FB0837BD4680BD3D
:103F1000153F000880B582B000AFFCF763FC034694
:103F2000FB71FB79002B0BD0084B1B78FA799A4276
:103F300006D0FB79013B064AD35C184601F0BCF978
:103F4000024AFB7913700837BD4680BDC853002074
:103F5000CC53002080B485B000AF786039603B68F6
:103F6000002B00D164E0354B1B68002B06D17B6829
:103F70003A681A62314A7B68136053E02F4B1B6822
:103F8000BB603B68FB604AE0FA68BB681B6AD31AF7
:103F9000FB60FB68002B2EDABB689B6A002B0ED0FF
:103FA000BB689B6A7A685A62BB689A6A7B689A6245
:103FB0007B68BA685A62BB687A689A620AE01F4BEB
:103FC0001A687B685A621D4B1B687A689A621B4AA2
:103FD0007B6813607B685B6A1A6AFB681A447B68BB
:103FE0001A627B685B6A7A68526A116A7A68126A36
:103FF0008A1A1A6216E0FB68002B0DDBBB685B6A4D
:10400000002B09D17B68BA689A62BB687A685A62E9
:10401000FA687B681A6205E0BB685B6ABB60BB68D4
:10402000002BB1D17B6802225A71054B01221A7014
:104030001437BD465DF8047B704700BFB40900200B
:104040001E05002080B483B000AF78607B689B6A57
:10405000002B07D17B685B6A002B03D1254B002224
:104060001A603DE07B689B6A002B14D17B685B6A19
:10407000204A13607B685B6A7A68526A116A7A68C0
:10408000126A0A441A627B685B6A00229A627B6841
:1040900000225A6224E07B685B6A002B07D17B68B0
:1040A0009B6A00225A627B6800229A6218E07B6851
:1040B0009B6A7A68526A5A627B685B6A7A68926A1B
:1040C0009A627B685B6A7A68526A116A7A68126AD5
:1040D0000A441A627B6800225A627B6800229A6254
:1040E0007B684FF0FF321A620C37BD465DF8047BE7
:1040F000704700BFB409002080B582B000AF78607F
:10410000164B1B78DBB2002B01D0032321E07B6828
:10411000B3F1FF3F01D102231BE07B68002B01D1EB
:10412000002316E00E4B1B78DBB2002B01D01523C9
:104130000FE00B4B1B78DBB20133DAB2084B1A707D
:10414000084B1B6818467968FFF704FFFCF73EF838
:10415000002318460837BD4680BD00BF1C0500205F
:104160001D0500206009002090B585B000AF044611
:10417000084611461A462346FB710346BB710B469F
:104180007B7113467B80214B1B78DBB2002B01D067
:10419000032336E0BB793B2B06D87B793B2B03D836
:1041A0007B88B3F57A7F01D302232AE0184B1B7872
:1041B000DBB2002B01D0152323E0FB794FF46162C1
:1041C00002FB03F1BA7913461B019B1A9B00CA1824
:1041D0007B7913444FF47A7202FB03F27B884FF42D
:1041E0007A7101FB03F303F5FA730A4981FB0301BA
:1041F0008911DB17CB1A1344FB60F868FFF77CFFCB
:10420000002318461437BD4690BD00BF1C05002092
:104210001D050020D34D621080B582B000AF1A4B4F
:104220001B687B6026E07B681B7AFF2B02D07868D6
:1042300000F0C8F97B68DB69002B04D07B68DB6980
:10424000184601F019F97B684FF0FF321A627B685B
:104250005B6A0D4A13607B6800225A627868FDF73A
:1042600021F8094B1B687B607B68002B02D07B68C0
:1042700000229A627B68002B03D07B681B6A002BAC
:10428000D1D00837BD4680BDB409002080B500AF4D
:10429000074B1B78DBB2012B06D9064B01221A70A3
:1042A000054B01221A7001E0FFF7B6FF80BD00BF89
:1042B0001D050020B0090020B109002080B485B0A0
:1042C00000AF0023FB73184BBB60184B7B6014E0FE
:1042D000BB687A681A60BB68FA7B1A71BA6853794E
:1042E000042161F303035371BB681033BB607B6827
:1042F00010337B60FB7B0133FB73FB7B122BE7D915
:10430000BA685379042161F303035371BB68002237
:104310001A60BB68FA7B1A71054B034A1A6014379E
:10432000BD465DF8047B7047B8090020C80900202D
:10433000F80A002080B584B000AF03463A60FB71F4
:104340000B46BB711A4B1B78DBB20133DAB2184B48
:104350001A70184B1B68002B03D1FBF737FF0023A3
:1043600022E0144B1B68FB60124B1B681B68114A50
:104370001360FBF72BFFFB7903F00F03D9B2FA6848
:10438000537961F303035371BB7903F00F03D9B27F
:10439000FA68537961F307135371FB683A681A603E
:1043A000FB680022DA60FB6818461037BD4680BD06
:1043B0001D050020F80A002080B584B000AF7860A9
:1043C00039603B4B1B78DBB20133DAB2384B1A70E1
:1043D0007B68DB68FB607B681A793B681A727B68D4
:1043E0005B7923F00F03DBB2102B15D1FB68002B98
:1043F00003D17B683A68DA604EE002E0FB685B69F3
:10440000FB60FB685B69002BF8D1FB683A685A6176
:104410003B68FA689A613FE07B685B7923F00F03A1
:10442000DBB2202B38D1FB68002B03D17B683A68C4
:10443000DA6031E0FB681A793B681B799A4209D946
:104440007B683A68DA603B68FA685A61FB683A68E8
:104450009A6121E0FB685B69BB600BE0BB681A797D
:104460003B681B799A4200D907E0BB68FB60BB68D8
:104470005B69BB60BB68002BF0D1FB683A685A618E
:104480003B68FA689A613B68BA685A61BB68002B5E
:1044900002D0BB683A689A613B6802225A71054BA8
:1044A00001221A70FBF792FE1037BD4680BD00BF97
:1044B0001D0500201E05002080B584B000AF786087
:1044C0007B68DB68FB60FB68002B00D174E0FB6855
:1044D0005A697B68DA607B68DB68002B03D07B68F5
:1044E000DB6800229A61FB6800225A61FB68FF22A8
:1044F0001A72FB681B6AB3F1FF3F02D0F868FFF73E
:10450000A1FD7B685B7903F00F03DBB2022B0DD1B9
:104510007B681A68FB681A617B6800221A607B68F6
:10452000DB88013B9AB27B68DA8039E07B685B7993
:1045300003F00F03DBB2032B21D17B681B68BB6048
:10454000BB681A68BB68DB889B0013441A68FB6869
:104550001A61BB68DB8801339AB2BB68DA80BB683A
:104560009B89013B9AB2BB689A81BB68DA88BB68B9
:104570005B899A4214D1BB680022DA8010E07B6824
:104580005B7903F00F03DBB2012B09D17B68DB8879
:10459000013B9AB27B68DA80FB684FF0FF321A6108
:1045A000074B1B68FA689A4203D1FB6801225A71D3
:1045B00002E0F868FCF776FE1037BD4680BD00BF0C
:1045C0006009002080B485B000AF78607B681B7AFA
:1045D0001B01214A1344FB607B685B69002B07D1F8
:1045E0007B689B69002B03D1FB680022DA602BE01B
:1045F0007B689B69002B0BD17B685B6900229A6109
:104600007B685A69FB68DA607B6800225A611BE0AC
:104610007B685B69002B07D17B689B6900225A612C
:104620007B6800229A610FE07B689B697A68526917
:104630005A617B685B697A6892699A617B6800223B
:104640009A617B6800225A617B68FF221A721437D4
:10465000BD465DF8047B7047B809002080B487B080
:1046600000AF7860396000237B6100233B61002349
:10467000FB6000237B6176E07B69012202FA03F391
:104680003B613B681A683B691340FB60FA683B6911
:104690009A4265D17B681A687B695B0019460323DF
:1046A0008B40DB431A407B681A607B681A683B6862
:1046B0001B7919467B695B0001FA03F31A437B6897
:1046C0001A603B681B79012B03D03B681B79022BD6
:1046D0002ED17B689A687B695B00194603238B4067
:1046E000DB431A407B689A607B689A683B685B7919
:1046F00019467B695B0001FA03F31A437B689A60F1
:104700007B685A687B699BB2194601238B40DB4367
:104710001A407B685A607B685B683A6892791146F8
:104720007A6992B201FA02F292B21A437B685A6035
:104730007B68DA687B699BB25B00032101FA03F3B3
:10474000DB431A407B68DA607B68DA683B68DB79B8
:1047500019467B695B0001FA03F31A437B68DA6050
:104760007B6901337B617B690F2B85D91C37BD4683
:104770005DF8047B704700BF80B485B000AF7860FF
:104780000B467B800023FB737B681A697B88134090
:10479000002B02D00123FB7301E00023FB73FB7BA2
:1047A00018461437BD465DF8047B704780B483B06B
:1047B00000AF78607B681B699BB218460C37BD461A
:1047C0005DF8047B704700BF80B483B000AF7860B1
:1047D0000B467B807B687A881A830C37BD465DF870
:1047E000047B704780B483B000AF78600B467B8059
:1047F0007B687A885A830C37BD465DF8047B704726
:1048000080B485B000AF78600B467B8013467B7028
:104810000023FB600023BB607B787A8802F00702EC
:1048200092009340FB607B88DB089BB218467B8834
:10483000DB089BB21A467B68083253F822207B883B
:1048400003F007039B0019460F238B40DB4302EA6A
:1048500003017B6800F1080243F822107B88DB0823
:104860009BB21A467B68083253F82220FB68134338
:10487000BB607B88DB089BB21A467B680832B9684C
:1048800043F822101437BD465DF8047B704700BF23
:1048900080B500AF154A154BD3F8883043F4700348
:1048A000C2F88830124A124B1B6843F001031360B0
:1048B0000F4B00229A600E4A0D4B1B6823F0847345
:1048C00023F4803313600A4B0A4A5A60084A084BA3
:1048D0001B6823F480231360054B0022DA6000F08C
:1048E0000BF8024B4FF000629A6080BD00ED00E0D3
:1048F000003802401030002480B400AF234A234B1C
:104900001B6C43F080531364214A214B1B6843F412
:10491000804313601D4A1D4B9B6893601B4A1B4BD1
:104920009B6843F400439360184A184B9B6843F418
:10493000A0539360154B174A5A60144A134B1B68D7
:1049400043F08073136000BF104B1B6803F00073CB
:10495000002BF9D0104B40F205721A600B4A0B4B3A
:104960009B6823F003039360084A084B9B6843F05D
:104970000203936000BF054B9B6803F00C03082BF8
:10498000F9D1BD465DF8047B704700BF0038024096
:104990000070004010540007003C024080B582B017
:1049A00000AF01200121FDF765F9FF233B600023E3
:1049B0003B710023FB713B4603481946FFF74EFE4F
:1049C0000837BD4680BD00BF0000024080B582B000
:1049D00000AF40200121FDF74DF94FF400633B602B
:1049E00000233B710123FB713B460B481946FFF73F
:1049F00035FE4FF480433B6001233B7102237B7102
:104A00000023BB710023FB713B4603481946FFF7A7
:104A100025FE0837BD4680BD0018024080B584B031
:104A200000AF4FF480700121FDF760F92923BB80AE
:104A30000023FB804FF6FF73BB600023BB81002384
:104A4000BB733B1D0548194600F07EFE034801215B
:104A500000F0F0FE1037BD4680BD00BF00200040D2
:104A600080B500AF03484FF40061FFF785FE0346B1
:104A7000184680BD0018024080B500AF02484FF4D0
:104A80008041FFF7A1FE80BD0018024080B500AF55
:104A900002484FF48041FFF7A5FE80BD0018024098
:104AA00080B584B000AF78600023FB730023BB8126
:104AB0000848FFF77BFE0346BB810648FFF776FEFA
:104AC0000346FB73FB7B9AB27B681A801037BD46A6
:104AD00080BD00BF0000024080B500AF024800F07A
:104AE0009DFE0346184680BD0020004080B584B07E
:104AF00000AF78600B467B8013467B707B68002B91
:104B000002D07B88002B01D1FF2362E0334B1B785E
:104B1000DBB20133DAB2314B1A700023FB7352E07F
:104B2000FB7B012202FA03F31A462D4B1B6813404C
:104B3000002B45D1FB7B012202FA03F31A46284BD6
:104B40001B681343264A1360FBF740FBFB7B254A97
:104B50001B0113447A681A60FB7B224A1B01134431
:104B6000FA7B1A71FB7B1F4A1B0113440022DA8077
:104B7000FB7B1C4A1B011344083300221A80FB7B79
:104B8000184A1B01134408337A885A80FB7B154A64
:104B90001B011344083300229A80FB7B1B01114A3E
:104BA00013447A78032011461A46FFF7C3FBB86016
:104BB000BB68002B01D1FF230BE0BB681B7908E029
:104BC000FB7B0133FB73FB7B012BA9D9FBF7FEFABF
:104BD000FF2318461037BD4680BD00BF1D050020CD
:104BE0001C0B0020FC0A002080B588B000AF0346F3
:104BF000B9607A60FB734F4B1B78DBB2002B04D09B
:104C00007B6803221A7000238FE0FB7B132B04D9EF
:104C10007B6801221A70002387E0FB7B1B01464A58
:104C20001344FB61FB695B7903F00F03DBB2032BD9
:104C300004D07B6801221A70002376E03F4B1B787A
:104C4000DBB2002B04D07B6815221A7000236CE0C5
:104C5000FB691B68BB61394B1B78DBB20133DAB2ED
:104C6000364B1A70BB699B89002B23D0BB691A682D
:104C7000BB69DB889B0013441B687B61BB69DB88D5
:104C800001339AB2BB69DA80BB699B89013B9AB256
:104C9000BB699A81BB69DA88BB695B899A4202D198
:104CA000BB690022DA80FBF791FA7B6800221A7058
:104CB0007B693AE0FBF78AFA214B1B683B61BB68D2
:104CC000002B0ED1F8693969FFF776FB3B691B6948
:104CD0007B613B6900221A617B6800221A707B6944
:104CE00023E0164B1B78DBB20133DAB2134B1A7098
:104CF000F8693969FFF760FB3869B968FFF72AF985
:104D0000FBF764FA3B691B69002B04D17B68052221
:104D10001A70002309E03B691B697B613B69002233
:104D20001A617B6800221A707B6918462037BD46DD
:104D300080BD00BF1C050020B80900201D05002013
:104D40006009002080B584B000AF03463960FB7174
:104D5000FB79132B01D9012342E0FB791B01224A85
:104D60001344FB60FB685B7903F00F03DBB2032B9A
:104D700001D0012334E0FB681B68BB60BB689A89E3
:104D8000BB685B899A4201D1082329E0174B1B7845
:104D9000DBB20133DAB2154B1A70BB681A68BB6814
:104DA0001B899B0013443A681A60BB681B89013356
:104DB0009AB2BB681A81BB689B8901339AB2BB68FF
:104DC0009A81BB681A89BB685B899A4202D1BB6829
:104DD00000221A81F868FFF76FFBFBF7F7F9002351
:104DE00018461037BD4680BDB80900201D050020BB
:104DF00080B400AF62B600BFBD465DF8047B70476B
:104E000080B400AF72B600BFBD465DF8047B70474A
:104E1000A0F11C0080F30988704700BF024B1B689B
:104E2000024A1168196070473404002038040020D9
:104E30000B4B19680B4A126891420AD0EFF30980B4
:104E400020E9F00F08601A601068B0E8F00F80F3F6
:104E50000988054B002018704EF0040E70470000C2
:104E6000600900205C0900201D05002080B586B087
:104E700000AF0346FB714B4B1B78DBB2002B01D01C
:104E800003238BE0484B1B78FA799A4201D3012324
:104E900084E0464B1B78DBB20133DAB2434B1A7025
:104EA000FB79DB00424A1344FB60FB689B781A469F
:104EB0002C2303FB02F33F4A13447B617B69FF22EF
:104EC000DA71FB685B68002B08D1FB6800225A701E
:104ED000FB68FF229A70FBF779F95EE0FB689B782C
:104EE000FB72FB68DB78FA7A9A4219D1FB685B683F
:104EF0007B617B691B79FB740EE07B691B79FA7C13
:104F00009A4206D97B691B79FB747B699A79FB68A5
:104F1000DA707B695B6A7B617B69002BEDD107E00E
:104F2000FB7A244A2C2101FB03F313441B79FB7405
:104F3000FB68FF229A70FB681B78FA7A10461946C4
:104F4000FCF7F2FAFB685B687B617B695A6AFB6875
:104F50005A607B691A79FB681A707B699A79FB68D9
:104F60009A707B691B79FA7C9A4208D07B691B791D
:104F70001846FCF747F9FB7C1846FCF7E7F87B6915
:104F8000FA7C1A717B6900225A627B6900229A625C
:104F90007869FCF787F9FBF719F9002318461837E9
:104FA000BD4680BD1C050020200B00201D050020F3
:104FB000240B00206805002080B586B000AF786023
:104FC0007B68DB79DB00374A13443B617B685B6AB3
:104FD000002B07D17B689B6A002B03D13B69002221
:104FE0005A6027E07B685B6A002B07D17B689B6A6D
:104FF00000225A627B6800229A621BE07B689B6AEF
:10500000002B07D17B685B6A00229A627B680022D2
:105010005A620FE07B685B6A7A68926A9A627B6880
:105020009B6A7A68526A5A627B6800229A627B683D
:1050300000225A627B68FF22DA713B69DA787B686A
:105040009B799A422BD13B695B687B603B691B78FB
:10505000FB753B699A783B69DA700EE07B681B79D7
:10506000FA7D9A4206D97B681B79FB757B689A7931
:105070003B69DA707B685B6A7B607B68002BEDD1F3
:105080003B699B78FB733B69FF229A70FA7BFB7D3F
:1050900010461946FCF748FA3B69FA7B9A701837B4
:1050A000BD4680BD240B002080B584B000AF034610
:1050B0000A46FB711346BB711F4B1B78DBB20133F1
:1050C000DAB21D4B1A700023FB732AE01B4B9B685E
:1050D000FA7B012101FA02F21340002B1ED1174B7B
:1050E0009B68FA7B012101FA02F21343134A936091
:1050F000124B1B68B979FA7B01FA02F213430F4A8B
:1051000013600E4B5B68F979FA7B01FA02F21343E4
:105110000A4A5360FBF75AF8FB7B08E0FB7B01333C
:10512000FB73FB7B1F2BD1D9FBF750F8FF231846ED
:105130001037BD4680BD00BF1D050020740B002048
:1051400080B58AB000AF03463960FB71554B1B78C0
:10515000DBB2002B01D00323A0E0534B1B78DBB262
:10516000002B01D0152399E0FB791F2B01D90123D6
:1051700094E04E4B9B68FA79012101FA02F2134048
:10518000002B01D1012389E0474B1B78DBB20133AF
:10519000DAB2454B1A70454B7B627B6A1B68FA7921
:1051A000012101FA02F21340002B0FD07B6A1A682A
:1051B0007B6A5B68F979012000FA01F10B40DB435F
:1051C0001A407B6A1A60FBF701F866E0384B1B68EF
:1051D0003B623B68002B2ED1FB79012202FA03F3DC
:1051E0001A4607F10C0318461146022200F0DEF8B9
:1051F0003B6A02225A712F4B01221A70FAF7E6FF1E
:105200003B6A0022DA61284B1B78DBB20133DAB249
:10521000254B1A707B6A1A68FB79012101FA03F3A6
:1052200019467B6A5B680B40DB431A407B6A1A6055
:10523000FAF7CCFF31E0FB79012202FA03F31A46B8
:1052400007F10C0318461146022200F0AFF8386A45
:105250003968FEF77FFEFAF7B9FF3B6ADB69002B7E
:1052600001D105231AE03B6A0022DA610E4B1B785C
:10527000DBB20133DAB20C4B1A707B6A1A68FB7925
:10528000012101FA03F319467B6A5B680B40DB439B
:105290001A407B6A1A60FAF799FF002318462837EC
:1052A000BD4680BD1C0500201D050020740B00209C
:1052B000600900201E05002080B584B000AF0346C1
:1052C000FB71384BBB60FB791F2B01D9012364E0D4
:1052D000BB689B68FA79012101FA02F21340002BA6
:1052E00001D1012359E0BB681B68FA79012101FA59
:1052F00002F21340002B01D000234EE0BB681B6874
:10530000FA79012101FA02F21A43BB681A60264BAE
:105310001B78DBB20133DAB2234B1A70BB68DB684F
:10532000FB6034E0FB681B7C002B17D1FB689A689C
:10533000BB681B681A40FB689B689A4224D1F868D6
:1053400000F070F8F860BB685B68FA79012101FA37
:1053500002F21340002B00D01CE018E0FB689A68B2
:10536000BB681B681340002B0ED0F86800F05AF899
:10537000F860BB685B68FA79012101FA02F2134018
:10538000002B00D006E002E0FB681B68FB60FB68B6
:10539000002BC7D1FAF71AFF002318461037BD4675
:1053A00080BD00BF740B00201D05002080B487B0B5
:1053B00000AFF860B9601346FB71184B7B61184B66
:1053C0001B68FA68DA61164B1A68FB68DA60FB68DA
:1053D000BA689A60FB68FA791A747B691B69002BBA
:1053E00009D1FB6800221A60FB6800225A607B69C1
:1053F000FA68DA600AE07B691B69FA681A607B69FF
:105400001A69FB685A60FB6800221A607B69FA68B7
:105410001A611C37BD465DF8047B7047740B002091
:105420006009002080B584B000AF7860786800F033
:1054300023F87B68DB68FB60FB681B6AB3F1FF3F06
:1054400002D0F868FEF7FEFDFB684FF0FF32DA612C
:10545000084B1B68FA689A4203D1FB6801225A7113
:1054600002E0F868FBF71EFF7B681B6818461037E0
:10547000BD4680BD6009002080B483B000AF786075
:105480007B681B68002B0AD17B685B68002B06D108
:10549000194B0022DA60184B00221A6123E07B6866
:1054A0001B68002B08D17B685B68134A13617B681B
:1054B0005B6800221A6016E07B685B68002B08D1ED
:1054C0007B681B680C4AD3607B681B6800225A60AB
:1054D00009E07B681B687A6852685A607B685B6881
:1054E0007A6812681A607B68DB680022DA610C3720
:1054F000BD465DF8047B7047740B002080B487B014
:1055000000AFF860B9607A607B687B617B691A1FC5
:105510007A614FF080721A607B691A1F7A61FA68AB
:105520001A607B696FF001021A607B69143B7B6132
:10553000BA687B691A607B69203B7B617B6918468E
:105540001C37BD465DF8047B704700BF80B500AFD7
:105550001F4B1B78DBB20133DAB21D4B1A701D4BA7
:10556000D3E90023013243F100031A49C1E90023C2
:10557000194B1B68002B10D0174B1B681B6A012BA3
:1055800005D9154B1B681A6A013A1A6205E0124BDD
:105590001B6800221A62FEF779FE104B1B68002B75
:1055A00010D00E4B1B685B68012B05D90B4B1B6899
:1055B0005A68013A5A6005E0084B1B6800225A609D
:1055C000FBF7E0F8064B01221A70FAF7FFFD80BDE9
:1055D0001D050020880B0020B40900205005002084
:1055E0001E05002080B584B000AF0346FB71FB7937
:1055F000132B01D9012328E0FB791B01154A134421
:10560000FB60FB685B7903F00F03DBB2012B01D079
:1056100001231AE0FB68DA88FB681B899A4201D1F2
:10562000062312E00C4B1B78DBB20133DAB20A4BD3
:105630001A70FB68DB8801339AB2FB68DA80F8687D
:10564000FEF73AFFFAF7C2FD002318461037BD46B1
:1056500080BD00BFB80900201D05002080B500AF47
:1056600005484FF400710122FFF740FA03461A463D
:10567000024B1A7080BD00BFD4530020D45B0020C1
:1056800080B500AFFFF78AF9FFF7A0F9FFF7C6F979
:10569000FFF7E4FF03480021034A044BFCF7F2F84C
:1056A00080BD00BFB156000803000200D46B00208B
:1056B00080B584B000AF78600123FB730123BB7316
:1056C0000023BB81FFF7D8F9FFF7CAF90346BB7384
:1056D000BB7B002B1CD1FB7B002B19D007F10803EF
:1056E0001846FFF7DDF9FFF7F7F90346BB81FFF72F
:1056F000CDF93A890C4B1A800B4ABB8953800B4B6E
:105700001B7818460849FFF71DFB0346FB7207E0AC
:10571000BB7B002B04D0FB7B002B01D1FFF7ACF946
:10572000BB7BFB73D0E700BFD86B0020D45B0020AD
:1057300080B483B000AF7860FEE700BF80B483B070
:1057400000AF0346FB71FEE780B485B000AF786020
:1057500039600023FB817B681B88FB817B68284ABA
:10576000934213D07B68274A93420FD07B68B3F1F2
:10577000804F0BD07B68244A934207D07B68234A32
:10578000934203D07B68224A934208D1FB8923F0DD
:105790007003FB813B685A88FB891343FB817B685C
:1057A0001C4A93420CD07B681B4A934208D0FB8969
:1057B00023F44073FB813B681A89FB891343FB8107
:1057C0007B68FA891A803B685A687B68DA623B68B2
:1057D0001A887B681A857B68094A934203D07B68E4
:1057E000084A934204D13B689B7A9AB27B681A8636
:1057F0007B6801229A821437BD465DF8047B7047AE
:105800000000014000040140000400400008004086
:10581000000C0040001000400014004080B483B031
:1058200000AF78607B685B6A18460C37BD465DF850
:10583000047B704780B483B000AF78600B46FB7088
:10584000FB78002B08D07B681B889BB243F00103D8
:105850009AB27B681A8007E07B681B889BB223F0B2
:1058600001039AB27B681A800C37BD465DF8047B51
:10587000704700BF2DE9F047DFF8A0A08AB00646C8
:105880000F4600F04DF89AF90030013304460D46FA
:105890000FD03046394600F007F950B14FF00008FC
:1058A0004FF000093046394642464B4600F054FD61
:1058B00020B9204629460AB0BDE8F087164B9AF871
:1058C0000040019301220023CDE90467CDE902677E
:1058D0000092089364B9CDE90689684600F010F992
:1058E00080B1089B9BB9DDE906010AB0BDE8F087ED
:1058F0004046494642464B4600F0E6FB022CCDE9C5
:105900000601EAD100F078FD21230360E9E700F009
:1059100073FD089B0360E6E7046B00084004002069
:105920002DE9F0415F4EB6460E40764504460D46E1
:105930000B4600F095800029024674DD0F157FD0DC
:10594000A7F2FF37C3F31303F80743F4801365D4BA
:10595000D10F002601EB43037F105200B6461620FC
:105960004FF400110EEB01049C424FEAD2754FEA4E
:10597000420203DC1B1B04EB010E0E44013805EB55
:1059800043034FEA5101EDD1844620254FF00041F9
:105990000AE0734521D0D40F013D4FEA510104EBD9
:1059A00043034FEA420221D09E450CEB0104F0DA9A
:1059B000002C04EB010C0ADBF046CEEB030394420F
:1059C00088BF03F1FF33121B0844C646E3E7BCF16E
:1059D000000FF1DB0EF10108EFE794421CD8002C18
:1059E00004EB010C48DB98460023ECE7134304D09A
:1059F000411C47D000F00103184445087310F2071A
:105A000003F17F5303F5001348BF45F0004503EB56
:105A100007512846BDE8F0819E46BCE7D10F01EB57
:105A20004303520094E721F00046064322D079BB9D
:105A30000F46D30A153F5205002BFAD0DD0223D4BE
:105A400000215B00DC0201F10101FAD5C1F1010086
:105A5000C1F1200422FA04F4234307448A406FE78B
:105A600002460B4600F006FA22462B4600F050F89C
:105A7000BDE8F081BDE8F081BCF1000FAADAF04684
:105A80000023A0E70136B9E7202401200021E1E747
:105A900002460B4600F03AF802460B4600F014FBB3
:105AA000BDE8F0810000F07F10B431F000440B46F7
:105AB00008D0114AA1F58011914208D804205DF860
:105AC000044B704718B902205DF8044B704703F18E
:105AD000FF43094A03F5E0039342EFD9B4F5801F71
